:1000000045C0000072C100005FC000005DC000007C
:100010005BC0000059C0000057C0000055C0000080
:1000200053C0000051C000004FC000004DC0000090
:100030004BC0000049C0000047C0000045C00000A0
:1000400024C1000041C000003FC000003DC00000CE
:100050003BC0000039C0000037C0000035C00000C0
:1000600033C0000031C000002FC000002DC00000D0
:100070002BC0000029C0000027C0000025C00000E0
:1000800023C0000021C000001FC0000011241FBEBB
:10009000CFEFD0E1DEBFCDBF13E0A0E0B1E0EAEAF0
:1000A000F6E200E00BBF02C007900D92A03EB10740
:1000B000D9F724E0A0EEB3E001C01D92A53AB20743
:1000C000E1F71AD00C9453139BCFCF93C82F8A30EB
:1000D00011F48DE0FADF5D9BFECFCCB980E090E0BB
:1000E000CF9108951092900088E089B988E18AB98B
:1000F00086E08093950008958F929F92AF92BF9271
:10010000CF92DF92EF920F93CF93DF93CDB7DEB70D
:100110006D970FB6F894DEBF0FBECDBF44EF51E030
:1001200060E074E284EF90E0BED18111F7CF8FEFF1
:1001300087BB18BA81BB12BA82B913B88093640026
:1001400010926500CFDF80E091E09093A20480934D
:10015000A10487E0E1E1F1E0DE01579601900D9204
:100160008A95E1F786E1E8E1F1E0DE011196019080
:100170000D928A95E1F781E08F938F938F938F9300
:100180001F921F9281E38F9387E08F931F9288E3E2
:100190008F931F9287E38F931F9282E68F931F9214
:1001A00081E68F931F9285E38F931F9284E38F9351
:1001B0001F9289E38F931F928BE38F938AE3882E9C
:1001C000912C9E01295E3F4F590191E9C92E91E082
:1001D000D92E24E0E22E03E02BE0AE014F5F5F4F0B
:1001E00061E081E0DAD20FB6F894DEBF0FBECDBF7A
:1001F00090910904811109C09923A1F189E094E04B
:100200000E944B10109209042DC0992331F089E00F
:1002100094E00E944B1010920904C1D1882379F018
:10022000809109048823C9F3F2CF809109048823BF
:1002300031F089E094E00E944B10109209040E9472
:10024000A50D8111F2CF0AC080910904882331F0F5
:1002500089E094E00E944B10109209040E94950DD1
:100260008111F2CF80E090E06D960FB6F894DEBF7A
:100270000FBECDBFDF91CF910F91EF90DF90CF9068
:10028000BF90AF909F908F9008951F920F920FB6DE
:100290000F9211242F933F938F939F93809141044A
:1002A00082BF809146049091470401969093470441
:1002B0008093460420914604309147048091420483
:1002C000909143042817390738F010924704109290
:1002D000460481E0809345049F918F913F912F9137
:1002E0000F900FBE0F901F9018951F920F920FB690
:1002F0000F9211248F93F89409B601FE08C089B7B4
:100300008D7F89BF80916A00837F80936A0080918E
:10031000F403813049F480916A00836080936A001D
:1003200082E08093F4030BC080916A008C7F82602E
:1003300080936A0081E08093F4031092F303789431
:100340008F910F900FBE0F901F90189590914004C1
:10035000913009F48095611105C0E0919C04F09101
:100360009D0480830895809194048330E0F480910B
:1003700095048330D0F4809196048430C0F4809149
:1003800097048230B0F480919804833FA0F4809168
:1003900099048852873D88F480919A04815089306D
:1003A00070F087E0089581E0089582E0089583E089
:1003B000089584E0089585E0089586E0089580E03A
:1003C0000895CF92DF92EF92FF920F931F93CF93F6
:1003D000DF93863098F1682F70E0655071098827A7
:1003E00077FD8095982F0E944A0F20E030E040EC86
:1003F0005FE30E94D60F6B017C01CDE9D3E001E5FC
:1004000014E069917991899199910E94480FA7010F
:1004100096010E94B40E20E030E040E85FE30E94C5
:10042000500E0E941C0FF801619371938193919378
:100430008F01F3E0C93DDF0721F71EC0CDE9D3E00E
:1004400001E514E0C82ED12CE12CF12C2991399131
:1004500049915991A5E0B0E00E94360EA70196019E
:100460000E94140EF80121933193419351938F010F
:10047000F3E0C93DDF0751F7DF91CF911F910F9155
:10048000FF90EF90DF90CF900895F89485E083BFC0
:1004900087B7816087BF87B78D7F87BF8091410411
:1004A00082BF78940895CF92DF92EF92FF926B0112
:1004B0007C018091410481113DC0509343044093DD
:1004C0004204C114D104E104F10431F4C12C84E2EA
:1004D000D82E84EFE82EF12CC701B60120E034E2DB
:1004E00044EF50E00E94140E220F822F880F880FD5
:1004F000820F8F5F80939204C701B6010E94480F5C
:100500002FE632E143E85AE30E94D60F20E030E0C4
:1005100040E05CE30E94D60F9B01AC0160E070E01C
:1005200080E893E40E944F0E0E941C0F60934104E8
:10053000ACDF0DC080914504813049F41092450430
:100540001092430410924204F89480E001C081E0CC
:10055000FF90EF90DF90CF90089580919E0420E16E
:10056000829FC00111248D6485BD87B78F7387BFBB
:1005700014BC13BC84B7877F84BF2FE088E190E070
:100580000FB6F894A89581BD0FBE21BD81E0809380
:10059000F40392E090936A0089BF88BF0895CF93D7
:1005A000DF9380911001882309F4C0C09091450425
:1005B000913009F0BDC0109245049091940491309F
:1005C000D1F4813009F087C082E08093100188EE79
:1005D00093E0909343048093420460E08FEFB6DE93
:1005E00080913D04813009F094C0E0914D04F09178
:1005F0004E0410828EC0923009F095C020914204C2
:1006000030914304813009F045C0E0919C04F091A1
:100610009D04C08140913D042436310579F084E683
:1006200090E090934304809342044130E9F4E091D8
:100630004D04F0914E048EEF808316C080914004EB
:10064000813021F48C2F8095C82F01C08C2FCC0FC6
:10065000C82B413061F4E0914D04F0914E0480814B
:10066000880F8160808303C0C1E0D1E001C0D0E089
:1006700060E08C2F6BDECF3F09F049C088EE93E03D
:100680009093430480934204809110018F5F809384
:1006900010013DC02832310581F088E290E090934E
:1006A00043048093420480913D04813031F4E09111
:1006B0004D04F0914E048FEF80838091100190E003
:1006C0006091910470E09B01220F331F2F5F3F4F19
:1006D000281739076CF41092100184E690E090938B
:1006E00043048093420439DF60E080E02FDE1BC0CA
:1006F00001970E94010E87529C4F60E0FC018081AF
:1007000025DE809110018F5F809310010CC0D130E5
:1007100051F480913C04813031F466E971E089E064
:1007200094E00E9444108091100103C080E001C059
:1007300081E0DF91CF9108950F931F93CF93DF93C3
:1007400080E090E00E949412813079F404E914E092
:10075000C0E0D0E02196CE010E949412F80181936E
:100760008F01C730D105B1F713C061E080E090E0A0
:100770000E949C1204E914E0C0E0D0E0F80161910D
:100780008F012196CE010E949C12C730D105B1F78E
:10079000DF91CF911F910F9108952F923F925F9219
:1007A0006F927F928F929F92AF92BF92CF92DF9281
:1007B000EF92FF920F931F93CF93DF93CDB7DEB7E6
:1007C0002E970FB6F894DEBF0FBECDBF182FF62EB2
:1007D000F5012EA03FA068A479A4A8A8B9A858AC98
:1007E00089AD813011F480933C04123060F0809127
:1007F0003C04813031F464EA71E089E094E00E94C5
:10080000441080E06DC1113011F41093400491E068
:100810009F1538F480913C04813099F766EC71E0C3
:10082000ECCF253638F080913C04813051F765EEED
:1008300071E0E3CF053638F080913C04813009F750
:1008400069E072E0DACF84E68E1538F480913C04DA
:100850008130B9F667E272E0D0CF20938F04D601E1
:100860000D900020E9F71197AC19BD09A0939004F1
:1008700086E080939104A53158F080913C0481304A
:1008800009F0BFCF1F9284E18F9385E492E068C0A6
:10089000D0928E04C0928D04509349044093480432
:1008A000005D0093930480E38E0D80934C04868159
:1008B000811102C081E0868386818A3010F089E050
:1008C00086838081809394048181809395048281C2
:1008D00080939604838180939704848124E630E09A
:1008E000A901481B51090FEF049FC001059F900DFE
:1008F0001124B9010E94010E609398048581A90119
:10090000481B5109049FC001059F900D1124B90196
:100910000E94010E60939904868180939A0481E07D
:1009200080939B0420DD882351F19EE0EEE2F1E00C
:10093000DE01119601900D929A95E1F790913C0499
:10094000913009F05ECFFE013196E80FF11DE80FFE
:10095000F11D329781818F9380818F9387E692E09A
:100960009F938F9389E094E09F938F930E947810D8
:100970000F900F900F900F900F900F9042CF9FA964
:10098000923040F080913C04813009F03ACF6AE720
:1009900072E033CFE1E0E51540F480913C04813012
:1009A00009F02FCF69E972E028CFF9ADF23040F0BD
:1009B00080913C04813009F024CF65EB72E01DCFBB
:1009C000BBDE80919A04FDDC80B58B7F80BD8CA15D
:1009D0009DA190934B0480934A04F4011082EAA1F4
:1009E000FBA1008370924E0460924D0450923D042E
:1009F000511006C0FFA9F11103C0F101108202C01D
:100A0000F1010083F30100838CA59DA590939D04C3
:100A100080939C048FEFEAA5FBA5808360E080E0D3
:100A200095DCEEA5FFA5208181E090E00AA802C038
:100A3000880F991F0A94E2F7282B2083F5019081F3
:100A4000113031F4F11004C0982B908383E004C07E
:100A500080958923808382E080939E04EBA9FCA982
:100A6000408181E090E09C010DA802C0220F331F5D
:100A70000A94E2F70EA802C0880F991F0A94E2F7C1
:100A8000822B80958423808380913C048130B9F44B
:100A9000809141041F928F93809192041F928F93B3
:100AA00082ED92E09F938F9389E094E09F938F93E0
:100AB0000E9478100FB6F894DEBF0FBECDBF82E063
:100AC00088BF789480919404811109C0109210011C
:100AD00084E690E090934304809342043EDD81E0FD
:100AE0002E960FB6F894DEBF0FBECDBFDF91CF912B
:100AF0001F910F91FF90EF90DF90CF90BF90AF903C
:100B00009F908F907F906F905F903F902F9008956F
:100B1000CF92DF92EF92FF920F931F93CF93DF93C9
:100B2000CDB7DEB72F970FB6F894DEBF0FBECDBF9F
:100B30007C018C01015011090830110508F0D9C061
:100B4000603219F0623009F0D4C0C8018C569B4F56
:100B50006C01FC018081603211F471E003C08823D4
:100B600019F07FEF780F01C070E09701255031092F
:100B70002230310508F05AC09BE0ECE3F1E0DE01E1
:100B8000119601900D929A95E1F7FE01319620E0C1
:100B900030E041918417C9F0841788F4E82FF0E021
:100BA000DE01A20FB31F8C91DF01A81BB10950E039
:100BB0004E1B5F0BA417B50744F4215006C02F5FEE
:100BC0003F4F2A30310529F72AE004301105A1F4FE
:100BD000603241F4222309F490C0FE01E20FF11DBE
:100BE000708124C02A3009F48AC0FE01E20FF11D91
:100BF0007281713FD8F083C005301105B9F46032BD
:100C000049F4222381F0FE01E20FF11D7081783258
:100C100068F409C02A3049F0FE01E20FF11D72812B
:100C20007F3F21F402C078E201C07EEF023011055F
:100C3000B1F038F40115110571F00130110559F0CA
:100C400021C00630110599F00730110561F003301D
:100C50001105C1F408C07330A8F072E013C07430FD
:100C600088F073E00FC0772369F071E00BC07A3031
:100C700020F4711103C071E001C079E0872F7F87F4
:100C8000A0DB7F85F60170830730110531F0672FF7
:100C9000C7017F870E949C127F8580913C04813030
:100CA00051F58EE0EEE2F1E0DE01119601900D9239
:100CB0008A95E1F71F927F93F801EE0FFF1F81E005
:100CC00090E08C0F9D1FE80FF91F81818F93808129
:100CD0008F9385E393E09F938F9389E094E09F93B4
:100CE0008F930E9478100FB6F894DEBF0FBECDBF71
:100CF00002C080E006C081E004C070E097CF70EFD2
:100D000095CF2F960FB6F894DEBF0FBECDBFDF9103
:100D1000CF911F910F91FF90EF90DF90CF900895AA
:100D2000CF93DF93982F823451F410923F04E091D7
:100D30009004F0E0EC50FC4F808382E459C0809135
:100D40003F048823A9F0813009F449C080919304BD
:100D5000981709F446C080914C04981709F443C0D1
:100D60009C3409F442C0923509F041C082E540C08C
:100D70009C34E9F19235D9F19F33C9F12091900467
:100D800030E0D901AC50BC4F8C91891789F19E3469
:100D900039F4E5EFF3E0A0918D04B0918E0410C01A
:100DA000E6EFF3E0C5EFD3E0AF01455F53404217F4
:100DB00053071CF481918993F7CF9C93892F18C016
:100DC000CF01855F93408217930734F491918D9101
:100DD0009817B1F38EE40CC081E080933F0485E561
:100DE00007C08BE205C08DE203C08CE401C08FE335
:100DF000DF91CF9108950F931F93CF93DF93CDB7DA
:100E0000DEB76E970FB6F894DEBF0FBECDBF982F3A
:100E1000991F9927991F90933E048F7709F44DC02D
:100E200040E050E0E0E0F0E0682F70E0DB010E2EE3
:100E300002C0B595A7950A94E2F7A170BB274A0FA7
:100E40005B1F3196E430F10589F742305105BCF55E
:100E500064FB222720F930E065FB002700F910E051
:100E6000200F311FE6E076956795EA95E1F7260FAA
:100E7000371F2130310519F54130510501F56091D9
:100E80008F0470E0209148043091490440E050E024
:100E9000461757077CF4F9012E5F3F4FD90112978F
:100EA0009C91981304C08181853451F004C04F5F38
:100EB0005F4FEECF8FE334DF03C085E401C08FE3E3
:100EC0009EE1E7E4F1E0DE01119601900D929A9522
:100ED000E1F7FE01319620E030E0908198130BC0DD
:100EE000F901EE0FFF1F81E090E08C0F9D1FE80FCE
:100EF000F91F818107C02F5F3F4F32962F30310598
:100F000061F783EE6E960FB6F894DEBF0FBECDBFCD
:100F1000DF91CF911F910F9108958F929F92AF9281
:100F2000BF92CF92DF92EF92FF920F931F93CF93D6
:100F3000DF93CDB7DEB7A4970FB6F894DEBF0FBE30
:100F4000CDBF182F84E2E5E6F1E0DE0111960190B5
:100F50000D928A95E1F74091EF035091F003609173
:100F6000F1037091F2034F5F5F4F6F4F7F4F4093DC
:100F7000EF035093F0036093F1037093F2038091B9
:100F80003F04823031F48091EE038550823008F4C2
:100F900050C090913E048091ED03913019F400917E
:100FA000990402C000919804801709F442C000938C
:100FB000ED03802E912CB401882777FD8095982F22
:100FC00069D76B017C01AA24AA94B12CA818B9088E
:100FD00080E58A9DB0018B9D700D1124882777FDD7
:100FE0008095982F57D72AE037ED43E25CE3DED7B0
:100FF0009B01AC01C701B60153D61ED760930F0108
:1010000081E28A9DB0018B9D700D1124882777FDA8
:101010008095982F3FD72AE037ED43E25CE3C6D7AF
:101020009B01AC01C701B6013BD606D760930E0108
:1010300003BD90913F048091EB039111C8C03091A2
:101040009504332309F4E2C12091EC03222309F42F
:10105000DDC140E8420F423008F4D8C1233E09F414
:10106000D5C1211709F4D2C1103819F0153809F08B
:10107000CDC181110EC081E08093EB031092EF038C
:101080001092F0031092F1031092F2038091ED039D
:1010900083BD0091EC03053899F48091EA03833510
:1010A00061F48EE48093EA0380913C04813029F45A
:1010B00069E473E089E094E0E7D760E085E88DC4F7
:1010C000313009F04CC060E0802F40D92091ED0311
:1010D0006091EF037091F0038091F1039091F2031E
:1010E000293C48F42091510430915204409153041A
:1010F0005091540408C020916104309162044091E1
:1011000063045091640490D5672B682B692B31F4EC
:1011100083B58E3F18F483B58E5F83BD83B58E3F54
:1011200008F45DC44091EF035091F0036091F10326
:101130007091F2038091790490917A04A0917B04DC
:10114000B0917C0484179507A607B70708F047C439
:101150008091ED0383BD60E08091EC0334C03230B8
:1011600009F03DC46091EF037091F0038091F103A9
:101170009091F203C0908504D0908604E09087049B
:10118000F09088046C157D058E059F05D0F42091A4
:10119000610430916204409163045091640444D529
:1011A000C0905904D0905A04E0905B04F0905C0425
:1011B000C616D706E806F90608F00DC460E080E020
:1011C0000CC460E0802FC2D81093EC031CC1913096
:1011D00009F054C0882321F08091EC03873509F190
:1011E00082E58093EA0380913C04813029F461E533
:1011F00073E089E094E048D781E08093EB0310929C
:10120000EF031092F0031092F1031092F203809317
:10121000EE038A818093E9031093EC038091ED0340
:1012200083BD6091EF037091F0038091F103909181
:10123000F203683B2BE072078105910570F428EEFC
:1012400033E040E050E0F0D4613971408105910510
:1012500008F4B4CF60E087E5C0C360E0812F76D8A2
:101260001092EB031092EF031092F0031092F1032F
:101270001092F20382E080933F04B1C3923009F0F0
:10128000C5C0813009F466C02091EC03203229F0FA
:10129000223019F0233E09F0B9C081115BC081E012
:1012A0008093EB031092EF031092F0031092F1037E
:1012B0001092F2031093EC039091E80391114AC04D
:1012C0008093E8038091EE03612F90E021DC813070
:1012D000D9F583EE8093E703E091EE03E83059F40B
:1012E0008091EC03803211F0823029F460E080E0DC
:1012F0002DD880E085C38BEF8E0FF0E0823010F4A4
:10130000319710C0ED56FB4F208130E0205D3F4FFC
:10131000FE01319680E090E0408150E04217530793
:1013200069F4FC01EE0FFF1F81E090E08C0F9D1F20
:10133000E80FF91F81818093E7030CC00196329674
:101340008231910549F706C083EE8093EC038093C8
:10135000E70313EE8091E803813071F08091EF0391
:101360009091F003A091F103B091F203883E934075
:10137000A105B10508F042C08091EE039BEF980FE4
:10138000923018F16091EF037091F0038091F103B6
:101390009091F203683E23E0720781059105F8F40D
:1013A0002CE231E040E050E03FD42091E703663981
:1013B00071058105910510F4286001C0277F2093F5
:1013C000E70360E08091E70308C3FE013196E80F70
:1013D000F11DE80FF11D329760E0818102C060E0ED
:1013E000812F0E94A6011092EB031092EF0310923E
:1013F000F0031092F1031092F203F1C260E08091C9
:10140000E9030E94A6011092EB03E9C2813051F476
:101410001092EB031092EF031092F0031092F1037D
:101420001092F2030091EC03011709F4CFC08091F0
:101430003C04813009F059C0911157C00091EA0372
:10144000033529F469E473E089E094E01DD615388A
:1014500009F44BC0103809F448C0033531F468E68C
:1014600073E089E094E005D605C069E673E089E0A1
:1014700094E00AD6133E19F46FE673E031C01138D8
:1014800019F461E773E02CC0143119F464E971E0D8
:1014900027C0133B19F463E773E022C0163B19F42D
:1014A00065E773E01DC0143D19F467E773E018C0E9
:1014B000163E19F469E773E013C0173E19F46BE7A1
:1014C00073E00EC0143319F46DE773E009C0173FE1
:1014D00019F46FE773E004C0163F29F461E873E084
:1014E00089E094E0C6D510923B048EE48093EA0331
:1014F0001093EC031092E6031092E5031092E403BC
:101500001092E3031092E2031092E8038091ED033E
:1015100083BD80913F04811164C2103809F06EC20E
:1015200085E890913F04923009F046C0113019F0DF
:101530001430F1F50AC08091EE0381508093EE03E0
:1015400081110DC01093EE030AC08091EE038F5FEE
:101550008093EE03893018F088E08093EE03E091E9
:10156000EE03DE01119680E090E02C912E130EC068
:10157000DC01AA0FBB1F81E090E08C0F9D1FA80F1C
:10158000B91F11968C918093E90305C001961296BC
:101590008231910551F78091E9039BEF9E0F9230C4
:1015A00058F4F0E0ED56FB4F90819093ED0304C0AA
:1015B000133E09F014C208C01092EF031092F0031A
:1015C0001092F1031092F20360E007C28091E203EF
:1015D0009091E303892B29F493B58091ED0398133F
:1015E00083BD80913F04823009F096C0003821F01D
:1015F000013011F0043011F40091E9032091EE0361
:101600008BEF820F823008F4E6C1283009F4E3C181
:101610008091E2039091E303019731F081E090E043
:101620009093E3038093E2036091EF037091F003E2
:101630008091F1039091F2032730A1F52091790474
:1016400030917A0440917B0450917C04EDD2C0909B
:101650007504D0907604E0907704F0907804C61674
:10166000D706E806F90608F04FC093B580910F0140
:10167000981383BDE091EE03F0E0ED56FB4F20811F
:1016800030E0205D3F4FFE01319680E090E04081E8
:1016900050E04217530739F1019632968231910595
:1016A000B1F799C120ED37E040E050E0BDD2693E8E
:1016B00073408105910540F193B580910F01981316
:1016C00083BDE091EE03F0E0ED56FB4F208130E06A
:1016D000205D3F4FFE01319680E090E0408150E078
:1016E0004217530759F4FC01EE0FFF1F81E090E011
:1016F0008C0F9D1FE80FF91F01816DC10196329675
:101700008231910559F767C193B58091ED03981720
:1017100009F461C183BD5FC1013809F03EC0209169
:1017200097046091EF037091F0038091F103909121
:10173000F203211119C02091750430917604409173
:1017400077045091780470D2C0906D04D0906E04EC
:10175000E0906F04F09070046C157D058E059F0578
:1017600008F439C100E037C120917104309172044E
:10177000409173045091740457D2C0906504D09086
:101780006604E0906704F09068046C157D058E0592
:101790009F0508F020C109E81EC1053809F0DBC02B
:1017A0004091EF035091F0036091F1037091F203C7
:1017B0008091890490918A04A0918B04B0918C044B
:1017C00084179507A607B70708F0C5C08091EA03FC
:1017D000833549F080913C04813029F463E873E05B
:1017E00089E094E051D483E58093EA0380919604E4
:1017F0008130D1F54091E5035091E6034F5F5F4F93
:101800005093E6034093E50360E070E080917D042F
:1018100090917E04A0917F04B09180048417950775
:10182000A607B70708F0DBC00091E2031091E303BD
:10183000F801E752FC4F60E080810E94A6010F5F33
:101840001F4F1093E3030093E2038091910490E013
:101850000817190720F01092E3031092E203109288
:10186000E6031092E503BBC0823009F061C08091AD
:10187000E2039091E303892B31F481E090E09093AF
:10188000E3038093E2034091E5035091E6034F5F49
:101890005F4F5093E6034093E50360E070E0809172
:1018A000590490915A04A0915B04B0915C04841790
:1018B0009507A607B70720F58091E20380FF0CC0CB
:1018C00083B5823D18F483B58E5F15C083B58F3F15
:1018D00099F083B58F5F0FC08091E4038F5F809391
:1018E000E40393B580910E01891730F483B5833DED
:1018F00018F083B5815083BD1092E6031092E50382
:101900008091E2039091E30380FF05C023B52F3F50
:1019100009F065C005C02091E4032C3308F45FC0D2
:1019200001969093E3038093E2031092E40357C07F
:10193000833009F054C08091E2039091E303019752
:1019400009F44DC081E090E09093E3038093E203BB
:101950008FEF83BD44C080919504813099F505389F
:10196000D1F1003821F0013011F0043021F485E884
:101970008093EC0305E86091EF037091F003809190
:10198000F1039091F203C0907504D0907604E0903A
:101990007704F09078046C157D058E059F05D8F4CA
:1019A0002091610430916204409163045091640479
:1019B0003BD1C0905504D0905604E0905704F0906D
:1019C0005804F6CB003809F478CB013009F475CB14
:1019D000043009F472CB60E0802F0E94A60181E000
:1019E0000FC0133E59F410923F04E0919004F0E0D0
:1019F000EC50FC4F82E4808383EE93CD812F91CD18
:101A0000A4960FB6F894DEBF0FBECDBFDF91CF9185
:101A10001F910F91FF90EF90DF90CF90BF90AF900C
:101A20009F908F900895CF93DF93CDB7DEB728971F
:101A30000FB6F894DEBF0FBECDBF88E0E9E8F1E055
:101A4000DE01119601900D928A95E1F7FE01319623
:101A500080E090E0308120914404329632130BC034
:101A6000FC01EE0FFF1F81E090E08C0F9D1FE80F3F
:101A7000F91F818105C001968430910559F788E0EE
:101A800060E00E94A60180914404813039F5809184
:101A90003C04813029F46EE873E089E094E0F4D2EC
:101AA00080913D04813031F4E0914D04F0914E0479
:101AB0008FEF808313BCA89584B7877F84BF88E1AC
:101AC0000FB6F89481BD11BC0FBEF8948CE08093E2
:101AD0006A0082E088BF89BF789419C0809144046D
:101AE0008430A8F0109244048FEF83BDF89417BEA1
:101AF00013BE15BC789485B7837E806185BF85B79A
:101B0000806285BF889585B78F7D85BF05C0809130
:101B100044048F5F8093440428960FB6F894DEBF88
:101B20000FBECDBFDF91CF910895809144048823EB
:101B300041F080914504813031F41092450473DF07
:101B400002C080E0089581E00895809145048130CD
:101B500031F510924504A8958091F403823051F438
:101B60008091F3038F5F8093F3038F3118F010920D
:101B7000F30326C0E0914A04F0914B049081892F31
:101B800080958093E10320913D04213029F4E09178
:101B90004D04F0914E0490832ED98093E003809100
:101BA0004604909147046091920470E016D0892B0E
:101BB00011F081E008958091E003AFD98130C9F33D
:101BC0001092450484EF91E0909343048093420483
:101BD00081E08093440480E00895AA1BBB1B51E17F
:101BE00007C0AA1FBB1FA617B70710F0A61BB70B8D
:101BF000881F991F5A95A9F780959095BC01CD0132
:101C0000089597FB072E16F4009406D077FD08D0B0
:101C1000E4DF07FC05D03EF4909581959F4F089531
:101C2000709561957F4F0895A1E21A2EAA1BBB1BE8
:101C3000FD010DC0AA1FBB1FEE1FFF1FA217B30798
:101C4000E407F50720F0A21BB30BE40BF50B661FAE
:101C5000771F881F991F1A9469F760957095809572
:101C600090959B01AC01BD01CF01089509D0A59FBE
:101C7000900DB49F900DA49F800D911D1124089587
:101C8000A29FB001B39FC001A39F700D811D1124BD
:101C9000911DB29F700D811D1124911D0895505802
:101CA000BB27AA270ED048C139D130F03ED120F051
:101CB00031F49F3F11F41EF42EC10EF4E095E7FBC2
:101CC00024C1E92F4AD180F3BA176207730784074A
:101CD000950718F071F49EF562C10EF4E0950B2E95
:101CE000BA2FA02D0B01B90190010C01CA01A0016E
:101CF0001124FF27591B99F0593F50F4503E68F1C9
:101D00001A16F040A22F232F342F4427585FF3CF09
:101D1000469537952795A795F0405395C9F77EF4DA
:101D20001F16BA0B620B730B840BBAF09150A1F023
:101D3000FF0FBB1F661F771F881FC2F70EC0BA0FA9
:101D4000621F731F841F48F4879577956795B79531
:101D5000F7959E3F08F0B3CF9395880F08F0992729
:101D6000EE0F9795879508950CD0E6C0DED040F031
:101D7000D5D030F021F45F3F19F0C7C0511110C128
:101D8000CAC0EBD098F39923C9F35523B1F3951B3F
:101D9000550BBB27AA2762177307840738F09F5F8C
:101DA0005F4F220F331F441FAA1FA9F333D00E2EFB
:101DB0003AF0E0E830D091505040E695001CCAF768
:101DC00029D0FE2F27D0660F771F881FBB1F26172D
:101DD00037074807AB07B0E809F0BB0B802DBF0100
:101DE000FF2793585F4F2AF09E3F510568F08DC042
:101DF000D7C05F3FECF3983EDCF386957795679507
:101E0000B795F7959F5FC9F7880F911D96958795B0
:101E100097F90895E1E0660F771F881FBB1F6217CF
:101E200073078407BA0720F0621B730B840BBA0B8D
:101E3000EE1F88F7E095089598D088F09F5790F0AE
:101E4000B92F9927B751A0F0D1F0660F771F881FDF
:101E5000991F1AF0BA95C9F712C0B13081F09FD01E
:101E6000B1E008959CC0672F782F8827B85F39F0BC
:101E7000B93FCCF3869577956795B395D9F73EF43E
:101E800090958095709561957F4F8F4F9F4F0895E6
:101E9000E89409C097FB3EF4909580957095619504
:101EA0007F4F8F4F9F4F9923A9F0F92F96E9BB27BA
:101EB0009395F695879577956795B795F111F8CF36
:101EC000FAF4BB0F11F460FF1BC06F5F7F4F8F4FA1
:101ED0009F4F16C0882311F096E911C0772321F097
:101EE0009EE8872F762F05C0662371F096E8862F2F
:101EF00070E060E02AF09A95660F771F881FDAF786
:101F0000880F9695879597F9089597F99F6780E8C8
:101F100070E060E008959FEF80EC089500240A943B
:101F20001616170618060906089500240A941216B4
:101F30001306140605060895092E0394000C11F4E7
:101F4000882352F0BB0F40F4BF2B11F460FF04C094
:101F50006F5F7F4F8F4F9F4F089557FD9058440FED
:101F6000551F59F05F3F71F04795880F97FB991FF8
:101F700061F09F3F79F087950895121613061406B5
:101F8000551FF2CF4695F1DF08C016161706180642
:101F9000991FF1CF86957105610508940895E8941D
:101FA000BB2766277727CB0197F908950BD0C4CFBD
:101FB000B5DF28F0BADF18F0952309F0A6CFABCF34
:101FC0001124EECFCADFA0F3959FD1F3950F50E017
:101FD000551F629FF001729FBB27F00DB11D639FDB
:101FE000AA27F00DB11DAA1F649F6627B00DA11D81
:101FF000661F829F2227B00DA11D621F739FB00D27
:10200000A11D621F839FA00D611D221F749F332796
:10201000A00D611D231F849F600D211D822F762F2F
:102020006A2F11249F5750408AF0E1F088234AF02C
:10203000EE0FFF1FBB1F661F771F881F9150504078
:10204000A9F79E3F510570F060CFAACF5F3FECF338
:10205000983EDCF3869577956795B795F795E79564
:102060009F5FC1F7FE2B880F911D9695879597F975
:102070000895FB01DC010D900020E9F71197019014
:102080000D920020E1F70895FB01DC0101900D9213
:102090000020E1F708950F931F93CF93DF93E09112
:1020A000A104F091A204238121FF1BC0EC0100E0F8
:1020B00010E089916091A1047091A204DB0118964F
:1020C000ED91FC911997882331F00995892B89F3BB
:1020D0000FEF1FEFEECF8AE00995892B11F4C801AD
:1020E00002C08FEF9FEFDF91CF911F910F91089565
:1020F0000F931F93CF93DF93CDB7DEB72E970FB615
:10210000F894DEBF0FBECDBF0D891E8986E08C839B
:102110001A8309838FEF9FE79E838D83AE01475E0D
:102120005F4F6F89788DCE01019610D0EF81F885D1
:10213000E00FF11F10822E960FB6F894DEBF0FBE8F
:10214000CDBFDF91CF911F910F9108952F923F92B4
:102150004F925F926F927F928F929F92AF92BF92B7
:10216000CF92DF92EF92FF920F931F93CF93DF9363
:10217000CDB7DEB72C970FB6F894DEBF0FBECDBF3C
:102180007C016B018A01FC0117821682838181FF29
:10219000B0C1CE0101964C01F7019381F60193FD88
:1021A000859193FF81916F01882309F49EC1853247
:1021B00039F493FD859193FF81916F01853221F46C
:1021C000B70190E0E0D1E8CF512C312C20E0203253
:1021D000A0F48B3269F030F4803259F0833269F424
:1021E00020612CC08D3239F0803339F4216026C053
:1021F0002260246023C0286021C027FD27C030ED65
:10220000380F3A3078F426FF06C0FAE05F9E300DB2
:102210001124532E13C08AE0389E300D1124332E22
:1022200020620CC08E3221F426FD5FC1206406C0FE
:102230008C3611F4206802C0883641F4F60193FD13
:10224000859193FF81916F018111C1CF982F9F7D5F
:102250009554933028F40C5F1F4FFFE3F9830DC0B2
:10226000833631F0833771F0833509F057C021C0D0
:10227000F801808189830E5F1F4F44244394512CC1
:10228000540114C03801F2E06F0E711CF801A080F7
:10229000B18026FF03C0652D70E002C06FEF7FEFB5
:1022A000C5012C8765D12C0183012C852F77222E27
:1022B00016C03801F2E06F0E711CF801A080B180E9
:1022C00026FF03C0652D70E002C06FEF7FEFC501F0
:1022D0002C8743D12C012C852068222E830123FCDE
:1022E00019C0832D90E048165906A0F4B70180E28A
:1022F00090E049D13A94F5CFF50127FC859127FE6E
:1023000081915F01B70190E03ED131103A94F1E044
:102310004F1A51084114510479F7DEC0843611F088
:10232000893631F5F80127FF07C06081718182810C
:1023300093810C5F1F4F08C060817181882777FDF2
:102340008095982F0E5F1F4F2F76B22E97FF09C0F2
:1023500090958095709561957F4F8F4F9F4F206826
:10236000B22E2AE030E0A40140D1A82EA81843C024
:10237000853729F42F7EB22E2AE030E025C0F22FD7
:10238000F97FBF2E8F36C1F018F4883579F0ADC0D3
:10239000803719F0883721F0A8C02F2F2061B22E86
:1023A000B4FE0DC08B2D8460B82E09C024FF0AC076
:1023B0009F2F9660B92E06C028E030E005C020E1CE
:1023C00030E002C020E132E0F801B7FE07C06081D2
:1023D0007181828193810C5F1F4F06C06081718182
:1023E00080E090E00E5F1F4FA401FFD0A82EA81838
:1023F000FB2DFF77BF2EB6FE0BC02B2D2E7FA51415
:1024000050F4B4FE0AC0B2FC08C02B2D2E7E05C0CD
:102410007A2C2B2D03C07A2C01C0752C24FF0DC003
:10242000FE01EA0DF11D8081803311F4297E09C07F
:1024300022FF06C07394739404C0822F867809F03B
:10244000739423FD12C020FF06C05A2C731418F495
:10245000530C5718732C731460F4B70180E290E0AA
:102460002C8791D073942C85F6CF731410F4371801
:1024700001C0312C24FF11C0B70180E390E02C870C
:1024800082D02C8522FF16C021FF03C088E590E092
:1024900002C088E790E0B7010CC0822F867851F027
:1024A00021FD02C080E201C08BE227FD8DE2B70171
:1024B00090E069D0A51430F4B70180E390E063D0D8
:1024C0005A94F8CFAA94F401EA0DF11D8081B70166
:1024D00090E059D0A110F6CF332009F45DCEB701BA
:1024E00080E290E050D03A94F7CFF701868197814F
:1024F00002C08FEF9FEF2C960FB6F894DEBF0FBE91
:10250000CDBFDF91CF911F910F91FF90EF90DF90A2
:10251000CF90BF90AF909F908F907F906F905F9083
:102520004F903F902F900895E199FECF9FBB8EBBB7
:10253000E09A99278DB30895262FE199FECF9FBB8E
:102540008EBBE09A01970DB2021631F02DBB0FB68B
:10255000F894E29AE19A0FBE0895FC01059061504B
:1025600070400110D8F7809590958E0F9F1F0895A9
:10257000FC016150704001900110D8F78095909552
:102580008E0F9F1F08950F931F93CF93DF93182FE4
:10259000092FEB018B8181FD03C08FEF9FEF20C0DE
:1025A00082FF10C04E815F812C813D81421753070D
:1025B0007CF4E881F9819F012F5F3F4F39832883A5
:1025C000108306C0E885F985812F0995892B29F7A5
:1025D0002E813F812F5F3F4F3F832E83812F902F8E
:1025E000DF91CF911F910F910895FA01AA2728300A
:1025F00051F1203181F1E8946F936E7F6E5F7F4FD0
:102600008F4F9F4FAF4FB1E03ED0B4E03CD0670F4B
:10261000781F891F9A1FA11D680F791F8A1F911D9E
:10262000A11D6A0F711D811D911DA11D20D009F4EE
:1026300068943F912AE0269F11243019305D319330
:10264000DEF6CF010895462F4770405D4193B3E019
:102650000FD0C9F7F6CF462F4F70405D4A3318F0C0
:10266000495D31FD4052419302D0A9F7EACFB4E071
:10267000A6959795879577956795BA95C9F7009729
:102680006105710508959B01AC010A2E06945795CA
:10269000479537952795BA95C9F7620F731F841F21
:0A26A000951FA01D0895F894FFCFC8
:1026AA00000000020000000065000000000055CC98
:1026BA000102010200640A05224E14314432123327
:1026CA004234113541361842244C284C2152FD021D
:1026DA0006030D0316031D0325032C030028507857
:1026EA00A0C8DCF0FAFCFE3F804E85311432B333C9
:1026FA00B634D435E636E7428145E355574C0152A4
:10270A00042B202D02016302E103E6048105D506AC
:10271A004307C308F13077311432B333B634D435B2
:10272A00E636E7373438F739F601C702D603E30449
:10273A0000353135310053746172742063726D6EE5
:10274A00792829005B455D205345475F434F4D5F1C
:10275A00414E4F4445206973206F7574206F66207F
:10276A0072616E6765005B455D205345475F55534F
:10277A00455F5452206973206F7574206F6620720A
:10278A00616E6765005B455D2053454E534F525F4E
:10279A004D41502053697A65206973206F75742002
:1027AA006F662072616E6765005B455D2053454E1A
:1027BA00534F525F5550206973206F7574206F66AE
:1027CA002072616E6765005B455D2053454E534F2D
:1027DA00525F4457206973206F7574206F662072A8
:1027EA00616E6765005B455D204D6178206C656EA2
:1027FA00677468206F6620505245465F4D4F544EAD
:10280A00206973202564002573206973206F75740D
:10281A00206F662072616E6765005B455D20554ECC
:10282A00555345445F535459206973206F7574207A
:10283A006F662072616E6765005B455D2055534582
:10284A005F4C4544206973206F7574206F6620724F
:10285A00616E6765005B455D20554152545F4C4F80
:10286A0047206973206F7574206F662072616E67E6
:10287A006500696E697444657628290A205665726E
:10288A00322E310A2053746570733D25640A205430
:10289A00696D6572303D25640A204F4B004D795FA2
:1028AA0043726D6E79004D795F654678004D795FA8
:1028BA00536C656570004D795F527673004D795F90
:1028CA0048696768004D795F4C6F77004D795F54AE
:1028DA00656D706F005361766520454550524F4DC6
:1028EA00203A2025733D25640057616B6520557099
:1028FA0000496E746F20557365722053657474694C
:10290A006E67204D6F6465000A476561723D004538
:10291A0000520032003300340035003600370038E8
:10292A00003900536C656570204D6F6465005374FF
:10293A006172742053687574646F776E00140000B6
:10294A0000320000006400000096000000C8000089
:10295A00002C01000090010000F401000058020060
:10296A0000E8030000D0070000C4090000B80B000B
:10297A000088130000204E000040201004020100CD
:00000001FF
