S01100004765617247617567652E73726563AB
S1130000C6C00000E2C00000E0C00000DEC0000086
S1130010DCC00000DAC00000D8C00000D6C0000078
S1130020D4C00000D2C00000D0C00000CEC0000088
S1130030CCC00000CAC00000C8C00000C6C0000098
S113004063C10000C2C00000C0C00000BEC0000008
S1130050BCC00000BAC00000B8C00000B6C00000B8
S1130060B4C00000B2C00000B0C00000AEC00000C8
S1130070ACC00000AAC00000A8C00000A6C00000D8
S1130080A4C00000A2C00000A0C000006E616E0009
S1130090696E660000407A10F35A00A0724E180987
S11300A00010A5D4E80000E87648170000E40B54DB
S11300B0020000CA9A3B000000E1F50500008096AA
S11300C09800000040420F000000A08601000000DC
S11300D0102700000000E803000000006400000096
S11300E000000A00000000000100000000002C765F
S11300F0D888DC674F0823DFC1DFAE59E1B1B7967A
S1130100E5E3E453C63AE651997696E8E6C28426D6
S1130110EB898C9B62ED407C6FFCEFBC9C9F40F2B2
S1130120BAA56FA5F490055A2AF75C936B6CF9672E
S11301306DC11BFCE0E40D47FEF520E6B500D0EDF3
S1130140902E0300943577050080841E080000205B
S11301504E0A000000C80C333333330F986E1283F9
S11301601141EF8D2114893BE65516CFFEE6DB18CD
S1130170D1844B381BF77C1D901DA4BBE424203292
S113018084725E228100C9F124ECA1E53D2711248B
S11301901FBECFEFD0E1DEBFCDBF13E0A0E0B1E0E2
S11301A0EAE7FAE200E00BBF02C007900D92A63B1B
S11301B0B107D9F724E0A6EBB3E001C01D92AB3040
S11301C0B207E1F703D00C943B151ACF8F92AF928C
S11301D0CF92DF92EF92FF920F931F93CF93DF930F
S11301E0CDB7DEB76E970FB6F894DEBF0FBECDBFA6
S11301F08FEF81BB12BA82B913B880936400109256
S1130200650086E0E9E1F1E0DE01599601900D9286
S11302108A95E1F788E1EFE1F1E0DE0111960190C2
S11302200D928A95E1F781E08F938FE38F9380E8B5
S11302308F931F921F9287E08F931F9288E38F936F
S11302401F9287E38F931F9282E68F931F9281E61A
S11302508F931F9285E38F931F9284E38F931F9252
S113026089E38F931F928BE38F931F928AE38F937B
S113027084E0882E93E0A92ECE0101966C01489665
S11302807C010AE411E021E041E060E074E284EFE3
S113029090E06BD10FB6F894DEBF0FBECDBFA0D4F3
S11302A08111FDCF0E940D0C8111FCCF0E94420CE4
S11302B08111FCCF80E090E06E960FB6F894DEBF1B
S11302C00FBECDBFDF91CF911F910F91FF90EF90A3
S11302D0DF90CF90AF908F900895CF93C82F8A303E
S11302E011F48DE0FADF5D9BFECFCCB980E090E0A5
S11302F0CF9108951092900088E089B988E18AB975
S113030086E08093950008951F920F920FB60F9286
S113031011242F933F938F939F938091F80382BF6F
S11303208091D1039091D20301969093D20380934C
S1130330D1032091D1033091D2038091CD039091C8
S1130340CE032817390738F01092D2031092D10344
S113035081E08093D0039F918F913F912F910F90D3
S11303600FBE0F901F901895FC01408121E030E0F2
S1130370062E01C0220F0A94EAF720952423208335
S113038008959091CA03913009F48095611105C0D4
S1130390E091F303F091F403808308958091C703FF
S11303A0813021F48FE491E00E949714F89485E061
S11303B083BF87B7816087BF87B78D7F87BF8091F1
S11303C0F80382BF789408958091C703813021F4A3
S11303D082E691E00E9497148091000420E1829FBC
S11303E0C00111248D6485BD87B78F7387BF14BC8A
S11303F08091CC0383BD0895F89417BE13BE15BC39
S113040085B7806285BF85B78B7F85BF85B78061DF
S113041085BF85B7877F85BF88950895CF93DF9380
S1130420CDB7DEB728970FB6F894DEBF0FBECDBFA9
S11304308091C703813021F485E791E00E949714ED
S113044088E0E7E3F1E0DE01119601900D928A95D0
S1130450E1F7FE01319680E090E030812091CF03F6
S1130460329632130BC0FC01EE0FFF1F81E090E0C7
S11304708C0F9D1FE80FF91F818105C00196843000
S1130480910559F788E060E07CDF8091CF038130EB
S113049041F4E091F903F091FA038FEF808313BCE8
S11304A01DC08091CF038430C8F01092CF038FEF2A
S11304B083BD8091F5039091F6030E94D11280913F
S11304C0FD039091FE030E94D11228960FB6F89472
S11304D0DEBF0FBECDBFDF91CF918ECF8091CF0312
S11304E08F5F8093CF0328960FB6F894DEBF0FBEBC
S11304F0CDBFDF91CF9108950F931F93CF93DF93D7
S11305008091C703813021F484E891E00E9497141C
S113051080E090E00E942215813079F403ED13E02D
S1130520C0E0D0E02196CE010E942215F80181930B
S11305308F01C630D105B1F713C061E080E090E0CF
S11305400E942A1503ED13E0C0E0D0E0F8016191A8
S11305508F012196CE010E942A15C630D105B1F72C
S1130560DF91CF911F910F9108952F923F924F9257
S11305705F926F927F928F929F92AF92BF92CF922F
S1130580DF92EF92FF920F931F93CF93DF93CDB738
S1130590DEB766970FB6F894DEBF0FBECDBF2B0152
S11305A03C014983922E1701D886CF82A9868BA558
S11305B09CA59B878A87ADA5BEA5BD87AC87EFA503
S11305C0F8A9FF87EE8789A99AA9998B888BABA98B
S11305D0BCA9BB83AA83EDA9FEA9FB8BEA8B8FA9D7
S11305E098AD9D8B8C8BA9ADBAADBD83AC83ABAC00
S11305F0BCACBDADBE832296CCACDDACEEACFFACE6
S1130600229723962FAD2397213009F52E8B72DE86
S113061086E091E090930804809307048AE090E0D8
S11306200E94921482E991E09F938F9386E991E06E
S11306309F938F930E94801488EB91E00E949714FB
S11306402E892093C7030F900F900F900F902AE0EC
S113065037ED43E25CE3C701B6010E94881087FDD1
S113066010C020E030E040E050E4C701B6010E9431
S1130670D211181674F4C12CD12CE12C90E4F92E6B
S113068008C02AE0C22E27EDD22E23E2E22E2CE36C
S1130690F22EC0921401D0921501E0921601F0924C
S11306A01701C301B20120E034E244EF50E00E949C
S11306B00110CA01B9010E94201120E030E040EC91
S11306C05FE30E9424100E94F4106093FF03C301AF
S11306D0B2010E9420112FE632E143E85AE30E945E
S11306E0D61120E030E040E05CE30E94D6119B018B
S11306F0AC0160E070E080E893E40E9423100E9463
S1130700F4106093F803E981E13011F4E093CA0333
S1130710D8010D900020E9F7CD010197801B910BC2
S11307208093CB0399270E9439129093FE03809300
S1130730FD03F80120E030E08091CB0390E028171E
S113074039075CF48191A091FD03B091FE03A20FDF
S1130750B31F8C932F5F3F4FEFCF0E9439129093BA
S1130760F6038093F503F10180818093D3038181A3
S11307708093D40382818093D50383818093D603AD
S1130780848124E630E0B901681B71094FEF469F6C
S1130790C001479F900D1124B9010E94EE0F609390
S11307A0D7038581B901681B7109469FC001479F22
S11307B0900D1124B9010E94EE0F6093D80381E0DB
S11307C08093D90399DE8091D7038093CC0380E092
S11307D090E0AF81B885A80FB91F2C91FC01E552B8
S11307E0FC4F208311962C91218302968831910528
S11307F081F78985805D8093DA0380E3880D809397
S1130800F7038E859F859093FC038093FB03AA8155
S1130810BB81B093FA03A093F903EC89FD89F093AB
S1130820F403E093F303AA85BB851C92FF24FA9496
S1130830EC85FD85F082A889B989FC92EA81FB8167
S1130840F082AA89BB89FC9260E080E09ADDEC81A9
S1130850FD81F082D5011C9281E090E00E8002C0FF
S1130860880F991F0A94E2F78083B981B13041F46B
S1130870911006C0F5019081982B908383E004C009
S11308806E81C50171DD82E08093000480B58B7FA9
S113089080BD8091C703813009F076C08091170133
S11308A08F93809116018F93809115018F9380917E
S11308B014018F938CEC91E09F938F930E9480148A
S11308C08091FF031F928F9381EE91E09F938F930A
S11308D00E9480148091F8031F928F9384EF91E01B
S11308E09F938F930E9480140FB6F894DEBF0FBEBF
S11308F0CDBF8091CA03811102C08EE401C089E595
S11309001F928F9387E092E09F938F930E948014AD
S11309100F900F900F900F90911002C08EE401C0C1
S113092089E51F928F9387E292E09F938F930E94B1
S113093080141F930F938DE492E09F938F930E94F2
S113094080148091D8031F928F938091D7031F92B4
S11309508F938091D6031F928F938091D5031F921A
S11309608F938091D4031F928F938091D3031F920E
S11309708F938BE692E09F938F930E9480140FB61F
S1130980F894DEBF0FBECDBF8091D3038823C9F096
S113099066960FB6F894DEBF0FBECDBFDF91CF9140
S11309A01F910F91FF90EF90DF90CF90BF90AF9089
S11309B09F908F907F906F905F904F903F902F907B
S11309C0EDCC1092180184E690E09093CE038093CE
S11309D0CD03E4DC66960FB6F894DEBF0FBECDBF40
S11309E0DF91CF911F910F91FF90EF90DF90CF9007
S11309F0BF90AF909F908F907F906F905F904F903B
S1130A003F902F90E1CCDF92EF92FF920F931F93D0
S1130A10CF93DF93CDB7DEB72C970FB6F894DEBF34
S1130A200FBECDBF7C018C010150110907301105A7
S1130A3008F0C0C0603219F0623009F0BBC0809188
S1130A40C703813051F489EE92E09F938F936C87B2
S1130A500E9480140F900F906C85A8014D525C4F3A
S1130A60FA01D080603211F471E003C0DD2019F086
S1130A707FEF7D0D01C070E0C7010597029708F074
S1130A805DC08BE0EFE3F1E0DE01119601900D9281
S1130A908A95E1F7FE01319620E030E08191D81685
S1130AA0C9F0D81688F4ED2DF0E0DE01A20FB31FD3
S1130AB09C91DF01A91BB10990E08E1B9F0BA81725
S1130AC0B90744F4215006C02F5F3F4F2A30310547
S1130AD029F72AE004301105A1F4603241F42223FD
S1130AE009F46CC0FE01E20FF11D708124C02A30AC
S1130AF009F466C0FE01E20FF11D7281713FD8F066
S1130B005FC005301105B9F4603249F4222381F045
S1130B10FE01E20FF11D7081783268F409C02A30B9
S1130B2049F0FE01E20FF11D72817F3F21F402C002
S1130B3078E201C07EEF7093CC0373BD02301105DF
S1130B4099F038F40115110559F00130110541F0FF
S1130B5011C00330110561F00630110549F00AC0D7
S1130B60733040F072E006C0743020F073E002C0CD
S1130B70711171E0FA0170830630110531F0672FAD
S1130B80C7017C870E942A157C858091C703813028
S1130B9099F41F927F93FF92EF9288EF92E09F93D4
S1130BA08F930E9480140F900F900F900F900F90CE
S1130BB00F9002C080E006C081E004C070E0BBCFAB
S1130BC070EFB9CF2C960FB6F894DEBF0FBECDBF31
S1130BD0DF91CF911F910F91FF90EF90DF900895D7
S1130BE0CF93DF9380911801882309F4ABC09091CF
S1130BF0D003913009F0A8C01092D0039091D30390
S1130C009130B1F4813009F067C082E0809318011B
S1130C1088EE93E09093CE038093CD0360E08FEF52
S1130C20B0DBE091F903F091FA031082C1E073C0E4
S1130C30923009F06FC02091CD033091CE03813002
S1130C40C1F5E091F303F091F403D081E091F9034D
S1130C50F091FA032436310559F084E690E090933C
S1130C60CE038093CD038EEF8083D1E0C1E00FC02B
S1130C708091CA03813021F48D2F8095D82F01C033
S1130C808D2FDD0FD82B8081880F8083C0E060E03A
S1130C908D2F77DBDF3F09F03EC088EE93E0909321
S1130CA0CE038093CD03809118018F5F8093180148
S1130CB032C02832310561F088E290E09093CE038F
S1130CC08093CD03E091F903F091FA038FEF8083D1
S1130CD0809118018E3068F01092180184E690E03B
S1130CE09093CE038093CD036FDB60E080E049DB1B
S1130CF011C090E0019766E070E00E94DA0F805521
S1130D009C4F60E0FC0180813CDB809118018F5F87
S1130D1080931801C0E08091C703813081F4C13011
S1130D2071F48091D3031F928F9383E093E09F9398
S1130D308F930E9480140F900F900F900F908091CA
S1130D40180103C080E001C081E0DF91CF910895D4
S1130D50982F823471F41092C9038091CB03E091EF
S1130D60F503F091F603E80FF11D3197908382E4C7
S1130D7008958091C9038823A9F0813009F45AC0E9
S1130D808091DA03981709F457C08091F7039817F4
S1130D9009F454C09C3409F453C0923509F052C08C
S1130DA082E508959C3409F44DC0923509F44AC093
S1130DB09F3309F447C02091F5033091F603409125
S1130DC0CB0350E0F901E40FF51F319780818917B7
S1130DD0D9F19E3431F4A091FD03B091FE03F901E1
S1130DE01AC021E030E04091CB0350E0E091F503DC
S1130DF0F091F6032417350744F4E20FF31F8081C2
S1130E00319780832F5F3F4FEECFE40FF51F31976B
S1130E109083892F0895CF01821B930B8417950724
S1130E2034F491918D919817B1F38EE40DC081E063
S1130E308093C90385E508958BE208958DE20895B2
S1130E408CE408958FE308950895FF920F931F9300
S1130E50CF93DF93982F991F9927991F9093C803D5
S1130E60982F9F77F92E09F44AC083FB222720F993
S1130E7030E082FB002700F910E0200F311F81FBD6
S1130E80992790F9C92F90E0D92F2C0F3D1FA82F37
S1130E90A170B0E02A0F3B1F2130310591F586FB8C
S1130EA0442740F950E085FBEE27E0F9F0E04E0FCF
S1130EB05F1F84FB662760F970E0460F571F4130BF
S1130EC05105F9F4ECEDF3E080E090E0DF011197D7
S1130ED02C912F1109C0FC01EE0FFF1FE552FC4FAE
S1130EE08181853479F009C02081203329F001966D
S1130EF032968C30910551F78FE32ADF03C085E4E5
S1130F0001C08FE342E953E020E030E04E5F5F4FE1
S1130F10FA0132979081981307C0F901EE0FFF1F71
S1130F20EE56FC4F818106C02F5F3F4F2F303105B5
S1130F3069F783EEDF91CF911F910F91FF90089590
S1130F40CF92DF92EF92FF920F931F93CF93DF9391
S1130F50C82FC090C303D090C403E090C503F090A1
S1130F60C6032FEFC21AD20AE20AF20AC092C303DE
S1130F70D092C403E092C503F092C60320911401F9
S1130F8030911501409116015091170160E070E411
S1130F908CE196E40E948C100E94F4109B0140E0C6
S1130FA050E0C701B6010E940110672B682B692B22
S1130FB031F4809165008095817080936500809103
S1130FC0C903823029F48091C2038550823080F0B5
S1130FD08091C8039091CC03813019F48091D80397
S1130FE002C08091D703981719F08093CC0383BD76
S1130FF09091C9038091C0039111ABC0D091D403E7
S1131000DD2309F4ACC19091C103992309F4A7C16C
S113101020E8290F223008F4A2C1933E09F49FC1AD
S11310209C1709F49CC1C03819F0C53809F097C160
S113103081110EC081E08093C0031092C30310920B
S1131040C4031092C5031092C6038091CC0383BDE0
S11310501091C103153899F48091C703813059F474
S11310608091BF03833539F489E293E00E94971499
S11310708EE48093BF0360E08091C103ADC3D1309F
S113108009F040C060E0812F7CD92091CC036091AD
S1131090C3037091C4038091C5039091C603293C96
S11310A028F422E330E040E050E004C026E930E0D8
S11310B040E050E0A6D7672B682B692B31F483B549
S11310C08E3F18F483B58E5F83BD83B58E3F08F4DD
S11310D085C34091C3035091C4036091C5037091CB
S11310E0C603493853416105710508F477C38091FB
S11310F0CC0383BD60E08C2F44D9C093C10310920C
S1131100C00381C3D23009F069C36091C3037091F5
S1131110C4038091C5039091C60368392AE372071A
S11311208105910580F428E532E040E050E069D77C
S11311306D3271408105910518F060E080E04CC388
S113114060E0812F49C360E08C2F1BD9C093C10399
S1131150FFC0913009F04BC0882321F08091C10376
S1131160873501F182E58093BF038091C703813005
S113117021F481E393E00E94971481E08093C003FB
S11311801092C3031092C4031092C5031092C603B5
S11311908093C20383E68093BE03C093C10380910E
S11311A0CC0383BD6091C3037091C4038091C503D4
S11311B09091C603603A2FE072078105910570F49F
S11311C024EF31E040E050E01CD767397105810518
S11311D0910508F4B2CF60E087E5FEC260E08C2F91
S11311E0D0D81092C00382E08093C903F7C2923032
S11311F009F0B5C0813011F4D0E06EC09091C10304
S1131200903229F0923019F0933E09F0A8C0811170
S1131210F3CF81E08093C0031092C3031092C40300
S11312201092C5031092C603C093C1039091BD03ED
S11312309111E2CF8093BD038091C2036C2F90E0A3
S1131240E2DB813009F043C02091C2032730A9F4C6
S11312508091C103823011F0803279F41092C0037E
S11312601092C3031092C4031092C5031092C603D4
S113127060E080E086D8D0E0C6C28BEF820F30E019
S1131280823040F0EAE7F3E080E090E0D901AE522A
S1131290BC4F06C0F901EE0FFF1FE858FC4F0FC00A
S11312A0408150E032962C9130E0205D3F4F421750
S11312B0530739F4FC01EE0FFF1FE658FC4FD181B0
S11312C00BC001968C30910559F7D3EE05C083EE1F
S11312D08093C103D3EEC3EE8091BD03813069F0E6
S11312E04091C3035091C4036091C5037091C60338
S11312F0403A5F406105710570F5E091C2038BEFE0
S11313008E0F8230D0F06091C3037091C40380913A
S1131310C5039091C603603A2FE0720781059105D9
S1131320A0F420ED37E040E050E06BD6693E734016
S11313308105910508F401CF46C1F0E0EE0FFF1FCF
S1131340E858FC4F60E0818102C060E08C2F19D81E
S11313501092C00343C260E08091BE03F8CF813095
S113136051F41092C0031092C3031092C40310925C
S1131370C5031092C6038091C1038C1709F4CEC033
S11313808091C703813041F48091BF03833521F4F8
S113139089E293E00E9497148EE48093BF03C09384
S11313A0C1031092BC031092BB031092BA031092B3
S11313B0B9031092B8031092BD038091CC0383BD8E
S11313C08091C90381110CC2C03809F01AC285E8A2
S11313D09091C903923009F045C0C13419F0C43169
S11313E0E1F509C08091C20381508093C203811149
S11313F00CC081E008C08091C2038F5F8093C20358
S1131400883018F087E08093C203E091C2032AE792
S113141033E080E090E02E5F3F4FD90112974C916A
S11314204E130AC0DC01AA0FBB1FA658BC4F11966D
S11314308C918093BE0304C001968C30910559F7BA
S11314408091BE039BEF9E0F923060F4F0E0EE5269
S1131450FC4F90819093CC0305C0C33E09F0BEC1FC
S113146060E0BAC11092C3031092C4031092C50382
S11314701092C60360E00E94C1018091C7038130CD
S113148009F0ACC18091C9038111A8C1C53809F420
S1131490A5C1C03809F4A2C183E493E09F938F935C
S11314A00E9480140F900F90C33E19F487E593E0D7
S11314B032C0C13819F489E593E02DC0C43119F460
S11314C08DE491E028C0C33B19F483E791E023C085
S11314D0C63B19F481E693E01EC0C43D19F483E6CB
S11314E093E019C0C63E19F485E693E014C0C73EE4
S11314F019F487E693E00FC0C43319F489E693E046
S11315000AC0C73F19F48BE693E005C0C63F09F053
S113151065C18DE693E00E94971460C18091B80381
S11315209091B903892B29F493B58091CC03981336
S113153083BD8091C903C091C1038230F1F4C038E6
S113154021F0C13411F0C43111F4C091BE03609193
S1131550C3037091C4038091C5039091C60328EB23
S11315603BE040E050E04DD5643F7140810591057A
S113157008F4C86060E08C2F2FC1DC2FC13831F52E
S11315802091D6036091C3037091C4038091C50375
S11315909091C60321110CC028E833E140E050E0EB
S11315A030D5643C79408105910568F0D0E00BC0EA
S11315B028EB3BE040E050E024D56C3D75408105CC
S11315C0910508F4D9E860E08D2F06C1C53809F00B
S11315D0BFC04091C3035091C4036091C50370918F
S11315E0C603413858436140710508F4B1C0809185
S11315F0BF03833541F08091C703813021F48FE626
S113160093E00E94971483E58093BF03D091D503A0
S1131610D13059F58091BB039091BC03019690930E
S1131620BC038093BB038131974208F4D7C0009177
S1131630B8031091B903F801E055FC4F60E08081D4
S11316400E94C1010F5F1F4F0630110528F410934B
S1131650B9030093B80304C01092B9031092B803FD
S11316601092BC031092BB03CEC0D23009F05DC00F
S11316708091B8039091B903892B31F481E090E013
S11316809093B9038093B8038091BB039091BC03FA
S113169001969093BC038093BB038134914068F11D
S11316A08091B80380FF06C083B58F3F11F183B5E5
S11316B08F5F1EC08091BA038F5F8093BA0383B596
S11316C08823B9F0E3B52091CC0330E0F0E08FEF4C
S11316D090E0821B930B63E070E080D4620F731F71
S11316E06E177F0734F483B5833D18F083B58150BA
S11316F083BD1092BC031092BB038091B8039091F8
S1131700B90380FF05C023B52F3F09F067C005C0AA
S11317102091BA032C3308F461C001969093B90365
S11317208093B8031092BA0359C0D33009F056C05D
S11317308091B8039091B903019709F44FC081E0F7
S113174090E09093B9038093B8038FEF83BD46C0B4
S1131750D091D403D130D1F5C53809F43FC060919C
S1131760C3037091C4038091C5039091C603643F81
S113177021E072078105910508F4DFCC6C3D25E07A
S113178072078105910560F42AEF30E040E050E0F3
S113179038D4693C71058105910508F0CECC11C09F
S11317A0683B2BE072078105910558F424EF31E082
S11317B040E050E026D46D3271408105910508F077
S11317C0BCCC60E08C2F0E94C1011DC0D11106C0A9
S11317D0C03821F460E085E80E94C101D1E013C063
S11317E0C33E79F41092C9038091CB03E091F503D1
S11317F0F091F603E80FF11D319782E4808383EEC4
S1131800E7CD8C2FE5CD8D2FDF91CF911F910F91D7
S1131810FF90EF90DF90CF9008958091D0038130B6
S113182099F41092D003E091FB03F091FC039081B2
S1131830892F80958093B703E091F903F091FA031F
S1131840908303DB8093B6038091D1039091D203FC
S11318506091FF0370E0AED3892B11F081E008950D
S11318608091B6036DDB8130C9F31092D00384EF0D
S113187091E09093CE038093CD0381E08093CF03D6
S113188080E008958091CF03882349F08091D003AC
S1131890813039F41092D0030E940E0202C080E01D
S11318A0089581E008952F923F924F925F926F9234
S11318B07F928F929F92AF92BF92CF92DF92EF92DC
S11318C0FF920F931F93CF93DF93CDB7DEB7639748
S11318D00FB6F894DEBF0FBECDBF7C011B016A01B9
S11318E0FC0117821682838181FF49C3BE016F5FA9
S11318F07F4F4B01F7019381F10193FD859193FF94
S113190081911F01882309F436C3853239F493FD8C
S1131910859193FF81911F01853231F4B70190E0E5
S1131920BDD756016501E6CF10E0512C20E02032EE
S1131930A0F48B3269F030F4803259F0833269F4C8
S113194020612CC08D3239F0803339F4216026C0F7
S11319502260246023C0286021C027FD27C030ED09
S1131960380F3A3078F426FF06C0FAE01F9F300D96
S11319701124132F13C06AE0569E300D1124532EE8
S113198020620CC08E3221F426FDF5C2206406C00C
S11319908C3611F4206802C0883641F4F10193FDBD
S11319A0859193FF81911F018111C1CF9BEB980F0A
S11319B0933018F42061805E06C09BE9980F933041
S11319C008F09AC12F7E26FF16E02F73722E8536FB
S11319D021F4F22FF0647F2E08C0863621F4622FA2
S11319E06068762E02C01111115077FE07C01C33B7
S11319F048F444244394410E27E00BC0183030F4DB
S1131A00212F06C027E04CE3442E03C027E017E053
S1131A10412C560174E0A70EB11CF601608171815E
S1131A2082819381042DA4014BD66C01098100FFAE
S1131A3002C003FF06C071FC07C072FC08C0612C21
S1131A4008C03DE2632E05C02BE2622E02C090E284
S1131A50692E802F8C7081F1662011F084E001C022
S1131A6083E0851510F0512C0AC0581A73FC07C086
S1131A70B70180E290E012D75A94D1F7F4CF6620F0
S1131A8021F0B701862D90E009D703FD03C000E9DA
S1131A9010E002C00CE810E0F72DF0717F2EF80181
S1131AA08491882309F45EC271108052B70190E0DA
S1131AB0F5D60F5F1F4FF3CF77FE0FC04C0C04FF1A
S1131AC004C08A81813309F44A94141474F5F8E04B
S1131AD0F41578F588E0482E2CC076FC2AC0812FB6
S1131AE090E08C159D059CF06CEFC6166FEFD60642
S1131AF074F0772D7068772E0AC0E2E0F0E0EC0F06
S1131B00FD1FE10FF11D8081803319F41150111173
S1131B10F4CF77FE0EC044244394410E812F90E00D
S1131B20C816D9062CF41C1904C04424439401C0DB
S1131B3010E077FE07C01C141D043CF496012F5FCF
S1131B403F4F05C025E030E002C021E030E06620D0
S1131B5011F02F5F3F4F112331F0412F50E04F5FC1
S1131B605F4F240F351F452D50E02417350714F41B
S1131B70521A01C0512C872D897041F4552031F03F
S1131B80B70180E290E08AD65A94F8CF662021F01B
S1131B90B701862D90E082D673FC08C0552031F041
S1131BA0B70180E390E07AD65A94F8CF77FE5DC00F
S1131BB09C2D8D2DD7FE02C090E080E0692E782EFA
S1131BC040E050E0C601841991099D878C879601F5
S1131BD026193709280D391D812F90E0EE27FF279C
S1131BE0E81BF90BFF87EE87FFEF6F167F0661F4A2
S1131BF0B7018EE290E02B8B3A8B488B598B4ED6F3
S1131C00598948893A892B89C614D70454F06C85BC
S1131C107D85661577052CF4F901E40FF51F8181A4
S1131C2001C080E371E0671A71084F5F5F4FEE8572
S1131C30FF856E167F0664F0B70190E02B8B3A8B1C
S1131C40488B598B2BD62B893A8948895989CCCF13
S1131C506C147D0439F49A81963318F4953311F495
S1131C6004FF81E3B70190E045C08A81813309F024
S1131C700F7EB70190E012D6111105C074FE16C094
S1131C8085E490E015C0B7018EE290E007D682E0CB
S1131C9066246394680EF401E80FF11D8081B70196
S1131CA090E0FCD5115051F3862DF2CF85E690E0FB
S1131CB0B701F4D5D7FC05C0C114D10439F404FF2D
S1131CC005C0D194C194D1088DE201C08BE2B70163
S1131CD090E0E4D580E36AE0C616D1042CF08F5F6F
S1131CE0FAE0CF1AD108F7CFB70190E0D7D5B70102
S1131CF0C601C096D3D536C1833631F0833779F027
S1131D00833509F054C020C0560172E0A70EB11CFF
S1131D10F6018081898301E010E0640113C056015B
S1131D20F2E0AF0EB11CF601C080D18026FF03C0E3
S1131D30612F70E002C06FEF7FEFC6012B8BA3D53C
S1131D408C012B892F7714C05601F2E0AF0EB11C21
S1131D50F601C080D18026FF03C0612F70E002C06D
S1131D606FEF7FEFC6012B8B83D58C012B89206805
S1131D70722E23FD18C0852D90E00817190798F4DA
S1131D80B70180E290E08AD55A94F5CFF60177FC4A
S1131D90859177FE81916F01B70190E07FD5511055
S1131DA05A94015011090115110581F7DBC08436DD
S1131DB011F0893649F5560127FF09C0F4E0AF0E4A
S1131DC0B11CF60160817181828193810AC0F2E0C5
S1131DD0AF0EB11CF60160817181882777FD809573
S1131DE0982F022F0F7697FF08C0909580957095D5
S1131DF061957F4F8F4F9F4F00682AE030E0A40128
S1131E00C3D5C82EC8183DC0022F853721F40F7ED4
S1131E102AE030E01DC0097F8F3691F018F4883530
S1131E2059F0A9C0803719F0883711F0A4C00061B7
S1131E3004FF09C0046007C024FF08C0066006C090
S1131E4028E030E005C020E130E002C020E132E0CB
S1131E50560107FF09C0F4E0AF0EB11CF601608122
S1131E6071818281938108C0F2E0AF0EB11CF6014A
S1131E706081718180E090E0A40186D5C82EC818E5
S1131E800F7706FF0BC0202F2E7FC11650F404FFDE
S1131E900AC002FD08C0202F2E7E05C0DC2C202F96
S1131EA003C0DC2C01C0D12E24FF0DC0FE01EC0DBB
S1131EB0F11D8081803311F4297E09C022FF06C000
S1131EC0D394D39404C0822F867809F0D39423FD4D
S1131ED012C020FF06C01C2DD51418F4150D1D19B1
S1131EE0D52CD51460F4B70180E290E02B8BD6D4C6
S1131EF0D3942B89F6CFD51410F45D1801C0512C5E
S1131F0024FF11C0B70180E390E02B8BC7D42B8949
S1131F1022FF16C021FF03C088E590E002C088E7D5
S1131F2090E0B7010CC0822F867851F021FD02C0E9
S1131F3080E201C08BE227FD8DE2B70190E0AED4D0
S1131F40C11630F4B70180E390E0A8D41150F8CF63
S1131F50CA94F401EC0DF11D8081B70190E09ED488
S1131F60C110F6CF552009F4DDCCB70180E290E032
S1131F7095D45A94F7CFF7018681978102C08FEFE9
S1131F809FEF63960FB6F894DEBF0FBECDBFDF910F
S1131F90CF911F910F91FF90EF90DF90CF90BF9062
S1131FA0AF909F908F907F906F905F904F903F90F5
S1131FB02F900895AA1BBB1B51E107C0AA1FBB1F8A
S1131FC0A617B70710F0A61BB70B881F991F5A95C1
S1131FD0A9F780959095BC01CD01089597FB072E34
S1131FE016F4009406D077FD08D0E4DF07FC05D092
S1131FF03EF4909581959F4F0895709561957F4F1C
S11320000895A1E21A2EAA1BBB1BFD010DC0AA1F35
S1132010BB1FEE1FFF1FA217B307E407F50720F04D
S1132020A21BB30BE40BF50B661F771F881F991FC8
S11320301A9469F760957095809590959B01AC0111
S1132040BD01CF0108955058BB27AA270ED070C1F7
S113205061D130F066D120F031F49F3F11F41EF4C9
S113206056C10EF4E095E7FB4CC1E92F72D180F321
S1132070BA17620773078407950718F071F49EF581
S11320808AC10EF4E0950B2EBA2FA02D0B01B901D5
S113209090010C01CA01A0011124FF27591B99F0DA
S11320A0593F50F4503E68F11A16F040A22F232FE6
S11320B0342F4427585FF3CF469537952795A79536
S11320C0F0405395C9F77EF41F16BA0B620B730BDD
S11320D0840BBAF09150A1F0FF0FBB1F661F771F4E
S11320E0881FC2F70EC0BA0F621F731F841F48F403
S11320F0879577956795B795F7959E3F08F0B3CF89
S11321009395880F08F09927EE0F97958795089572
S1132110D4D008F481E008950CD00AC102D140F073
S1132120F9D030F021F45F3F19F0EBC0511134C104
S1132130EEC00FD198F39923C9F35523B1F3951B3E
S1132140550BBB27AA2762177307840738F09F5FD4
S11321505F4F220F331F441FAA1FA9F333D00E2E43
S11321603AF0E0E830D091505040E695001CCAF7B0
S113217029D0FE2F27D0660F771F881FBB1F261775
S113218037074807AB07B0E809F0BB0B802DBF0148
S1132190FF2793585F4F2AF09E3F510568F0B1C066
S11321A0FBC05F3FECF3983EDCF38695779567952B
S11321B0B795F7959F5FC9F7880F911D96958795F9
S11321C097F90895E1E0660F771F881FBB1F621718
S11321D073078407BA0720F0621B730B840BBA0BD6
S11321E0EE1F88F7E0950895BCD088F09F5790F0D3
S11321F0B92F9927B751A0F0D1F0660F771F881F28
S1132200991F1AF0BA95C9F712C0B13081F0C3D042
S1132210B1E00895C0C0672F782F8827B85F39F0E0
S1132220B93FCCF3869577956795B395D9F73EF486
S113223090958095709561957F4F8F4F9F4F08952E
S1132240E89409C097FB3EF490958095709561954C
S11322507F4F8F4F9F4F9923A9F0F92F96E9BB2702
S11322609395F695879577956795B795F111F8CF7E
S1132270FAF4BB0F11F460FF1BC06F5F7F4F8F4FE9
S11322809F4F16C0882311F096E911C0772321F0DF
S11322909EE8872F762F05C0662371F096E8862F77
S11322A070E060E02AF09A95660F771F881FDAF7CE
S11322B0880F9695879597F90895990F0008550FFB
S11322C0AA0BE0E8FEEF16161706E807F907C0F0B8
S11322D012161306E407F50798F0621B730B840BC0
S11322E0950B39F40A2661F0232B242B252B21F49A
S11322F008950A2609F4A140A6958FEF811D811D3A
S1132300089597F99F6780E870E060E008959FEF73
S113231080EC089500240A94161617061806090678
S1132320089500240A941216130614060506089547
S1132330092E0394000C11F4882352F0BB0F40F4CF
S1132340BF2B11F460FF04C06F5F7F4F8F4F9F4F0F
S1132350089557FD9058440F551F59F05F3F71F091
S11323604795880F97FB991F61F09F3F79F08795F8
S11323700895121613061406551FF2CF4695F1DF81
S113238008C0161617061806991FF1CF8695710511
S1132390610508940895E894BB2766277727CB0145
S11323A097F908958ADF08F48FEF08950BD0C0CF12
S11323B0B1DF28F0B6DF18F0952309F0A2CFA7CF3C
S11323C01124EACFC6DFA0F3959FD1F3950F50E017
S11323D0551F629FF001729FBB27F00DB11D639FD3
S11323E0AA27F00DB11DAA1F649F6627B00DA11D79
S11323F0661F829F2227B00DA11D621F739FB00D1F
S1132400A11D621F839FA00D611D221F749F33278E
S1132410A00D611D231F849F600D211D822F762F27
S11324206A2F11249F5750408AF0E1F088234AF024
S1132430EE0FFF1FBB1F661F771F881F9150504070
S1132440A9F79E3F510570F05CCFA6CF5F3FECF338
S1132450983EDCF3869577956795B795F795E7955C
S11324609F5FC1F7FE2B880F911D9695879597F96D
S11324700895CF93DF938230910510F482E090E0C9
S1132480E0910304F091040420E030E0A0E0B0E027
S1132490309739F14081518148175907B8F04817EE
S11324A0590771F482819381109729F013969C93B4
S11324B08E9312972CC0909304048093030427C036
S11324C02115310531F04217530718F0A901DB013A
S11324D001C0EF019A01BD01DF010280F381E02D0B
S11324E0D7CF21153105F9F0281B390B24303105DC
S11324F080F48A819B816115710521F0FB0193832E
S1132500828304C09093040480930304FE013296F2
S113251044C0FE01E20FF31F8193919322503109CD
S1132520398328833AC02091010430910204232B7B
S113253041F420910201309103013093020420936D
S1132540010420910001309101012115310541F46C
S11325502DB73EB74091040150910501241B350B62
S1132560E0910104F0910204E217F307A0F42E1B9A
S11325703F0B2817390778F0AC014E5F5F4F2417E3
S1132580350748F04E0F5F1F509302044093010437
S11325908193919302C0E0E0F0E0CF01DF91CF910D
S11325A00895CF93DF93009709F487C0FC01329715
S11325B013821282C0910304D0910404209781F401
S11325C020813181280F391F8091010490910204E8
S11325D08217930779F5F0930204E09301046DC028
S11325E0DE0120E030E0AE17BF0750F412964D91A3
S11325F05C9113979D014115510509F1DA01F3CF5F
S1132600B383A28340815181840F951F8A179B074E
S113261071F48D919C911197840F951F029691836B
S1132620808312968D919C911397938382832115B5
S1132630310529F4F0930404E09303043EC0D90166
S11326401396FC93EE9312974D915D91A40FB51FD1
S1132650EA17FB0779F480819181840F951F029614
S1132660D90111969C938E938281938113969C93A6
S11326708E931297E0E0F0E08A819B81009719F035
S1132680FE01EC01F9CFCE01029628813981820F37
S1132690931F20910104309102042817390769F42B
S11326A0309729F4109204041092030402C0138298
S11326B01282D0930204C0930104DF91CF91089554
S11326C0283008F027E03327DA01990F311D87FD00
S11326D0916000966105710539F432602E5F3D9377
S11326E030E32A95E1F708959F3F30F08038710573
S11326F0610509F03C5F3C5F3D93913008F08068D0
S1132700911DDF93CF931F930F93FF92EF92192F95
S1132710987F9695E92F96959695E90FFF27E251B4
S1132720FF4F99273327EE24FF24A701E7010590E3
S11327300894079428F4360FE71EF81E491F511D0C
S1132740660F771F881F991F0694A1F705900794B9
S113275028F4E70EF81E491F561FC11D770F881F66
S1132760991F661F0694A1F70590079428F4F80EA4
S1132770491F561FC71FD11D880F991F661F771F3A
S11327800694A1F70590079420F4490F561FC71F1C
S1132790D81F990F661F771F881F0694A9F7849185
S11327A01095177041F0D695C79557954795F794AE
S11327B0E7941A95C1F7E4E9F0E06894159015914F
S11327C035916591959105907FE27395E118F10A31
S11327D0430B560BC90BD009C0F7E10CF11E431F84
S11327E0561FC91FD01D7EF4703311F48A95E6CFAD
S11327F0E894015030F0080F0AF40027021708F497
S1132800202F2395022F7A3328F079E37D932A959C
S1132810E9F710C07D932A9589F6069497956795F4
S1132820379517951794E118F10A430B560BC90B0A
S1132830D00998F023957E9173957A3308F070E36C
S11328407C932013B8F77E9170617D9330F083956B
S113285071E37D9370E32A95E1F71124EF90FF90E3
S11328600F911F91CF91DF91992787FD909508953E
S1132870FC010590615070400110D8F78095909547
S11328808E0F9F1F0895FC0161507040019001104C
S1132890D8F7809590958E0F9F1F08950F931F93DF
S11328A0CF93DF93182F092FEB018B8181FD03C098
S11328B08FEF9FEF20C082FF10C04E815F812C817B
S11328C03D81421753077CF4E881F9819F012F5F12
S11328D03F4F39832883108306C0E885F985812F0B
S11328E00995892B29F72E813F812F5F3F4F3F8325
S11328F02E83812F902FDF91CF911F910F910895F7
S1132900CF93DF93CDB7DEB7FE0135966191719118
S1132910AF0180910704909108040E94530CDF9149
S1132920CF9108956091070470910804B7CF0F9375
S11329301F93CF93DF93E0910704F0910804238160
S113294021FF1BC0EC0100E010E0899160910704B5
S113295070910804DB011896ED91FC911997882376
S113296031F00995892B89F30FEF1FEFEECF8AE041
S11329700995892B11F4C80102C08FEF9FEFDF91F5
S1132980CF911F910F910895FA01AA27283051F190
S1132990203181F1E8946F936E7F6E5F7F4F8F4F8C
S11329A09F4FAF4FB1E03ED0B4E03CD0670F781FEB
S11329B0891F9A1FA11D680F791F8A1F911DA11DD0
S11329C06A0F711D811D911DA11D20D009F4689409
S11329D03F912AE0269F11243019305D3193DEF6B1
S11329E0CF010895462F4770405D4193B3E00FD067
S11329F0C9F7F6CF462F4F70405D4A3318F0495D52
S1132A0031FD4052419302D0A9F7EACFB4E0A69534
S1132A109795879577956795BA95C9F70097610556
S1132A20710508959B01AC010A2E069457954795AC
S1132A3037952795BA95C9F7620F731F841F951FA1
S1132A40A01D0895E199FECF9FBB8EBBE09A992704
S1132A508DB30895262FE199FECF9FBB8EBBE09ADC
S1132A6001970DB2021631F02DBB0FB6F894E29A1D
S10D2A70E19A0FBE0895F894FFCF19
S1132A7A00000B04200000000002000000006D01A9
S1132A8A000000000000803F0102010200640A22E3
S1132A9A4E14314432123342341135413618422429
S1132AAA4C284C2152003001C702D603E30400002B
S1132ABA285078A0C8DCF0FAFCFE353135310053D1
S1132ACA65742054696D65722F436F756E746572EF
S1132ADA30005365742054696D65722F436F756EA7
S1132AEA7465723200537461727420536875746425
S1132AFA6F776E002D205265616420656570726F70
S1132B0A6D00322E3000536869667420476561721D
S1132B1A20506F736974696F6E2047617567652009
S1132B2A5665722025730A00537461727420696EA3
S1132B3A6974446576696365732829002D20537086
S1132B4A65656420466163746F723D252E32660A98
S1132B5A002D20446973706C617920537465703D4B
S1132B6A25640A002D2054696D65723020537461FE
S1132B7A72743D25640A002D205365676D656E7471
S1132B8A205479706520436F6D6D6F6E20416E6FAE
S1132B9A64653D25630A002D20557365205452202F
S1132BAA696E205365676D656E7420506F77657220
S1132BBA20436972637569743D25630A002D2053A5
S1132BCA657474696E6720456E746572696E6720F0
S1132BDA4D6F74696F6E3D25730A002D204D79205F
S1132BEA53657474696E67203A0A202043657265D6
S1132BFA6D6F6E793D25640A20204368616E6769AA
S1132C0A6E67204566666563743D25640A20205311
S1132C1A6C656570204566666563743D25640A20A3
S1132C2A2052657665727365204566666563743DF0
S1132C3A25640A2020427269676874204E6F726D97
S1132C4A616C3D25640A2020427269676874204ECB
S1132C5A696768743D25640A005361766520656571
S1132C6A70726F6D203A200042616E6B25643D25B7
S1132C7A640A0053746172742077656C636F6D65BE
S1132C8A436572656D6F6E7928292E204D795F43ED
S1132C9A656D6E793D25640A0057616B6520557030
S1132CAA00496E746F2053657474696E67204D6FA2
S1132CBA646500506F736974696F6E204368616E4E
S1132CCA676564203A20004500526576657273652B
S1132CDA0033003400350036003700380039005319
S1132CEA6C656570204D6F646500016302E103E65B
S1132CFA048105D5064307F13077311432B333B66C
S1132D0A34D43F804E85311432B333B634D435E6E5
S1132D1A36E7428145E355574C4152142B202D0284
S1092D2A40201004020128
S9030000FC
