:1000000045C0000027C100005FC000005DC00000C7
:100010005BC0000059C0000057C0000055C0000080
:1000200053C0000051C000004FC000004DC0000090
:100030004BC0000049C0000047C0000045C00000A0
:10004000D9C0000041C000003FC000003DC000001A
:100050003BC0000039C0000037C0000035C00000C0
:1000600033C0000031C000002FC000002DC00000D0
:100070002BC0000029C0000027C0000025C00000E0
:1000800023C0000021C000001FC0000011241FBEBB
:10009000CFEFD0E1DEBFCDBF13E0A0E0B1E0EAEBEF
:1000A000F5E200E00BBF02C007900D92A23DB10740
:1000B000D9F724E0A2EDB3E001C01D92A139B20747
:1000C000E1F703D00C94DB129BCF8F929F92AF92FB
:1000D000BF92CF92DF92EF920F93CF93DF93CDB782
:1000E000DEB76D970FB6F894DEBF0FBECDBF44EFFD
:1000F00051E060E074E284EF90E08AD18111F7CFA3
:100100008FEF87BB18BA81BB12BA82B913B880933C
:1001100064001092650087E0E3E0F1E0DE015796AD
:1001200001900D928A95E1F786E1EAE0F1E0DE01C7
:10013000119601900D928A95E1F71F9281E08F93BD
:100140008F938F931F921F9281E38F9387E08F93FA
:100150001F9288E38F931F9287E38F931F9282E60B
:100160008F931F9281E68F931F9285E38F931F9247
:1001700084E38F931F9289E38F931F928BE38F9376
:100180008AE3882E912C9E01295E3F4F590193E806
:10019000C92E91E0D92E24E0E22E03E02BE0AE013F
:1001A0004F5F5F4F61E081E0ADD20FB6F894DEBFE4
:1001B0000FBECDBF882359F0A7D18111FDCF0E947A
:1001C0005A0D8111FCCF0E944A0D8111FCCF80E0B5
:1001D00090E06D960FB6F894DEBF0FBECDBFDF91F5
:1001E000CF910F91EF90DF90CF90BF90AF909F9005
:1001F0008F9008951F920F920FB60F9211242F9394
:100200003F938F939F938091330482BF80913804F2
:100210009091390401969093390480933804209189
:1002200038043091390480913404909135042817B2
:10023000390738F0109239041092380481E0809325
:1002400037049F918F913F912F910F900FBE0F9088
:100250001F9018951F920F920FB60F9211248F9333
:10026000F89409B601FE08C089B78D7F89BF8091D7
:100270006A00837F80936A008091E603813049F4AD
:1002800080916A00836080936A0082E08093E60335
:100290000BC080916A008C7F826080936A0081E04D
:1002A0008093E6031092E50378948F910F900FBE30
:1002B0000F901F90189590913204913009F4809519
:1002C000611105C0E0918E04F0918F048083089540
:1002D000809186048330E0F4809187048330D0F4E9
:1002E000809188048430C0F4809189048230B0F415
:1002F00080918A04833FA0F480918B048852873DCB
:1003000088F480918C048150893070F087E00895E2
:1003100081E0089582E0089583E0089584E00895DF
:1003200085E0089586E0089580E00895CF92DF92F9
:10033000EF92FF920F931F93CF93DF93863098F144
:10034000682F70E065507109882777FD8095982F98
:100350000E94FF0E20E030E040EC5FE30E948B0F34
:100360006B017C01CFE8D3E003E414E0699179915B
:10037000899199910E94FD0EA70196010E94690E34
:1003800020E030E040E85FE30E94050E0E94D10EBD
:10039000F80161937193819391938F01F3E0CB3CCA
:1003A000DF0721F71EC0CFE8D3E003E414E0C82E36
:1003B000D12CE12CF12C2991399149915991A5E049
:1003C000B0E00E94EB0DA70196010E94C90DF80153
:1003D00021933193419351938F01F3E0CB3CDF079D
:1003E00051F7DF91CF911F910F91FF90EF90DF9028
:1003F000CF900895F89485E083BF87B7816087BF69
:1004000087B78D7F87BF8091330482BF789408952A
:10041000CF92DF92EF92FF926B017C0180913304C7
:1004200081113DC05093350440933404C114D1046C
:10043000E104F10431F4C12C84E2D82E84EFE82EDB
:10044000F12CC701B60120E034E244EF50E00E94F5
:10045000C90D220F822F880F880F820F8F5F809324
:100460008404C701B6010E94FD0E2FE632E143E885
:100470005AE30E948B0F20E030E040E05CE30E94F2
:100480008B0F9B01AC0160E070E080E893E40E9478
:10049000040E0E94D10E60933304ACDF0DC0809136
:1004A0003704813049F410923704109235041092C9
:1004B0003404F89480E001C081E0FF90EF90DF9079
:1004C000CF9008958091900420E1829FC001112473
:1004D0008D6485BD87B78F7387BF14BC13BC84B789
:1004E000877F84BF2FE088E190E00FB6F894A8954D
:1004F00081BD0FBE21BD81E08093E60392E0909321
:100500006A0089BF88BF0895CF93DF93809102016D
:10051000882309F4C0C090913704913009F0BDC020
:1005200010923704909186049130D1F4813009F013
:1005300087C082E08093020188EE93E090933504B7
:100540008093340460E08FEFB6DE80912F04813019
:1005500009F094C0E0913F04F091400410828EC0F5
:10056000923009F095C020913404309135048130E7
:1005700009F045C0E0918E04F0918F04C081409154
:100580002F042436310579F084E690E09093350409
:10059000809334044130E9F4E0913F04F091400449
:1005A0008EEF808316C080913204813021F48C2F2D
:1005B0008095C82F01C08C2FCC0FC82B413061F41F
:1005C000E0913F04F09140048081880F8160808336
:1005D00003C0C1E0D1E001C0D0E060E08C2F6BDE51
:1005E000CF3F09F049C088EE93E0909335048093A3
:1005F0003404809102018F5F809302013DC0283254
:10060000310581F088E290E09093350480933404C2
:1006100080912F04813031F4E0913F04F091400447
:100620008FEF80838091020190E06091830470E0FD
:100630009B01220F331F2F5F3F4F281739076CF4A0
:100640001092020184E690E0909335048093340484
:1006500039DF60E080E02FDE1BC001970E94B60DFD
:1006600085539C4F60E0FC01808125DE8091020172
:100670008F5F809302010CC0D13051F480912E0421
:10068000813031F468E871E08BEF93E00E94F90F5C
:100690008091020103C080E001C081E0DF91CF9131
:1006A00008950F931F93CF93DF9380E090E00E9413
:1006B0001C12813079F406E814E0C0E0D0E0219605
:1006C000CE010E941C12F80181938F01C730D10521
:1006D000B1F713C061E080E090E00E94241206E8C8
:1006E00014E0C0E0D0E0F80161918F012196CE01C5
:1006F0000E942412C730D105B1F7DF91CF911F912D
:100700000F9108952F923F925F926F927F928F92F6
:100710009F92AF92BF92CF92DF92EF92FF920F9390
:100720001F93CF93DF93CDB7DEB72E970FB6F89414
:10073000DEBF0FBECDBF182FF62EF5012EA03FA0B5
:1007400068A479A4A8A8B9A858AC89AD813011F4DF
:1007500080932E04123060F080912E04813031F4A9
:1007600066E971E08BEF93E00E94F90F80E06DC1C4
:10077000113011F41093320491E09F1538F48091F8
:100780002E04813099F768EB71E0ECCF253638F014
:1007900080912E04813051F767ED71E0E3CF05368B
:1007A00038F080912E04813009F76BEF71E0DACFD9
:1007B00084E68E1538F480912E048130B9F669E113
:1007C00072E0D0CF20938104D6010D900020E9F78C
:1007D0001197AC19BD09A093820486E0809383042D
:1007E000A53158F080912E04813009F0BFCF1F92BF
:1007F00084E18F9387E392E068C0D0928004C09236
:100800007F0450933B0440933A04005D00938504B9
:1008100080E38E0D80933E048681811102C081E0C9
:10082000868386818A3010F089E086838081809378
:1008300086048181809387048281809388048381E8
:1008400080938904848124E630E0A901481B510982
:100850000FEF049FC001059F900D1124B9010E9464
:10086000B60D60938A048581A901481B5109049F34
:10087000C001059F900D1124B9010E94B60D60932F
:100880008B04868180938C0481E080938D0420DD2D
:10089000882351F19EE0E0E2F1E0DE011196019043
:1008A0000D929A95E1F790912E04913009F05ECF68
:1008B000FE013196E80FF11DE80FF11D329781819D
:1008C0008F9380818F9389E592E09F938F938BEF35
:1008D00093E09F938F930E9400100F900F900F90C2
:1008E0000F900F900F9042CF9FA9923040F08091CF
:1008F0002E04813009F03ACF6CE672E033CFE1E0AC
:10090000E51540F480912E04813009F02FCF6BE87B
:1009100072E028CFF9ADF23040F080912E048130A2
:1009200009F024CF67EA72E01DCFBBDE80918C0412
:10093000FDDC80B58B7F80BD8CA19DA190933D0493
:1009400080933C04F4011082EAA1FBA10083709221
:10095000400460923F0450922F04511006C0FFA93A
:10096000F11103C0F101108202C0F1010083F30113
:1009700000838CA59DA590938F0480938E048FEFA8
:10098000EAA5FBA5808360E080E095DCEEA5FFA5ED
:10099000208181E090E00AA802C0880F991F0A9484
:1009A000E2F7282B2083F5019081113031F4F1100A
:1009B00004C0982B908383E004C0809589238083B2
:1009C00082E080939004EBA9FCA9408181E090E053
:1009D0009C010DA802C0220F331F0A94E2F70EA853
:1009E00002C0880F991F0A94E2F7822B8095842316
:1009F000808380912E048130B9F4809133041F925A
:100A00008F93809184041F928F9384EC92E09F9344
:100A10008F938BEF93E09F938F930E9400100FB6FC
:100A2000F894DEBF0FBECDBF82E088BF789480917E
:100A30008604811109C01092020184E690E090932F
:100A40003504809334043EDD81E02E960FB6F89491
:100A5000DEBF0FBECDBFDF91CF911F910F91FF90F1
:100A6000EF90DF90CF90BF90AF909F908F907F904E
:100A70006F905F903F902F900895CF92DF92EF920A
:100A8000FF920F931F93CF93DF93CDB7DEB72F97CE
:100A90000FB6F894DEBF0FBECDBF7C018C010150B4
:100AA00011090830110508F0D9C0603219F0623020
:100AB00009F0D4C0C8018A579B4F6C01FC018081AA
:100AC000603211F471E003C0882319F07FEF780FD2
:100AD00001C070E09701255031092230310508F03E
:100AE0005AC09BE0EEE2F1E0DE01119601900D921A
:100AF0009A95E1F7FE01319620E030E041918417AC
:100B0000C9F0841788F4E82FF0E0DE01A20FB31FCC
:100B10008C91DF01A81BB10950E04E1B5F0BA4179D
:100B2000B50744F4215006C02F5F3F4F2A303105EE
:100B300029F72AE004301105A1F4603241F42223A0
:100B400009F490C0FE01E20FF11D708124C02A302B
:100B500009F48AC0FE01E20FF11D7281713FD8F0E5
:100B600083C005301105B9F4603249F4222381F0C5
:100B7000FE01E20FF11D7081783268F409C02A305D
:100B800049F0FE01E20FF11D72817F3F21F402C0A6
:100B900078E201C07EEF02301105B1F038F40115A2
:100BA000110571F00130110559F021C00630110511
:100BB00099F00730110561F003301105C1F408C048
:100BC0007330A8F072E013C0743088F073E00FC087
:100BD000772369F071E00BC07A3020F4711103C003
:100BE00071E001C079E0872F7F87A0DB7F85F60168
:100BF00070830730110531F0672FC7017F870E948E
:100C000024127F8580912E04813051F58EE0E0E240
:100C1000F1E0DE01119601900D928A95E1F71F92A5
:100C20007F93F801EE0FFF1F81E090E08C0F9D1F76
:100C3000E80FF91F81818F9380818F9387E293E082
:100C40009F938F938BEF93E09F938F930E9400105D
:100C50000FB6F894DEBF0FBECDBF02C080E006C065
:100C600081E004C070E097CF70EF95CF2F960FB65C
:100C7000F894DEBF0FBECDBFDF91CF911F910F91D2
:100C8000FF90EF90DF90CF900895CF93DF93982F50
:100C9000823451F410923104E0918204F0E0EA5180
:100CA000FC4F808382E459C0809131048823A9F0ED
:100CB000813009F449C080918504981709F446C031
:100CC00080913E04981709F443C09C3409F442C053
:100CD000923509F041C082E540C09C34E9F192357B
:100CE000D9F19F33C9F12091820430E0D901AA5192
:100CF000BC4F8C91891789F19E3439F4E7EEF3E00B
:100D0000A0917F04B091800410C0E8EEF3E0C7EE3C
:100D1000D3E0AF01475E5340421753071CF4819163
:100D20008993F7CF9C93892F18C0CF01875E93409A
:100D30008217930734F491918D919817B1F38EE453
:100D40000CC081E08093310485E507C08BE205C0CB
:100D50008DE203C08CE401C08FE3DF91CF91089551
:100D60000F931F93CF93DF93CDB7DEB76E970FB678
:100D7000F894DEBF0FBECDBF982F991F9927991FFA
:100D8000909330048F7709F44DC040E050E0E0E0EC
:100D9000F0E0682F70E0DB010E2E02C0B595A7953C
:100DA0000A94E2F7A170BB274A0F5B1F3196E4302B
:100DB000F10589F742305105BCF564FB222720F983
:100DC00030E065FB002700F910E0200F311FE6E05E
:100DD00076956795EA95E1F7260F371F21303105A3
:100DE00019F54130510501F56091810470E02091C1
:100DF0003A0430913B0440E050E0461757077CF43A
:100E0000F9012E5F3F4FD90112979C91981304C0AE
:100E10008181853451F004C04F5F5F4FEECF8FE387
:100E200034DF03C085E401C08FE39EE1E9E3F1E034
:100E3000DE01119601900D929A95E1F7FE0131962F
:100E400020E030E0908198130BC0F901EE0FFF1FF6
:100E500081E090E08C0F9D1FE80FF91F818107C092
:100E60002F5F3F4F32962F30310561F783EE6E963C
:100E70000FB6F894DEBF0FBECDBFDF91CF911F91AB
:100E80000F9108958F929F92AF92BF92CF92DF926F
:100E9000EF92FF920F931F93CF93DF93CDB7DEB7FF
:100EA000A4970FB6F894DEBF0FBECDBF182F84E213
:100EB000E7E5F1E0DE01119601900D928A95E1F7E8
:100EC0004091E1035091E2036091E3037091E403E8
:100ED0004F5F5F4F6F4F7F4F4093E1035093E203AB
:100EE0006093E3037093E40380913104823031F422
:100EF0008091E0038550823008F450C09091300416
:100F00008091DF03913019F400918B0402C00091AD
:100F10008A04801709F442C00093DF03802E912CCD
:100F2000B401882777FD8095982F69D76B017C01E4
:100F3000AA24AA94B12CA818B90880E58A9DB0010A
:100F40008B9D700D1124882777FD8095982F57D79A
:100F50002AE037ED43E25CE3DED79B01AC01C70139
:100F6000B60153D61ED76093010181E28A9DB0017C
:100F70008B9D700D1124882777FD8095982F3FD782
:100F80002AE037ED43E25CE3C6D79B01AC01C70121
:100F9000B6013BD606D76093000103BD90913104A2
:100FA0008091DD039111C8C030918704332309F487
:100FB000E2C12091DE03222309F4DDC140E8420FA3
:100FC000423008F4D8C1233E09F4D5C1211709F4F1
:100FD000D2C1103819F0153809F0CDC181110EC0F9
:100FE00081E08093DD031092E1031092E2031092FE
:100FF000E3031092E4038091DF0383BD0091DE03DD
:10100000053899F48091DC03833561F48EE4809394
:10101000DC0380912E04813029F46BE373E08BEFC5
:1010200093E0E7D760E085E88DC4313009F04CC02B
:1010300060E0802F40D92091DF036091E10370913F
:10104000E2038091E3039091E403293C48F420916A
:10105000430430914404409145045091460408C033
:1010600020915304309154044091550450915604FA
:1010700090D5672B682B692B31F483B58E3F18F41C
:1010800083B58E5F83BD83B58E3F08F45DC4409108
:10109000E1035091E2036091E3037091E4038091D6
:1010A0006B0490916C04A0916D04B0916E04841750
:1010B0009507A607B70708F047C48091DF0383BDF3
:1010C00060E08091DE0334C0323009F03DC46091AD
:1010D000E1037091E2038091E3039091E403C090F7
:1010E0007704D0907804E0907904F0907A046C153D
:1010F0007D058E059F05D0F4209153043091540452
:10110000409155045091560444D5C0904B04D09062
:101110004C04E0904D04F0904E04C616D706E80645
:10112000F90608F00DC460E080E00CC460E0802F98
:10113000C2D81093DE031CC1913009F054C088233B
:1011400021F08091DE03873509F182E58093DC038D
:1011500080912E04813029F463E473E08BEF93E0F7
:1011600048D781E08093DD031092E1031092E203FF
:101170001092E3031092E4038093E0038A8180934A
:10118000DB031093DE038091DF0383BD6091E103F5
:101190007091E2038091E3039091E403683B2BE0BC
:1011A00072078105910570F428EE33E040E050E0CD
:1011B000F0D4613971408105910508F4B4CF60E045
:1011C00087E5C0C360E0812F76D81092DD031092CE
:1011D000E1031092E2031092E3031092E40382E031
:1011E00080933104B1C3923009F0C5C0813009F455
:1011F00066C02091DE03203229F0223019F0233E10
:1012000009F0B9C081115BC081E08093DD031092C9
:10121000E1031092E2031092E3031092E4031093AF
:10122000DE039091DA0391114AC08093DA03809132
:10123000E003612F90E021DC8130D9F583EE8093CB
:10124000D903E091E003E83059F48091DE03803265
:1012500011F0823029F460E080E02DD880E085C371
:101260008BEF8E0FF0E0823010F4319710C0EB5707
:10127000FB4F208130E0205D3F4FFE01319680E042
:1012800090E0408150E04217530769F4FC01EE0FF3
:10129000FF1F81E090E08C0F9D1FE80FF91F8181F7
:1012A0008093D9030CC0019632968231910549F79B
:1012B00006C083EE8093DE038093D90313EE809102
:1012C000DA03813071F08091E1039091E203A09103
:1012D000E303B091E403883E9340A105B10508F013
:1012E00042C08091E0039BEF980F923018F160911B
:1012F000E1037091E2038091E3039091E403683E7F
:1013000023E0720781059105F8F42CE231E040E01A
:1013100050E03FD42091D9036639710581059105CC
:1013200010F4286001C0277F2093D90360E08091EA
:10133000D90308C3FE013196E80FF11DE80FF11D36
:10134000329760E0818102C060E0812F0E945B01E2
:101350001092DD031092E1031092E2031092E30376
:101360001092E403F1C260E08091DB030E945B0114
:101370001092DD03E9C2813051F41092DD03109226
:10138000E1031092E2031092E3031092E403009150
:10139000DE03011709F4CFC080912E04813009F0DB
:1013A00059C0911157C00091DC03033529F46BE358
:1013B00073E08BEF93E01DD6153809F44BC010385D
:1013C00009F448C0033531F46AE573E08BEF93E02C
:1013D00005D605C06BE573E08BEF93E00AD6133EAC
:1013E00019F461E673E031C0113819F463E673E073
:1013F0002CC0143119F466E871E027C0133B19F4CE
:1014000065E673E022C0163B19F467E673E01DC081
:10141000143D19F469E673E018C0163E19F46BE642
:1014200073E013C0173E19F46DE673E00EC0143379
:1014300019F46FE673E009C0173F19F461E773E030
:1014400004C0163F29F463E773E08BEF93E0C6D541
:1014500010922D048EE48093DC031093DE0310922F
:10146000D8031092D7031092D6031092D50310928E
:10147000D4031092DA038091DF0383BD809131049D
:10148000811164C2103809F06EC285E89091310470
:10149000923009F046C0113019F01430F1F50AC04D
:1014A0008091E00381508093E00381110DC010937F
:1014B000E0030AC08091E0038F5F8093E0038930EE
:1014C00018F088E08093E003E091E003DE011196DC
:1014D00080E090E02C912E130EC0DC01AA0FBB1F00
:1014E00081E090E08C0F9D1FA80FB91F11968C9181
:1014F0008093DB0305C0019612968231910551F766
:101500008091DB039BEF9E0F923058F4F0E0EB5795
:10151000FB4F90819093DF0304C0133E09F014C287
:1015200008C01092E1031092E2031092E3031092BC
:10153000E40360E007C28091D4039091D503892B26
:1015400029F493B58091DF03981383BD8091310412
:10155000823009F096C0003821F0013011F00430DB
:1015600011F40091DB032091E0038BEF820F8230B6
:1015700008F4E6C1283009F4E3C18091D4039091C6
:10158000D503019731F081E090E09093D5038093EB
:10159000D4036091E1037091E2038091E3039091A1
:1015A000E4032730A1F520916B0430916C04409145
:1015B0006D0450916E04EDD2C0906704D090680421
:1015C000E0906904F0906A04C616D706E806F906AA
:1015D00008F04FC093B580910101981383BDE0914D
:1015E000E003F0E0EB57FB4F208130E0205D3F4F00
:1015F000FE01319680E090E0408150E042175307B1
:1016000039F10196329682319105B1F799C120EDF9
:1016100037E040E050E0BDD2693E7340810591055E
:1016200040F193B580910101981383BDE091E003EF
:10163000F0E0EB57FB4F208130E0205D3F4FFE0193
:10164000319680E090E0408150E04217530759F412
:10165000FC01EE0FFF1F81E090E08C0F9D1FE80F53
:10166000F91F01816DC1019632968231910559F7BA
:1016700067C193B58091DF03981709F461C183BDF9
:101680005FC1013809F03EC0209189046091E103F7
:101690007091E2038091E3039091E403211119C05A
:1016A00020916704309168044091690450916A0464
:1016B00070D2C0905F04D0906004E0906104F0901C
:1016C00062046C157D058E059F0508F439C100E0A4
:1016D00037C12091630430916404409165045091B6
:1016E000660457D2C0905704D0905804E090590433
:1016F000F0905A046C157D058E059F0508F020C1F9
:1017000009E81EC1053809F0DBC04091E1035091A2
:10171000E2036091E3037091E40380917B04909174
:101720007C04A0917D04B0917E0484179507A607E0
:10173000B70708F0C5C08091DC03833549F080917C
:101740002E04813029F465E773E08BEF93E051D4E8
:1017500083E58093DC03809188048130D1F540914A
:10176000D7035091D8034F5F5F4F5093D8034093F6
:10177000D70360E070E080916F0490917004A091B5
:101780007104B091720484179507A607B70708F093
:10179000DBC00091D4031091D503F801E553FC4F51
:1017A00060E080810E945B010F5F1F4F1093D503A3
:1017B0000093D4038091830490E00817190720F068
:1017C0001092D5031092D4031092D8031092D7032D
:1017D000BBC0823009F061C08091D4039091D503E1
:1017E000892B31F481E090E09093D5038093D4036A
:1017F0004091D7035091D8034F5F5F4F5093D80368
:101800004093D70360E070E080914B0490914C04CA
:10181000A0914D04B0914E0484179507A607B70711
:1018200020F58091D40380FF0CC083B5823D18F46D
:1018300083B58E5F15C083B58F3F99F083B58F5FF9
:101840000FC08091D6038F5F8093D60393B58091AC
:101850000001891730F483B5833D18F083B58150BA
:1018600083BD1092D8031092D7038091D403909136
:10187000D50380FF05C023B52F3F09F065C005C023
:101880002091D6032C3308F45FC001969093D503C2
:101890008093D4031092D60357C0833009F054C00C
:1018A0008091D4039091D503019709F44DC081E054
:1018B00090E09093D5038093D4038FEF83BD44C011
:1018C00080918704813099F50538D1F1003821F0F5
:1018D000013011F0043021F485E88093DE0305E83F
:1018E0006091E1037091E2038091E3039091E4033E
:1018F000C0906704D0906804E0906904F0906A0496
:101900006C157D058E059F05D8F420915304309108
:10191000540440915504509156043BD1C090470463
:10192000D0904804E0904904F0904A04F6CB003887
:1019300009F478CB013009F475CB043009F472CB8B
:1019400060E0802F0E945B0181E00FC0133E59F4DC
:1019500010923104E0918204F0E0EA51FC4F82E4FD
:10196000808383EE93CD812F91CDA4960FB6F8940A
:10197000DEBF0FBECDBFDF91CF911F910F91FF90C2
:10198000EF90DF90CF90BF90AF909F908F90089591
:10199000CF93DF93CDB7DEB728970FB6F894DEBFAD
:1019A0000FBECDBF88E0EBE7F1E0DE0111960190BC
:1019B0000D928A95E1F7FE01319680E090E030814A
:1019C00020913604329632130BC0FC01EE0FFF1F3C
:1019D00081E090E08C0F9D1FE80FF91F818105C009
:1019E00001968430910559F788E060E00E945B0120
:1019F00080913604813039F580912E04813029F4AC
:101A000060E873E08BEF93E0F4D280912F04813093
:101A100031F4E0913F04F09140048FEF808313BCD8
:101A2000A89584B7877F84BF88E10FB6F89481BDFD
:101A300011BC0FBEF8948CE080936A0082E088BFEE
:101A400089BF789419C0809136048430A8F0109230
:101A500036048FEF83BDF89417BE13BE15BC78947F
:101A600085B7837E806185BF85B7806285BF889595
:101A700085B78F7D85BF05C0809136048F5F8093C9
:101A8000360428960FB6F894DEBF0FBECDBFDF91A7
:101A9000CF91089580913604882341F080913704D6
:101AA000813031F41092370473DF02C080E0089572
:101AB00081E0089580913704813031F51092370428
:101AC000A8958091E603823051F48091E5038F5F01
:101AD0008093E5038F3118F01092E50326C0E09162
:101AE0003C04F0913D049081892F80958093D3032D
:101AF00020912F04213029F4E0913F04F09140041B
:101B000090832ED98093D203809138049091390428
:101B10006091840470E016D0892B11F081E0089563
:101B20008091D203AFD98130C9F31092370484EF8A
:101B300091E0909335048093340481E080933604DF
:101B400080E00895AA1BBB1B51E107C0AA1FBB1F61
:101B5000A617B70710F0A61BB70B881F991F5A9539
:101B6000A9F780959095BC01CD01089597FB072EAC
:101B700016F4009406D077FD08D0E4DF07FC05D00A
:101B80003EF4909581959F4F0895709561957F4F94
:101B90000895A1E21A2EAA1BBB1BFD010DC0AA1FAE
:101BA000BB1FEE1FFF1FA217B307E407F50720F0C6
:101BB000A21BB30BE40BF50B661F771F881F991F41
:101BC0001A9469F760957095809590959B01AC018A
:101BD000BD01CF01089509D0A59F900DB49F900D30
:101BE000A49F800D911D11240895A29FB001B39F61
:101BF000C001A39F700D811D1124911DB29F700D16
:101C0000811D1124911D08955058BB27AA270ED07D
:101C100048C139D130F03ED120F031F49F3F11F46A
:101C20001EF42EC10EF4E095E7FB24C1E92F4AD142
:101C300080F3BA17620773078407950718F071F4E9
:101C40009EF562C10EF4E0950B2EBA2FA02D0B016C
:101C5000B90190010C01CA01A0011124FF27591BF1
:101C600099F0593F50F4503E68F11A16F040A22FF7
:101C7000232F342F4427585FF3CF46953795279568
:101C8000A795F0405395C9F77EF41F16BA0B620B67
:101C9000730B840BBAF09150A1F0FF0FBB1F661FAE
:101CA000771F881FC2F70EC0BA0F621F731F841FF1
:101CB00048F4879577956795B795F7959E3F08F017
:101CC000B3CF9395880F08F09927EE0F97958795D6
:101CD00008950CD0E6C0DED040F0D5D030F021F42D
:101CE0005F3F19F0C7C0511110C1CAC0EBD098F3C3
:101CF0009923C9F35523B1F3951B550BBB27AA278D
:101D000062177307840738F09F5F5F4F220F331FFE
:101D1000441FAA1FA9F333D00E2E3AF0E0E830D0CA
:101D200091505040E695001CCAF729D0FE2F27D0CD
:101D3000660F771F881FBB1F261737074807AB079B
:101D4000B0E809F0BB0B802DBF01FF2793585F4F10
:101D50002AF09E3F510568F08DC0D7C05F3FECF37D
:101D6000983EDCF3869577956795B795F7959F5FD5
:101D7000C9F7880F911D9695879597F90895E1E029
:101D8000660F771F881FBB1F621773078407BA0788
:101D900020F0621B730B840BBA0BEE1F88F7E095E3
:101DA000089598D088F09F5790F0B92F9927B75190
:101DB000A0F0D1F0660F771F881F991F1AF0BA950F
:101DC000C9F712C0B13081F09FD0B1E008959CC036
:101DD000672F782F8827B85F39F0B93FCCF3869505
:101DE00077956795B395D9F73EF490958095709562
:101DF00061957F4F8F4F9F4F0895E89409C097FBDF
:101E00003EF490958095709561957F4F8F4F9F4FD1
:101E10009923A9F0F92F96E9BB279395F695879515
:101E200077956795B795F111F8CFFAF4BB0F11F4D8
:101E300060FF1BC06F5F7F4F8F4F9F4F16C088237F
:101E400011F096E911C0772321F09EE8872F762FB5
:101E500005C0662371F096E8862F70E060E02AF0F6
:101E60009A95660F771F881FDAF7880F96958795E2
:101E700097F9089597F99F6780E870E060E008950A
:101E80009FEF80EC089500240A9416161706180692
:101E90000906089500240A9412161306140605066E
:101EA0000895092E0394000C11F4882352F0BB0FFF
:101EB00040F4BF2B11F460FF04C06F5F7F4F8F4F62
:101EC0009F4F089557FD9058440F551F59F05F3F9D
:101ED00071F04795880F97FB991F61F09F3F79F04C
:101EE00087950895121613061406551FF2CF4695CE
:101EF000F1DF08C0161617061806991FF1CF869550
:101F00007105610508940895E894BB276627772733
:101F1000CB0197F908950BD0C4CFB5DF28F0BADF15
:101F200018F0952309F0A6CFABCF1124EECFCADF6E
:101F3000A0F3959FD1F3950F50E0551F629FF001DC
:101F4000729FBB27F00DB11D639FAA27F00DB11D35
:101F5000AA1F649F6627B00DA11D661F829F2227BE
:101F6000B00DA11D621F739FB00DA11D621F839F45
:101F7000A00D611D221F749F3327A00D611D231F1B
:101F8000849F600D211D822F762F6A2F11249F5769
:101F900050408AF0E1F088234AF0EE0FFF1FBB1F8C
:101FA000661F771F881F91505040A9F79E3F51052B
:101FB00070F060CFAACF5F3FECF3983EDCF38695DC
:101FC00077956795B795F795E7959F5FC1F7FE2BD6
:101FD000880F911D9695879597F90895FB01DC016F
:101FE0000D900020E9F7119701900D920020E1F784
:101FF0000895FB01DC0101900D920020E1F70895A6
:102000000F931F93CF93DF93CDB7DEB72E970FB605
:10201000F894DEBF0FBECDBF0D891E8986E08C838C
:102020001A8309838FEF9FE79E838D83AE01475EFE
:102030005F4F6F89788DCE01019610D0EF81F885C2
:10204000E00FF11F10822E960FB6F894DEBF0FBE80
:10205000CDBFDF91CF911F910F9108952F923F92A5
:102060004F925F926F927F928F929F92AF92BF92A8
:10207000CF92DF92EF92FF920F931F93CF93DF9354
:10208000CDB7DEB72C970FB6F894DEBF0FBECDBF2D
:102090007C016B018A01FC0117821682838181FF1A
:1020A000B0C1CE0101964C01F7019381F60193FD79
:1020B000859193FF81916F01882309F49EC1853238
:1020C00039F493FD859193FF81916F01853221F45D
:1020D000B70190E0E0D1E8CF512C312C20E0203244
:1020E000A0F48B3269F030F4803259F0833269F415
:1020F00020612CC08D3239F0803339F4216026C044
:102100002260246023C0286021C027FD27C030ED55
:10211000380F3A3078F426FF06C0FAE05F9E300DA3
:102120001124532E13C08AE0389E300D1124332E13
:1021300020620CC08E3221F426FD5FC1206406C0EF
:102140008C3611F4206802C0883641F4F60193FD04
:10215000859193FF81916F018111C1CF982F9F7D50
:102160009554933028F40C5F1F4FFFE3F9830DC0A3
:10217000833631F0833771F0833509F057C021C0C1
:10218000F801808189830E5F1F4F44244394512CB2
:10219000540114C03801F2E06F0E711CF801A080E8
:1021A000B18026FF03C0652D70E002C06FEF7FEFA6
:1021B000C5012C8765D12C0183012C852F77222E18
:1021C00016C03801F2E06F0E711CF801A080B180DA
:1021D00026FF03C0652D70E002C06FEF7FEFC501E1
:1021E0002C8743D12C012C852068222E830123FCCF
:1021F00019C0832D90E048165906A0F4B70180E27B
:1022000090E049D13A94F5CFF50127FC859127FE5E
:1022100081915F01B70190E03ED131103A94F1E035
:102220004F1A51084114510479F7DEC0843611F079
:10223000893631F5F80127FF07C0608171818281FD
:1022400093810C5F1F4F08C060817181882777FDE3
:102250008095982F0E5F1F4F2F76B22E97FF09C0E3
:1022600090958095709561957F4F8F4F9F4F206817
:10227000B22E2AE030E0A40140D1A82EA81843C015
:10228000853729F42F7EB22E2AE030E025C0F22FC8
:10229000F97FBF2E8F36C1F018F4883579F0ADC0C4
:1022A000803719F0883721F0A8C02F2F2061B22E77
:1022B000B4FE0DC08B2D8460B82E09C024FF0AC067
:1022C0009F2F9660B92E06C028E030E005C020E1BF
:1022D00030E002C020E132E0F801B7FE07C06081C3
:1022E0007181828193810C5F1F4F06C06081718173
:1022F00080E090E00E5F1F4FA401FFD0A82EA81829
:10230000FB2DFF77BF2EB6FE0BC02B2D2E7FA51405
:1023100050F4B4FE0AC0B2FC08C02B2D2E7E05C0BE
:102320007A2C2B2D03C07A2C01C0752C24FF0DC0F4
:10233000FE01EA0DF11D8081803311F4297E09C070
:1023400022FF06C07394739404C0822F867809F02C
:10235000739423FD12C020FF06C05A2C731418F486
:10236000530C5718732C731460F4B70180E290E09B
:102370002C8791D073942C85F6CF731410F43718F2
:1023800001C0312C24FF11C0B70180E390E02C87FD
:1023900082D02C8522FF16C021FF03C088E590E083
:1023A00002C088E790E0B7010CC0822F867851F018
:1023B00021FD02C080E201C08BE227FD8DE2B70162
:1023C00090E069D0A51430F4B70180E390E063D0C9
:1023D0005A94F8CFAA94F401EA0DF11D8081B70157
:1023E00090E059D0A110F6CF332009F45DCEB701AB
:1023F00080E290E050D03A94F7CFF7018681978140
:1024000002C08FEF9FEF2C960FB6F894DEBF0FBE81
:10241000CDBFDF91CF911F910F91FF90EF90DF9093
:10242000CF90BF90AF909F908F907F906F905F9074
:102430004F903F902F900895E199FECF9FBB8EBBA8
:10244000E09A99278DB30895262FE199FECF9FBB7F
:102450008EBBE09A01970DB2021631F02DBB0FB67C
:10246000F894E29AE19A0FBE0895FC01059061503C
:1024700070400110D8F7809590958E0F9F1F08959A
:10248000FC016150704001900110D8F78095909543
:102490008E0F9F1F08950F931F93CF93DF93182FD5
:1024A000092FEB018B8181FD03C08FEF9FEF20C0CF
:1024B00082FF10C04E815F812C813D8142175307FE
:1024C0007CF4E881F9819F012F5F3F4F3983288396
:1024D000108306C0E885F985812F0995892B29F796
:1024E0002E813F812F5F3F4F3F832E83812F902F7F
:1024F000DF91CF911F910F910895FA01AA272830FB
:1025000051F1203181F1E8946F936E7F6E5F7F4FC0
:102510008F4F9F4FAF4FB1E03ED0B4E03CD0670F3C
:10252000781F891F9A1FA11D680F791F8A1F911D8F
:10253000A11D6A0F711D811D911DA11D20D009F4DF
:1025400068943F912AE0269F11243019305D319321
:10255000DEF6CF010895462F4770405D4193B3E00A
:102560000FD0C9F7F6CF462F4F70405D4A3318F0B1
:10257000495D31FD4052419302D0A9F7EACFB4E062
:10258000A6959795879577956795BA95C9F700971A
:102590006105710508959B01AC010A2E06945795BB
:1025A000479537952795BA95C9F7620F731F841F12
:0A25B000951FA01D0895F894FFCFB9
:1025BA0055CC0102010200640A05224E143144324C
:1025CA0012334234113541361842244C284C2152D8
:1025DA00EF02F802FF0208030F0317031E03002885
:1025EA005078A0C8DCF0FAFCFE3F804E85311432E8
:1025FA00B333B634D435E636E7428145E355574C12
:10260A000152042B202D02016302E103E604810535
:10261A00D5064307C308F13077311432B333B634E1
:10262A00D435E636E7373438F739F601C702D60328
:10263A00E3040035313531005374617274206372DA
:10264A006D6E792829005B455D205345475F434FEE
:10265A004D5F414E4F4445206973206F7574206F5A
:10266A00662072616E6765005B455D205345475F72
:10267A005553455F5452206973206F7574206F66F5
:10268A002072616E6765005B455D2053454E534F6E
:10269A00525F4D41502053697A65206973206F75E6
:1026AA0074206F662072616E6765005B455D20531A
:1026BA00454E534F525F5550206973206F757420F1
:1026CA006F662072616E6765005B455D2053454EFB
:1026DA00534F525F4457206973206F7574206F6699
:1026EA002072616E6765005B455D204D6178206CE4
:1026FA00656E677468206F6620505245465F4D4F7D
:10270A00544E206973202564002573206973206F55
:10271A007574206F662072616E6765005B455D2087
:10272A00554E555345445F535459206973206F756C
:10273A0074206F662072616E6765005B455D205587
:10274A0053455F4C4544206973206F7574206F664A
:10275A002072616E6765005B455D20554152545F8A
:10276A004C4F47206973206F7574206F6620726121
:10277A006E676500696E697444657628290A205671
:10278A006572322E310A2053746570733D25640ACE
:10279A002054696D6572303D25640A204F4B004D07
:1027AA00795F43726D6E79004D795F654678004DA9
:1027BA00795F536C656570004D795F527673004D91
:1027CA00795F48696768004D795F4C6F77004D798A
:1027DA005F54656D706F00536176652045455052B0
:1027EA004F4D203A2025733D25640057616B6520C3
:1027FA00557000496E746F20557365722053657465
:10280A0074696E67204D6F6465000A476561723DA1
:10281A0000450052003200330034003500360037DC
:10282A000038003900536C656570204D6F6465008F
:10283A0053746172742053687574646F776E0014F0
:10284A00000000320000006400000096000000C88A
:10285A000000002C01000090010000F40100005863
:10286A00020000E8030000D0070000C4090000B815
:10287A000B000088130000204E00004020100402C4
:02288A0001004B
:00000001FF
