:1000000045C0000061C000005FC000005DC000008E
:100010005BC0000059C0000057C0000055C0000080
:1000200053C0000051C000004FC000004DC0000090
:100030004BC0000049C0000047C0000045C00000A0
:10004000CCC0000041C000003FC000003DC0000027
:100050003BC0000039C0000037C0000035C00000C0
:1000600033C0000031C000002FC000002DC00000D0
:100070002BC0000029C0000027C0000025C00000E0
:1000800023C0000021C000001FC0000011241FBEBB
:10009000CFEFD0E1DEBFCDBF13E0A0E0B1E0ECE5F3
:1000A000F4E200E00BBF02C007900D92A03DB10743
:1000B000D9F724E0A0EDB3E001C01D92AD38B2073E
:1000C000E1F703D00C942C129BCF8F929F92AF92AA
:1000D000CF92EF920F931F93CF93DF93CDB7DEB7FD
:1000E0006D970FB6F894DEBF0FBECDBF8FEF87BB05
:1000F00018BA81BB12BA82B913B880936400109207
:10010000650087E0E3E0F1E0DE01579601900D9293
:100110008A95E1F786E1EAE0F1E0DE0111960190CF
:100120000D928A95E1F71F9281E08F9387E08F937C
:100130001F9288E38F931F928AE38F931F9292E618
:100140009F931F9291E69F931F9295E39F931F9217
:1001500094E39F931F9299E39F931F929BE39F9336
:100160001F928F93CE0147969F938F9383E8882E9B
:1001700081E0982E94E0A92E23E0C22E3BE0E32EEE
:100180008E010F5F1F4F21E041E060E074E284EFD9
:1001900090E0C5D10FB6F894DEBF0FBECDBF882367
:1001A00051F0B1D48111FDCF0E94BE0C8111FCCF62
:1001B00075D18111FDCF80E090E06D960FB6F89477
:1001C000DEBF0FBECDBFDF91CF911F910F91EF909A
:1001D000CF90AF909F908F9008951F920F920FB67F
:1001E0000F9211242F933F938F939F9380918904B3
:1001F00082BF80911E0490911F04019690931F046A
:1002000080931E0420911E0430911F0480911A04D3
:1002100090911B042817390738F010921F04109290
:100220001E0481E080931D049F918F913F912F9137
:100230000F900FBE0F901F90189590911904913058
:1002400009F48095611105C0E0918A04F0918B0456
:1002500080830895809181048330E0F4809182044A
:100260008330D0F4809183048430C0F4809184047E
:100270008230B0F480918504833FA0F4809186049D
:100280008852873D88F4809187048150893070F0CE
:1002900087E0089581E0089582E0089583E008955D
:1002A00084E0089585E0089586E0089580E008954B
:1002B000CF92DF92EF92FF920F931F93CF93DF9332
:1002C000863098F1682F70E065507109882777FDB6
:1002D0008095982F0E94500E20E030E040EC5FE3C4
:1002E0000E94DC0E6B017C01CDE8D3E00EE314E04C
:1002F00069917991899199910E944E0EA701960179
:100300000E94BA0D20E030E040E85FE30E94560D05
:100310000E94220EF80161937193819391938F0152
:10032000F3E0C93CDF0721F71EC0CDE8D3E00EE3C0
:1003300014E0C82ED12CE12CF12C2991399149914E
:100340005991A5E0B0E00E943C0DA70196010E94E2
:100350001A0DF80121933193419351938F01F3E0EA
:10036000C93CDF0751F7DF91CF911F910F91FF90AB
:10037000EF90DF90CF900895F89485E083BF87B722
:10038000816087BF87B78D7F87BF8091890482BFD7
:100390007894089580918C0420E1829FC0011124FB
:1003A0008D6485BD87B78F7387BF14BC13BC089558
:1003B000F89417BE13BE15BC85B7806285BF85B79C
:1003C0008B7F85BF85B7806185BF85B7877F85BFF8
:1003D00088950895CF93DF93CDB7DEB728970FB6F2
:1003E000F894DEBF0FBECDBF88E0E0E2F1E0DE01B1
:1003F000119601900D928A95E1F7FE01319680E009
:1004000090E0308120911C04329632130BC0FC0125
:10041000EE0FFF1F81E090E08C0F9D1FE80FF91F8A
:10042000818105C001968430910559F788E060E02C
:1004300004DF80911C04813091F480911604813096
:1004400031F468E871E083EE93E00E944A0FE09196
:100450003A04F0913B048FEF808313BC11C080916C
:100460001C04843068F010921C048FEF83BD289622
:100470000FB6F894DEBF0FBECDBFDF91CF9198CFFE
:1004800080911C048F5F80931C0428960FB6F8940B
:10049000DEBF0FBECDBFDF91CF91089580911C04C8
:1004A000882341F080911D04813031F410921D04A5
:1004B00091DF02C080E0089581E008950F931F93BB
:1004C000CF93DF9380E090E00E946D11813079F44A
:1004D00001E814E0C0E0D0E02196CE010E946D1149
:1004E000F80181938F01C730D105B1F713C061E0E6
:1004F00080E090E00E94751101E814E0C0E0D0E0D7
:10050000F80161918F012196CE010E947511C730CB
:10051000D105B1F7DF91CF911F910F9108952F92DF
:100520003F924F925F926F927F928F929F92AF9283
:10053000BF92CF92DF92EF92FF920F931F93CF93D0
:10054000DF93CDB7DEB72F970FB6F894DEBF0FBE9F
:10055000CDBF2B013C01F42ED22E1801AF860CA189
:100560001DA1AEA8BFA82AAD213011F42093160416
:10057000411451046104710461F4809116048130C6
:1005800031F467E971E083EE93E00E944A0F80E066
:1005900099C1C301B20120E034E244EF50E00E946F
:1005A0001A0D220F822F880F880F820F8F5F809382
:1005B0007F04C301B2010E944E0E2FE632E143E8F0
:1005C0005AE30E94DC0E20E030E040E05CE30E9451
:1005D000DC0E9B01AC0160E070E080E893E40E94D7
:1005E000550D0E94220E6093890481E08F1538F426
:1005F00080911604813059F661EB71E0C4CF91E02F
:10060000F91202C0F0921904E1E0ED1540F4809176
:100610001604813009F0BBCF63ED71E0B4CFF4E68E
:10062000FE1540F480911604813009F0B0CF62EFDE
:1006300071E0A9CF24E62C1540F480911604813096
:1006400009F0A5CF66E172E09ECF8F85853640F038
:1006500080911604813009F09ACF64E372E093CF61
:10066000E0927C04F40101900020E9F73197E81949
:10067000F909E0937D0486E080937E04E53158F02B
:1006800080911604813009F082CF1F9284E18F930C
:1006900082E592E06DC090927B0480927A04309261
:1006A00036042092350480E38C0D809380048F857E
:1006B000805D80933904F8018681811102C081E058
:1006C0008683F80186818A3010F089E08683F801FC
:1006D00080818093810481818093820482818093D0
:1006E0008304838180938404848124E630E0A9011B
:1006F000481B5109EE24EA94E49EC001E59E900D4A
:100700001124B9010E94070D609385048581A90118
:10071000481B5109E49EC001E59E900D1124B901CA
:100720000E94070D6093860486818093870481E090
:10073000809388048FDD882351F19EE0E8E2F1E0A8
:10074000DE01119601900D929A95E1F790911604B1
:10075000913009F01CCFFE013196E80FF11DE80F32
:10076000F11D329781818F9380818F9384E792E08E
:100770009F938F9383EE93E09F938F930E94510FEB
:100780000F900F900F900F900F900F9000CFF9AD3A
:10079000F23040F080911604813009F0F8CE67E81D
:1007A00072E0F1CE2AAD223040F080911604813003
:1007B00009F0EDCE66EA72E0E6CE80DE8091870435
:1007C00077DD8AA59BA590933804809337048EA586
:1007D0009FA590933B0480933A048AA99BA9909388
:1007E0008B0480938A04EEA1FFA11082E8A5F9A5ED
:1007F000E082ECA5FDA5E082EEA5FFA5E082E8A9D8
:10080000F9A9E08260E080E018DDF9ADF11106C0E1
:10081000ECA9FDA91082F501E08205C0ECA9FDA9B3
:10082000E082F5011082ECA9FDA9208181E090E031
:1008300008AC02C0880F991F0A94E2F7282B208386
:10084000F1E0FF1208C0D11006C0F5019081982B8D
:10085000908383E006C0F501908180958923808391
:1008600082E080938C0480B58B7F80BD80911604DC
:100870008130B9F4809189041F928F9380917F0415
:100880001F928F9383EC92E09F938F9383EE93E07C
:100890009F938F930E94510F0FB6F894DEBF0FBE47
:1008A000CDBF80918104882311F066DD0AC01092CB
:1008B000020184E690E090931B0480931A045CDDAF
:1008C00069DD81E02F960FB6F894DEBF0FBECDBF75
:1008D000DF91CF911F910F91FF90EF90DF90CF901C
:1008E000BF90AF909F908F907F906F905F904F9050
:1008F0003F902F900895CF92DF92EF92FF920F9347
:100900001F93CF93DF93CDB7DEB72F970FB6F89431
:10091000DEBF0FBECDBF7C018C0101501109083034
:10092000110508F0D9C0603219F0623009F0D4C066
:10093000C8018F579B4F6C01FC018081603211F41C
:1009400071E003C0882319F07FEF780F01C070E0D9
:100950009701255031092230310508F05AC09BE03B
:10096000E6E3F1E0DE01119601900D929A95E1F730
:10097000FE01319620E030E041918417C9F08417E0
:1009800088F4E82FF0E0DE01A20FB31F8C91DF01A5
:10099000A81BB10950E04E1B5F0BA417B50744F428
:1009A000215006C02F5F3F4F2A30310529F72AE03A
:1009B00004301105A1F4603241F4222309F490C0FF
:1009C000FE01E20FF11D708124C02A3009F48AC0B3
:1009D000FE01E20FF11D7281713FD8F083C0053036
:1009E0001105B9F4603249F4222381F0FE01E20FCF
:1009F000F11D7081783268F409C02A3049F0FE0197
:100A0000E20FF11D72817F3F21F402C078E201C044
:100A10007EEF02301105B1F038F40115110571F0C7
:100A20000130110559F021C00630110599F0073049
:100A3000110561F003301105C1F408C07330A8F04E
:100A400072E013C0743088F073E00FC0772369F050
:100A500071E00BC07A3020F4711103C071E001C065
:100A600079E0872F7F8724DC7F85F601708307304C
:100A7000110531F0672FC7017F870E9475117F85AF
:100A800080911604813051F58EE0E8E2F1E0DE015C
:100A9000119601900D928A95E1F71F927F93F801CC
:100AA000EE0FFF1F81E090E08C0F9D1FE80FF91FF4
:100AB00081818F9380818F9386E293E09F938F93C0
:100AC00083EE93E09F938F930E94510F0FB6F8949B
:100AD000DEBF0FBECDBF02C080E006C081E004C013
:100AE00070E097CF70EF95CF2F960FB6F894DEBFDA
:100AF0000FBECDBFDF91CF911F910F91FF90EF906F
:100B0000DF90CF900895CF93DF93809102018823E7
:100B100009F4AAC090911D04913009F0A7C0109269
:100B20001D04909181049130B1F4813009F072C0BC
:100B300082E08093020188EE93E090931B048093FF
:100B40001A0460E08FEF79DBE0913A04F0913B0406
:100B50001082C1E07AC0923009F076C020911A0468
:100B600030911B048130C9F5E0918A04F0918B0427
:100B7000D081E0913A04F0913B042436310559F0DC
:100B800084E690E090931B0480931A048EEF808398
:100B9000D1E0C1E010C080911904813021F48D2F83
:100BA0008095D82F01C08D2FDD0FD82B8081880F25
:100BB00081608083C0E060E08D2F3FDBDF3F09F084
:100BC00044C088EE93E090931B0480931A048091B4
:100BD00002018F5F8093020138C02832310561F035
:100BE00088E290E090931B0480931A04E0913A0409
:100BF000F0913B048FEF80838091020190E060913F
:100C00007E0470E09B01220F331F2F5F3F4F281798
:100C100039076CF41092020184E690E090931B0473
:100C200080931A04B7DB60E080E007DB0DC001971A
:100C3000EED687539C4F60E0FC018081FEDA809104
:100C400002018F5F80930201C0E080911604813021
:100C500041F4C13031F46AE373E083EE93E00E9423
:100C60004A0F8091020103C080E001C081E0DF9162
:100C7000CF910895CF93DF93982F823451F410923F
:100C80001804E0917D04F0E0E15EFB4F808382E494
:100C900059C0809118048823A9F0813009F449C013
:100CA00080918004981709F446C080913904981700
:100CB00009F443C09C3409F442C0923509F041C0A4
:100CC00082E540C09C34E9F19235D9F19F33C9F1F6
:100CD00020917D0430E0D901A15EBB4F8C91891732
:100CE00089F19E3439F4E0E2F4E0A0917A04B09105
:100CF0007B0410C0E1E2F4E0C0E2D4E0AF01405276
:100D00005440421753071CF481918993F7CF9C9369
:100D1000892F18C0CF01805294408217930734F472
:100D200091918D919817B1F38EE40CC081E080937E
:100D3000180485E507C08BE205C08DE203C08CE492
:100D400001C08FE3DF91CF9108950F931F93CF934D
:100D5000DF93CDB7DEB76E970FB6F894DEBF0FBE48
:100D6000CDBF982F991F9927991F909317048F77BC
:100D700009F44DC040E050E0E0E0F0E0682F70E0A2
:100D8000DB010E2E02C0B595A7950A94E2F7A1707B
:100D9000BB274A0F5B1F3196E430F10589F74230DB
:100DA0005105BCF564FB222720F930E065FB0027E4
:100DB00000F910E0200F311FE6E076956795EA957F
:100DC000E1F7260F371F2130310519F54130510564
:100DD00001F560917C0470E0209135043091360477
:100DE00040E050E0461757077CF4F9012E5F3F4F73
:100DF000D90112979C91981304C08181853451F0D8
:100E000004C04F5F5F4FEECF8FE334DF03C085E454
:100E100001C08FE39EE1E1E4F1E0DE011196019073
:100E20000D929A95E1F7FE01319620E030E0908135
:100E300098130BC0F901EE0FFF1F81E090E08C0FBB
:100E40009D1FE80FF91F818107C02F5F3F4F32962A
:100E50002F30310561F783EE6E960FB6F894DEBF42
:100E60000FBECDBFDF91CF911F910F9108958F924B
:100E70009F92AF92BF92CF92DF92EF92FF920F9329
:100E80001F93CF93DF93CDB7DEB7A4970FB6F89437
:100E9000DEBF0FBECDBF182F84E2EFE5F1E0DE012B
:100EA000119601900D928A95E1F74091DF035091E0
:100EB000E0036091E1037091E2034F5F5F4F6F4F7A
:100EC0007F4F4093DF035093E0036093E1037093FF
:100ED000E20380911804823031F48091DE03855062
:100EE000823008F450C0909117048091DD03913056
:100EF00019F40091860402C000918504801709F45A
:100F000042C00093DD03802E912CB401882777FD29
:100F10008095982FC5D66B017C01AA24AA94B12C88
:100F2000A818B90880E58A9DB0018B9D700D112429
:100F3000882777FD8095982FB3D62AE037ED43E2D6
:100F40005CE33AD79B01AC01C701B601AFD57AD6B5
:100F50006093010181E28A9DB0018B9D700D112487
:100F6000882777FD8095982F9BD62AE037ED43E2BE
:100F70005CE322D79B01AC01C701B60197D562D6CD
:100F80006093000103BD909118048091DB039111DF
:100F9000C8C030918204332309F4E3C12091DC03FB
:100FA000222309F4DEC140E8420F423008F4D9C1DF
:100FB000233E09F4D6C1211709F4D3C1103819F022
:100FC000153809F0CEC181110EC081E08093DB039A
:100FD0001092DF031092E0031092E1031092E203FB
:100FE0008091DD0383BD0091DC03053899F4809185
:100FF000DA03833561F48EE48093DA03809116047A
:10100000813029F468E473E083EE93E043D760E035
:1010100085E88EC4313009F04CC060E0802F0DD9D6
:101020002091DD036091DF037091E0038091E10383
:101030009091E203293C48F420913E0430913F0412
:10104000409140045091410408C020914E043091D9
:101050004F044091500450915104ECD4672B682BFD
:10106000692B31F483B58E3F18F483B58E5F83BD51
:1010700083B58E3F08F45EC44091DF035091E003D6
:101080006091E1037091E20380916604909167049E
:10109000A0916804B091690484179507A607B70763
:1010A00008F048C48091DD0383BD60E08091DC03DB
:1010B00034C0323009F03EC46091DF037091E00328
:1010C0008091E1039091E203C0907204D090730488
:1010D000E0907404F09075046C157D058E059F05F5
:1010E000D0F420914E0430914F044091500450911F
:1010F0005104A0D4C0904604D0904704E090480426
:10110000F0904904C616D706E806F90608F00EC4A2
:1011100060E080E00DC460E0802F8FD81093DC0386
:101120001DC1913009F054C0882321F08091DC0367
:10113000873509F182E58093DA03809116048130C6
:1011400029F460E573E083EE93E0A4D681E0809318
:10115000DB031092DF031092E0031092E103109280
:10116000E2038093DE038A818093D9031093DC032A
:101170008091DD0383BD6091DF037091E003809176
:10118000E1039091E203683B2BE072078105910532
:1011900070F428EE33E040E050E04CD46139714007
:1011A0008105910508F4B4CF60E087E5C1C360E034
:1011B000812F43D81092DB031092DF031092E003DB
:1011C0001092E1031092E20382E080931804B2C30C
:1011D000923009F0C6C0813009F467C02091DC0369
:1011E000203229F0223019F0233E09F0BAC08111D3
:1011F0005CC081E08093DB031092DF031092E00378
:101200001092E1031092E2031093DC039091D80353
:1012100091114BC08093D8038091DE03612F90E041
:101220006ADB8130E1F583EE8093D703E091DE0342
:10123000E83061F48091DC03803211F0823031F4C7
:1012400060E080E00E941D0180E085C38BEF8E0F7F
:10125000F0E0823010F4319710C0E058FB4F20814D
:1012600030E0205D3F4FFE01319680E090E040810C
:1012700050E04217530769F4FC01EE0FFF1F81E0B5
:1012800090E08C0F9D1FE80FF91F81818093D70399
:101290000CC0019632968231910549F706C083EE63
:1012A0008093DC038093D70313EE8091D8038130C1
:1012B00071F08091DF039091E003A091E103B09180
:1012C000E203883E9340A105B10508F042C0809139
:1012D000DE039BEF980F923018F16091DF0370915D
:1012E000E0038091E1039091E203683E23E07207FE
:1012F00081059105F8F42CE231E040E050E09AD30A
:101300002091D703663971058105910510F4286095
:1013100001C0277F2093D70360E08091D70308C3E3
:10132000FE013196E80FF11DE80FF11D329760E0E4
:10133000818102C060E0812F0E941D011092DB03B9
:101340001092DF031092E0031092E1031092E20387
:10135000F1C260E08091D9030E941D011092DB036D
:10136000E9C2813051F41092DB031092DF03109236
:10137000E0031092E1031092E2030091DC030117F5
:1013800009F4CFC080911604813009F059C0911141
:1013900057C00091DA03033529F468E473E083EE63
:1013A00093E078D5153809F44BC0103809F448C0DB
:1013B000033531F467E673E083EE93E060D505C052
:1013C00068E673E083EE93E065D5133E19F46EE6AC
:1013D00073E031C0113819F460E773E02CC01431A8
:1013E00019F466E871E027C0133B19F462E773E073
:1013F00022C0163B19F464E773E01DC0143D19F4D4
:1014000066E773E018C0163E19F468E773E013C08E
:10141000173E19F46AE773E00EC0143319F46CE751
:1014200073E009C0173F19F46EE773E004C0163F7C
:1014300029F460E873E083EE93E021D5109215045F
:101440008EE48093DA031093DC031092D60310929B
:10145000D5031092D4031092D3031092D2031092AA
:10146000D8038091DD0383BD80911804811164C28B
:10147000103809F06EC285E890911804923009F096
:1014800046C0113019F01430F1F50AC08091DE0326
:1014900081508093DE0381110DC01093DE030AC0DA
:1014A0008091DE038F5F8093DE03893018F088E03F
:1014B0008093DE03E091DE03DE01119680E090E090
:1014C0002C912E130EC0DC01AA0FBB1F81E090E00F
:1014D0008C0F9D1FA80FB91F11968C918093D90373
:1014E00005C0019612968231910551F78091D9037A
:1014F0009BEF9E0F923058F4F0E0E058FB4F908144
:101500009093DD0304C0133E09F014C208C010928A
:10151000DF031092E0031092E1031092E20360E017
:1015200007C28091D2039091D303892B29F493B5FC
:101530008091DD03981383BD80911804823009F0F7
:1015400096C0003821F0013011F0043011F4009100
:10155000D9032091DE038BEF820F823008F4E6C1BD
:10156000283009F4E3C18091D2039091D30301970D
:1015700031F081E090E09093D3038093D2036091A7
:10158000DF037091E0038091E1039091E203273043
:10159000A1F5209166043091670440916804509150
:1015A000690448D2C0906204D0906304E09064045F
:1015B000F0906504C616D706E806F90608F04FC095
:1015C00093B580910101981383BDE091DE03F0E0B3
:1015D000E058FB4F208130E0205D3F4FFE01319607
:1015E00080E090E0408150E04217530739F10196C6
:1015F000329682319105B1F799C120ED37E040E094
:1016000050E018D2693E73408105910540F193B5D1
:1016100080910101981383BDE091DE03F0E0E05872
:10162000FB4F208130E0205D3F4FFE01319680E08E
:1016300090E0408150E04217530759F4FC01EE0F4F
:10164000FF1F81E090E08C0F9D1FE80FF91F0181C3
:101650006DC1019632968231910559F767C193B5F4
:101660008091DD03981709F461C183BD5FC1013822
:1016700009F03EC0209184046091DF037091E00383
:101680008091E1039091E203211119C0209162043D
:10169000309163044091640450916504CBD1C090B3
:1016A0005A04D0905B04E0905C04F0905D046C15EB
:1016B0007D058E059F0508F439C100E037C12091F2
:1016C0005E0430915F044091600450916104B2D196
:1016D000C0905204D0905304E0905404F09055040C
:1016E0006C157D058E059F0508F020C109E81EC117
:1016F000053809F0DBC04091DF035091E0036091B1
:10170000E1037091E2038091760490917704A091B7
:101710007804B091790484179507A607B70708F0F5
:10172000C5C08091DA03833549F080911604813079
:1017300029F462E873E083EE93E0ACD383E5809311
:10174000DA03809183048130D1F54091D503509123
:10175000D6034F5F5F4F5093D6034093D50360E0AD
:1017600070E080916A0490916B04A0916C04B09138
:101770006D0484179507A607B70708F0DBC0009132
:10178000D2031091D303F801E753FC4F60E080814E
:101790000E941D010F5F1F4F1093D3030093D203CC
:1017A00080917E0490E00817190720F01092D3036F
:1017B0001092D2031092D6031092D503BBC0823090
:1017C00009F061C08091D2039091D303892B31F449
:1017D00081E090E09093D3038093D2034091D503AE
:1017E0005091D6034F5F5F4F5093D6034093D5037C
:1017F00060E070E08091460490914704A091480415
:10180000B091490484179507A607B70720F5809182
:10181000D20380FF0CC083B5823D18F483B58E5F80
:1018200015C083B58F3F99F083B58F5F0FC080914E
:10183000D4038F5F8093D40393B5809100018917FF
:1018400030F483B5833D18F083B5815083BD109289
:10185000D6031092D5038091D2039091D30380FFD9
:1018600005C023B52F3F09F065C005C02091D40302
:101870002C3308F45FC001969093D3038093D20376
:101880001092D40357C0833009F054C08091D20322
:101890009091D303019709F44DC081E090E09093BB
:1018A000D3038093D2038FEF83BD44C08091820421
:1018B000813099F50538D1F1003821F0013011F06F
:1018C000043021F485E88093DC0305E86091DF03B0
:1018D0007091E0038091E1039091E203C090620473
:1018E000D0906304E0906404F09065046C157D056D
:1018F0008E059F05D8F420914E0430914F044091FD
:1019000050045091510496D0C0904204D0904304AA
:10191000E0904404F0904504F5CB003809F477CB0F
:10192000013009F474CB043009F471CB60E0802FEE
:101930000E941D0181E00FC0133E59F4109218045B
:10194000E0917D04F0E0E15EFB4F82E4808383EE72
:1019500093CD812F91CDA4960FB6F894DEBF0FBE24
:10196000CDBFDF91CF911F910F91FF90EF90DF904E
:10197000CF90BF90AF909F908F90089580911D045D
:10198000813099F410921D04E0913704F0913804ED
:101990009081892F80958093D103E0913A04F09152
:1019A0003B049083D2D98093D00380911E04909100
:1019B0001F0460917F0470E016D0892B11F081E044
:1019C00008958091D00353DA8130C9F310921D0439
:1019D00084EF91E090931B0480931A0481E080933C
:1019E0001C0480E00895AA1BBB1B51E107C0AA1F7D
:1019F000BB1FA617B70710F0A61BB70B881F991FB0
:101A00005A95A9F780959095BC01CD01089597FB53
:101A1000072E16F4009406D077FD08D0E4DF07FC0B
:101A200005D03EF4909581959F4F089570956195EE
:101A30007F4F0895A1E21A2EAA1BBB1BFD010DC00A
:101A4000AA1FBB1FEE1FFF1FA217B307E407F5076E
:101A500020F0A21BB30BE40BF50B661F771F881F4A
:101A6000991F1A9469F760957095809590959B01E0
:101A7000AC01BD01CF01089509D0A59F900DB49F81
:101A8000900DA49F800D911D11240895A29FB00177
:101A9000B39FC001A39F700D811D1124911DB29FA2
:101AA000700D811D1124911D08955058BB27AA2740
:101AB0000ED048C139D130F03ED120F031F49F3FF3
:101AC00011F41EF42EC10EF4E095E7FB24C1E92FBA
:101AD0004AD180F3BA17620773078407950718F095
:101AE00071F49EF562C10EF4E0950B2EBA2FA02D75
:101AF0000B01B90190010C01CA01A0011124FF27BB
:101B0000591B99F0593F50F4503E68F11A16F040B5
:101B1000A22F232F342F4427585FF3CF46953795B4
:101B20002795A795F0405395C9F77EF41F16BA0B79
:101B3000620B730B840BBAF09150A1F0FF0FBB1F27
:101B4000661F771F881FC2F70EC0BA0F621F731F70
:101B5000841F48F4879577956795B795F7959E3FCD
:101B600008F0B3CF9395880F08F09927EE0F97955B
:101B7000879508950CD0E6C0DED040F0D5D030F087
:101B800021F45F3F19F0C7C0511110C1CAC0EBD09A
:101B900098F39923C9F35523B1F3951B550BBB2734
:101BA000AA2762177307840738F09F5F5F4F220FE1
:101BB000331F441FAA1FA9F333D00E2E3AF0E0E8DA
:101BC00030D091505040E695001CCAF729D0FE2F26
:101BD00027D0660F771F881FBB1F261737074807B8
:101BE000AB07B0E809F0BB0B802DBF01FF2793586E
:101BF0005F4F2AF09E3F510568F08DC0D7C05F3F10
:101C0000ECF3983EDCF3869577956795B795F79555
:101C10009F5FC9F7880F911D9695879597F908954D
:101C2000E1E0660F771F881FBB1F621773078407E9
:101C3000BA0720F0621B730B840BBA0BEE1F88F7F8
:101C4000E095089598D088F09F5790F0B92F992784
:101C5000B751A0F0D1F0660F771F881F991F1AF0B7
:101C6000BA95C9F712C0B13081F09FD0B1E00895A4
:101C70009CC0672F782F8827B85F39F0B93FCCF325
:101C8000869577956795B395D9F73EF490958095AD
:101C9000709561957F4F8F4F9F4F0895E89409C0CD
:101CA00097FB3EF490958095709561957F4F8F4F8F
:101CB0009F4F9923A9F0F92F96E9BB279395F695A5
:101CC000879577956795B795F111F8CFFAF4BB0F23
:101CD00011F460FF1BC06F5F7F4F8F4F9F4F16C087
:101CE000882311F096E911C0772321F09EE8872F11
:101CF000762F05C0662371F096E8862F70E060E0CD
:101D00002AF09A95660F771F881FDAF7880F969545
:101D1000879597F9089597F99F6780E870E060E0EC
:101D200008959FEF80EC089500240A941616170674
:101D300018060906089500240A94121613061406BC
:101D400005060895092E0394000C11F4882352F01F
:101D5000BB0F40F4BF2B11F460FF04C06F5F7F4FD7
:101D60008F4F9F4F089557FD9058440F551F59F0BE
:101D70005F3F71F04795880F97FB991F61F09F3F78
:101D800079F087950895121613061406551FF2CFA1
:101D90004695F1DF08C0161617061806991FF1CFF1
:101DA00086957105610508940895E894BB27662718
:101DB0007727CB0197F908950BD0C4CFB5DF28F072
:101DC000BADF18F0952309F0A6CFABCF1124EECFE0
:101DD000CADFA0F3959FD1F3950F50E0551F629F86
:101DE000F001729FBB27F00DB11D639FAA27F00D74
:101DF000B11DAA1F649F6627B00DA11D661F829F9B
:101E00002227B00DA11D621F739FB00DA11D621F7F
:101E1000839FA00D611D221F749F3327A00D611D9C
:101E2000231F849F600D211D822F762F6A2F11247E
:101E30009F5750408AF0E1F088234AF0EE0FFF1FD1
:101E4000BB1F661F771F881F91505040A9F79E3F08
:101E5000510570F060CFAACF5F3FECF3983EDCF302
:101E6000869577956795B795F795E7959F5FC1F745
:101E7000FE2B880F911D9695879597F90895FB0184
:101E8000DC010D900020E9F7119701900D920020E0
:101E9000E1F70895FB01DC0101900D920020E1F7CC
:101EA00008950F931F93CF93DF93CDB7DEB72E978F
:101EB0000FB6F894DEBF0FBECDBF0D891E8986E038
:101EC0008C831A8309838FEF9FE79E838D83AE01F6
:101ED000475E5F4F6F89788DCE01019610D0EF81FC
:101EE000F885E00FF11F10822E960FB6F894DEBF32
:101EF0000FBECDBFDF91CF911F910F9108952F920B
:101F00003F924F925F926F927F928F929F92AF9289
:101F1000BF92CF92DF92EF92FF920F931F93CF93D6
:101F2000DF93CDB7DEB72C970FB6F894DEBF0FBEA8
:101F3000CDBF7C016B018A01FC011782168283816F
:101F400081FFB0C1CE0101964C01F7019381F601EA
:101F500093FD859193FF81916F01882309F49EC1C0
:101F6000853239F493FD859193FF81916F0185321C
:101F700021F4B70190E0E0D1E8CF512C312C20E0E2
:101F80002032A0F48B3269F030F4803259F0833281
:101F900069F420612CC08D3239F0803339F421602E
:101FA00026C02260246023C0286021C027FD27C0EE
:101FB00030ED380F3A3078F426FF06C0FAE05F9E25
:101FC000300D1124532E13C08AE0389E300D112499
:101FD000332E20620CC08E3221F426FD5FC12064B6
:101FE00006C08C3611F4206802C0883641F4F60130
:101FF00093FD859193FF81916F018111C1CF982F3E
:102000009F7D9554933028F40C5F1F4FFFE3F983B5
:102010000DC0833631F0833771F0833509F057C036
:1020200021C0F801808189830E5F1F4F44244394AF
:10203000512C540114C03801F2E06F0E711CF801EC
:10204000A080B18026FF03C0652D70E002C06FEF55
:102050007FEFC5012C8765D12C0183012C852F775B
:10206000222E16C03801F2E06F0E711CF801A0801C
:10207000B18026FF03C0652D70E002C06FEF7FEFD7
:10208000C5012C8743D12C012C852068222E830189
:1020900023FC19C0832D90E048165906A0F4B7011F
:1020A00080E290E049D13A94F5CFF50127FC859183
:1020B00027FE81915F01B70190E03ED131103A9443
:1020C000F1E04F1A51084114510479F7DEC084360B
:1020D00011F0893631F5F80127FF07C06081718161
:1020E000828193810C5F1F4F08C0608171818827B6
:1020F00077FD8095982F0E5F1F4F2F76B22E97FF9A
:1021000009C090958095709561957F4F8F4F9F4F37
:102110002068B22E2AE030E0A40140D1A82EA818F1
:1021200043C0853729F42F7EB22E2AE030E025C047
:10213000F22FF97FBF2E8F36C1F018F4883579F071
:10214000ADC0803719F0883721F0A8C02F2F20614B
:10215000B22EB4FE0DC08B2D8460B82E09C024FFB2
:102160000AC09F2F9660B92E06C028E030E005C057
:1021700020E130E002C020E132E0F801B7FE07C004
:1021800060817181828193810C5F1F4F06C06081E5
:10219000718180E090E00E5F1F4FA401FFD0A82E58
:1021A000A818FB2DFF77BF2EB6FE0BC02B2D2E7F60
:1021B000A51450F4B4FE0AC0B2FC08C02B2D2E7E2C
:1021C00005C07A2C2B2D03C07A2C01C0752C24FF5E
:1021D0000DC0FE01EA0DF11D8081803311F4297ECE
:1021E00009C022FF06C07394739404C0822F8678BE
:1021F00009F0739423FD12C020FF06C05A2C7314FB
:1022000018F4530C5718732C731460F4B70180E260
:1022100090E02C8791D073942C85F6CF731410F432
:10222000371801C0312C24FF11C0B70180E390E0C2
:102230002C8782D02C8522FF16C021FF03C088E5A1
:1022400090E002C088E790E0B7010CC0822F86784A
:1022500051F021FD02C080E201C08BE227FD8DE23A
:10226000B70190E069D0A51430F4B70180E390E0A5
:1022700063D05A94F8CFAA94F401EA0DF11D80813D
:10228000B70190E059D0A110F6CF332009F45DCE0C
:10229000B70180E290E050D03A94F7CFF701868101
:1022A000978102C08FEF9FEF2C960FB6F894DEBF98
:1022B0000FBECDBFDF91CF911F910F91FF90EF9097
:1022C000DF90CF90BF90AF909F908F907F906F9056
:1022D0005F904F903F902F900895E199FECF9FBB64
:1022E0008EBBE09A99278DB30895262FE199FECFF2
:1022F0009FBB8EBBE09A01970DB2021631F02DBB49
:102300000FB6F894E29AE19A0FBE0895FC01059089
:10231000615070400110D8F7809590958E0F9F1FE7
:102320000895FC016150704001900110D8F780952C
:1023300090958E0F9F1F08950F931F93CF93DF9358
:10234000182F092FEB018B8181FD03C08FEF9FEFC9
:1023500020C082FF10C04E815F812C813D814217D9
:1023600053077CF4E881F9819F012F5F3F4F398348
:102370002883108306C0E885F985812F0995892B6C
:1023800029F72E813F812F5F3F4F3F832E83812F7F
:10239000902FDF91CF911F910F910895FA01AA27F5
:1023A000283051F1203181F1E8946F936E7F6E5F98
:1023B0007F4F8F4F9F4FAF4FB1E03ED0B4E03CD046
:1023C000670F781F891F9A1FA11D680F791F8A1F29
:1023D000911DA11D6A0F711D811D911DA11D20D090
:1023E00009F468943F912AE0269F11243019305D4A
:1023F0003193DEF6CF010895462F4770405D41933B
:10240000B3E00FD0C9F7F6CF462F4F70405D4A3387
:1024100018F0495D31FD4052419302D0A9F7EACF4F
:10242000B4E0A6959795879577956795BA95C9F77E
:1024300000976105710508959B01AC010A2E069471
:102440005795479537952795BA95C9F7620F731F2A
:0C245000841F951FA01D0895F894FFCF75
:10245C0055CC0102010200640A05224E14314432AB
:10246C0012334234113541361842244C284C215237
:10247C0001C702D603E30400EE02F702FE020703D3
:10248C000E0316031D0300285078A0C8DCF0FAFCDC
:10249C00FE3F804E85311432B333B634D435E63634
:1024AC00E7428145E355574C0152042B202D020184
:1024BC006302E103E6048105D5064307C308F13046
:1024CC0077311432B333B634D435E636E737343893
:1024DC00F739F63531353100537461727420536815
:1024EC007574646F776E005B455D20465F43505595
:1024FC00206973206F7574206F662072616E67653A
:10250C00005B455D205345475F434F4D5F414E4F48
:10251C004445206973206F7574206F662072616E5C
:10252C006765005B455D205345475F5553455F54D8
:10253C0052206973206F7574206F662072616E670C
:10254C0065005B455D2053454E534F525F4D4150E6
:10255C002053697A65206973206F7574206F66202B
:10256C0072616E6765005B455D2053454E534F525B
:10257C005F5550206973206F7574206F66207261EF
:10258C006E6765005B455D2053454E534F525F446B
:10259C0057206973206F7574206F662072616E67A7
:1025AC0065005B455D204D6178206C656E677468D5
:1025BC00206F6620505245465F4D4F544E20697334
:1025CC00202564002573206973206F7574206F6655
:1025DC002072616E6765005B455D20554E55534515
:1025EC00445F535459206973206F7574206F6620B3
:1025FC0072616E6765005B455D20554152545F4CBE
:10260C004F47206973206F7574206F662072616E5E
:10261C00676500696E697444657628290A205665D9
:10262C0072322E300A2053746570733D25640A2073
:10263C0054696D6572303D25640A204F4B004D790D
:10264C005F43726D6E79004D795F654678004D7908
:10265C005F536C656570004D795F527673004D79F0
:10266C005F48696768004D795F4C6F77004D795F03
:10267C0054656D706F005361766520454550524F1F
:10268C004D203A2025733D256400537461727420EB
:10269C0063726D6E7928290057616B652055700047
:1026AC00496E746F20557365722053657474696E2E
:1026BC0067204D6F6465000A476561723D004500F7
:1026CC005200320033003400350036003700380039
:1026DC003900536C656570204D6F64650014000003
:1026EC0000320000006400000096000000C80000EA
:1026FC00002C01000090010000F4010000580200C1
:10270C0000E8030000D0070000C4090000B80B006B
:10271C000088130000204E0000402010040201002D
:00000001FF
