:1000000045C000003BC100005FC000005DC00000B3
:100010005BC0000059C0000057C0000055C0000080
:1000200053C0000051C000004FC000004DC0000090
:100030004BC0000049C0000047C0000045C00000A0
:10004000EDC0000041C000003FC000003DC0000006
:100050003BC0000039C0000037C0000035C00000C0
:1000600033C0000031C000002FC000002DC00000D0
:100070002BC0000029C0000027C0000025C00000E0
:1000800023C0000021C000001FC0000011241FBEBB
:10009000CFEFD0E1DEBFCDBF13E0A0E0B1E0E8E4F8
:1000A000F6E200E00BBF02C007900D92AE3BB10735
:1000B000D9F724E0AEEBB3E001C01D92A338B2073C
:1000C000E1F71AD00C9422139BCFCF93C82F8A301C
:1000D00011F48DE0FADF5D9BFECFCCB980E090E0BB
:1000E000CF9108951092900088E089B988E18AB98B
:1000F00086E0809395000895CF93DF93CDB7DEB768
:100100006D970FB6F894DEBF0FBECDBF8FEF87BBE4
:1001100018BA81BB12BA82B913B8809364001092E6
:10012000650044EF51E060E074E284EF90E084D138
:100130008111F7CFD7DF80E091E090938004809326
:100140007F0487E0E1E1F1E0DE01579601900D9236
:100150008A95E1F786E1E8E1F1E0DE011196019090
:100160000D928A95E1F781E08F938F938F938F9310
:100170001F921F9281E38F9387E08F931F9288E3F2
:100180008F931F9287E38F931F9282E68F931F9224
:1001900081E68F931F9285E38F931F9284E38F9361
:1001A0001F9289E38F931F928BE38F938AE3882EAC
:1001B000912C9E01295E3F4F590197E9C92E91E08C
:1001C000D92E24E0E22E03E02BE0AE014F5F5F4F1B
:1001D00061E081E094D20FB6F894DEBF0FBECDBFD0
:1001E0009091E703811108C0911101C0FFCF87EE04
:1001F00093E00E941A10FACF992331F087EE93E032
:100200000E941A101092E7030E94630D882329F0C0
:100210008091E7038823C1F3F1CFFFCF1F920F92A4
:100220000FB60F9211242F933F938F939F9380913A
:100230001F0482BF8091240490912504019690931D
:100240002504809324042091240430912504809176
:100250002004909121042817390738F010922504C2
:100260001092240481E0809323049F918F913F9109
:100270002F910F900FBE0F901F9018951F920F9205
:100280000FB60F9211248F93F89409B601FE08C09F
:1002900089B78D7F89BF80916A00837F80936A00D0
:1002A0008091D203813049F480916A008360809309
:1002B0006A0082E08093D2030BC080916A008C7F39
:1002C000826080936A0081E08093D2031092D10310
:1002D00078948F910F900FBE0F901F90189590916A
:1002E0001E04913009F48095611105C0E0917A04F3
:1002F000F0917B0480830895809172048330E0F450
:10030000809173048330D0F4809174048430C0F4FD
:10031000809175048230B0F480917604833FA0F41C
:10032000809177048852873D88F4809178048150C9
:10033000893070F087E0089581E0089582E00895A3
:1003400083E0089584E0089585E0089586E00895A7
:1003500080E00895CF92DF92EF92FF920F931F9368
:10036000CF93DF93863098F1682F70E06550710964
:10037000882777FD8095982F0E94190F20E030E0A4
:1003800040EC5FE30E94A50F6B017C01CBE7D3E05B
:100390000FE214E069917991899199910E94170F68
:1003A000A70196010E94830E20E030E040E85FE361
:1003B0000E941F0E0E94EB0EF801619371938193CE
:1003C00091938F01F3E0C73BDF0721F71EC0CBE716
:1003D000D3E00FE214E0C82ED12CE12CF12C2991AE
:1003E000399149915991A5E0B0E00E94050EA7010D
:1003F00096010E94E30DF8012193319341935193AB
:100400008F01F3E0C73BDF0751F7DF91CF911F91D9
:100410000F91FF90EF90DF90CF900895F89485E0D2
:1004200083BF87B7816087BF87B78D7F87BF809184
:100430001F0482BF78940895CF92DF92EF92FF92CB
:100440006B017C0180911F0481113DC050932104F8
:1004500040932004C114D104E104F10431F4C12C0F
:1004600084E2D82E84EFE82EF12CC701B60120E0FB
:1004700034E244EF50E00E94E30D220F822F880FF8
:10048000880F820F8F5F80937004C701B6010E94AE
:10049000170F2FE632E143E85AE30E94A50F20E050
:1004A00030E040E05CE30E94A50F9B01AC0160E0FE
:1004B00070E080E893E40E941E0E0E94EB0E6093B1
:1004C0001F04ACDF0DC080912304813049F4F894FF
:1004D00010922304109221041092200480E001C0A5
:1004E00081E0FF90EF90DF90CF90089580917C04A1
:1004F00020E1829FC00111248D6485BD87B78F7371
:1005000087BF14BC13BC84B7877F84BF2FE088E10A
:1005100090E00FB6F894A89581BD0FBE21BDF89468
:1005200081E08093D20392E090936A0089BF88BFF4
:1005300078940895CF9380911001882309F4A9C07D
:1005400090912304913009F0A6C010922304909159
:1005500072049130D1F4813009F07EC082E0809342
:10056000100188EE93E0909321048093200460E0D2
:100570008FEFB5DE80911B04813009F087C0E091D8
:100580002B04F0912C04108281C0923009F07EC0BF
:1005900020912004309121048130E9F5E0917A0422
:1005A000F0917B04C08140911B042436310579F021
:1005B00084E690E090932104809320044130E9F494
:1005C000E0912B04F0912C048EEF808316C0809173
:1005D0001E04813021F48C2F8095C82F01C08C2FF0
:1005E000CC0FC82B413051F4E0912B04F0912C0436
:1005F0008081880F8160808301C0C1E060E08C2F22
:100600006EDECF3F09F042C088EE93E09093210464
:100610008093200436C02832310581F088E290E0D2
:10062000909321048093200480911B04813031F445
:10063000E0912B04F0912C048FEF808380911001C6
:1006400090E060916F0470E09B01220F331F2F5FD9
:100650003F4F2817390764F41092100184E690E0A8
:10066000909321048093200460E080E038DE0EC087
:1006700001970E94D00D89549C4F60E0FC0180815D
:100680002EDE809110018F5F809310018091100108
:1006900003C080E001C081E0CF9108950F931F93C4
:1006A000CF93DF9380E090E00E946312813079F471
:1006B00002E714E0C0E0D0E02196CE010E94631270
:1006C000F80181938F01C730D105B1F713C061E004
:1006D00080E090E00E946B1202E714E0C0E0D0E0FE
:1006E000F80161918F012196CE010E946B12C730F3
:1006F000D105B1F7DF91CF911F910F9108952F92FE
:100700003F925F926F927F928F929F92AF92BF9231
:10071000CF92DF92EF92FF920F931F93CF93DF93CD
:10072000CDB7DEB72E970FB6F894DEBF0FBECDBFA4
:10073000182FF62EF5012EA03FA068A479A4A8A832
:10074000B9A858AC89AD813011F480931A041230E5
:1007500060F080911A04813031F46CE971E087EE29
:1007600093E00E94131080E074C1113011F41093D3
:100770001E0491E09F1538F480911A04813099F796
:100780006EEB71E0ECCF253638F080911A048130A1
:1007900051F76DED71E0E3CF053638F080911A0422
:1007A000813009F761E072E0DACF84E68E1538F423
:1007B00080911A048130B9F66FE172E0D0CF2093B6
:1007C0006D04D6010D900020E9F71197AC19BD0911
:1007D000A0936E0486E080936F04A53158F0809159
:1007E0001A04813009F0BFCF1F9284E18F938DE30B
:1007F00092E068C0D0926C04C0926B0450932704BE
:1008000040932604005D0093710480E38E0D809375
:100810002A048681811102C081E0868386818A3024
:1008200010F089E0868380818093720481818093B7
:10083000730482818093740483818093750484811E
:1008400024E630E0A901481B51090FEF049FC001C5
:10085000059F900D1124B9010E94D00D609376047C
:100860008581A901481B5109049FC001059F900D76
:100870001124B9010E94D00D609377048681809382
:10088000780481E08093790437DD882351F19EE07C
:10089000EEE2F1E0DE01119601900D929A95E1F7FA
:1008A00090911A04913009F05ECFFE013196E80F65
:1008B000F11DE80FF11D329781818F9380818F9315
:1008C0008FE592E09F938F9387EE93E09F938F93B2
:1008D0000E9447100F900F900F900F900F900F9065
:1008E00042CF9FA9923040F080911A04813009F0E4
:1008F0003ACF62E772E033CFE1E0E51540F4809152
:100900001A04813009F02FCF61E972E028CFF9ADE8
:10091000F23040F080911A04813009F024CF6DEA62
:1009200072E01DCFBBDE8091780414DD80B58B7F33
:1009300080BD8CA19DA19093290480932804F4018B
:100940001082EAA1FBA1008370922C0460922B0418
:1009500050921B04511006C0FFA9F11103C0F10110
:10096000108202C0F1010083F30100838CA59DA5D4
:1009700090937B0480937A048FEFEAA5FBA5808394
:1009800060E080E0ACDCEEA5FFA5208181E090E096
:100990000AA802C0880F991F0A94E2F7282B208327
:1009A000F5019081113031F4F11004C0982B90833F
:1009B00083E004C080958923808382E080937C0457
:1009C000EBA9FCA9408181E090E09C010DA802C048
:1009D000220F331F0A94E2F70EA802C0880F991F56
:1009E0000A94E2F7822B80958423808380911A04F5
:1009F0008130B9F480911F041F928F93809170040D
:100A00001F928F938AEC92E09F938F9387EE93E0EF
:100A10009F938F930E9447100FB6F894DEBF0FBECE
:100A2000CDBF8CE080936A0082E088BF89BF789454
:100A300080917204811108C01092100184E690E048
:100A4000909321048093200475DD8111FDCF4EDD4C
:100A500081E02E960FB6F894DEBF0FBECDBFDF91BA
:100A6000CF911F910F91FF90EF90DF90CF90BF90AB
:100A7000AF909F908F907F906F905F903F902F905E
:100A80000895CF92DF92EF92FF920F931F93CF932F
:100A9000DF93CDB7DEB72F970FB6F894DEBF0FBE4A
:100AA000CDBF7C018C01015011090830110508F0FF
:100AB000D9C0603219F0623009F0D4C0C8018E5834
:100AC0009B4F6C01FC018081603211F471E003C026
:100AD000882319F07FEF780F01C070E0970125504F
:100AE00031092230310508F05AC09BE0ECE3F1E017
:100AF000DE01119601900D929A95E1F7FE01319673
:100B000020E030E041918417C9F0841788F4E82F81
:100B1000F0E0DE01A20FB31F8C91DF01A81BB10929
:100B200050E04E1B5F0BA417B50744F4215006C0DC
:100B30002F5F3F4F2A30310529F72AE00430110595
:100B4000A1F4603241F4222309F490C0FE01E20FC7
:100B5000F11D708124C02A3009F48AC0FE01E20F21
:100B6000F11D7281713FD8F083C005301105B9F4D1
:100B7000603249F4222381F0FE01E20FF11D708101
:100B8000783268F409C02A3049F0FE01E20FF11D05
:100B900072817F3F21F402C078E201C07EEF023013
:100BA0001105B1F038F40115110571F0013011058E
:100BB00059F021C00630110599F00730110561F098
:100BC00003301105C1F408C07330A8F072E013C0FF
:100BD000743088F073E00FC0772369F071E00BC0C8
:100BE0007A3020F4711103C071E001C079E0872FE1
:100BF0007F87B0DB7F85F60170830730110531F008
:100C0000672FC7017F870E946B127F8580911A042E
:100C1000813051F58EE0EEE2F1E0DE0111960190B7
:100C20000D928A95E1F71F927F93F801EE0FFF1F57
:100C300081E090E08C0F9D1FE80FF91F81818F9359
:100C400080818F938DE293E09F938F9387EE93E063
:100C50009F938F930E9447100FB6F894DEBF0FBE8C
:100C6000CDBF02C080E006C081E004C070E097CF35
:100C700070EF95CF2F960FB6F894DEBF0FBECDBFA5
:100C8000DF91CF911F910F91FF90EF90DF90CF9068
:100C90000895CF93DF93982F823451F410921D045E
:100CA000E0916E04F0E0EE52FC4F808382E45AC083
:100CB00080911D048823A9F0813009F44AC08091F5
:100CC0007104981709F447C080912A04981709F411
:100CD00044C09C3409F443C0923509F042C082E517
:100CE00041C09C34F1F19235E1F19F33D1F1209173
:100CF0006E0430E0D901AE52BC4F8C91891791F14E
:100D00009E3429F0E4EDF3E0C3EDD3E016C0E3ED4B
:100D1000F3E0A0916B04B0916C04CF01835D93402C
:100D20008217930734F491918D919817B1F38EE463
:100D300019C081E080931D040CC0AF01435D534096
:100D4000421753071CF481918993F7CF9C93892F05
:100D500009C085E507C08BE205C08DE203C08CE4C5
:100D600001C08FE3DF91CF9108950F931F93CF932D
:100D7000DF93CDB7DEB7A4970FB6F894DEBF0FBEF2
:100D8000CDBF982F991F9927991F90931C048F7797
:100D900009F44DC040E050E0E0E0F0E0682F70E082
:100DA000DB010E2E02C0B595A7950A94E2F7A1705B
:100DB000BB274A0F5B1F3196E430F10589F74230BB
:100DC0005105BCF564FB222720F930E065FB0027C4
:100DD00000F910E0200F311FE6E076956795EA955F
:100DE000E1F7260F371F2130310519F54130510544
:100DF00001F560916D0470E0209126043091270484
:100E000040E050E0461757077CF4F9012E5F3F4F52
:100E1000D90112979C91981304C08181853451F0B7
:100E200004C04F5F5F4FEECF8FE333DF03C085E435
:100E300001C08FE394E2E7E4F1E0DE011196019056
:100E40000D929A95E1F7FE01319620E030E0908115
:100E500098130BC0F901EE0FFF1F81E090E08C0F9B
:100E60009D1FE80FF91F818107C02F5F3F4F32960A
:100E70002231310561F783EEA4960FB6F894DEBFF8
:100E80000FBECDBFDF91CF911F910F9108958F922B
:100E90009F92AF92BF92CF92DF92EF92FF920F9309
:100EA0001F93CF93DF93CDB7DEB7A4970FB6F89417
:100EB000DEBF0FBECDBF182F84E2EBE6F1E0DE010E
:100EC000119601900D928A95E1F74091CD035091D2
:100ED000CE036091CF037091D0034F5F5F4F6F4F90
:100EE0007F4F4093CD035093CE036093CF03709315
:100EF000D00380911D04823031F48091CC03855061
:100F0000823008F450C090911C048091CB03913042
:100F100019F40091770402C000917604801709F457
:100F200042C00093CB03802E912CB401882777FD1B
:100F30008095982F7ED76B017C01AA24AA94B12CAE
:100F4000A818B90880E58A9DB0018B9D700D112409
:100F5000882777FD8095982F6CD72AE037ED43E2FC
:100F60005CE3F3D79B01AC01C701B60168D633D768
:100F700060930F0181E28A9DB0018B9D700D112459
:100F8000882777FD8095982F54D72AE037ED43E2E4
:100F90005CE3DBD79B01AC01C701B60150D61BD780
:100FA00060930E0103BD90911D048091C9039111BE
:100FB000D2C030917304332309F4ECC12091CA03E9
:100FC000222309F4E7C140E8420F423008F4E2C1AD
:100FD000233E09F4DFC1211709F4DCC1103819F0F0
:100FE000153809F0D7C181110EC081E08093C90383
:100FF0001092CD031092CE031092CF031092D00323
:101000008091CB0383BD0091CA03053899F4809188
:10101000C803833561F48EE48093C80380911A0479
:10102000813029F461E473E087EE93E0FCD760E05F
:1010300085E89AC4313009F056C060E0802F4FD95E
:101040002091CB036091CD037091CE038091CF03AB
:101050009091D003293C98F420912F0430913004D2
:101060004091310450913204AED5672B682B692B27
:10107000C9F483B58E3FB0F483B58D5F12C0209163
:101080003B0430913C0440913D0450913E049BD57B
:10109000672B682B692B31F483B58E3F18F483B529
:1010A0008E5F83BD83B58E3F08F460C44091CD034D
:1010B0005091CE036091CF037091D003809157047B
:1010C00090915804A0915904B0915A04841795073F
:1010D000A607B70708F04AC48091CB0383BD60E040
:1010E0008091CA0334C0323009F040C46091CD030E
:1010F0007091CE038091CF039091D003C090630490
:10110000D0906404E0906504F09066046C157D0551
:101110008E059F05D0F420913F043091400440910A
:101120004104509142044FD5C0903704D090380408
:10113000E0903904F0903A04C616D706E806F9069E
:1011400008F010C460E080E00FC460E0802FC7D8D2
:101150001093CA031CC1913009F054C0882321F0B8
:101160008091CA03873509F182E58093C803809195
:101170001A04813029F469E473E087EE93E053D7D1
:1011800081E08093C9031092CD031092CE03109298
:10119000CF031092D0038093CC038A818093C7033E
:1011A0001093CA038091CB0383BD6091CD037091EE
:1011B000CE038091CF039091D003683B2BE0720760
:1011C0008105910570F428EE33E040E050E0FBD457
:1011D000613971408105910508F4B4CF60E087E57D
:1011E000C3C360E0812F7BD81092C9031092CD0356
:1011F0001092CE031092CF031092D00382E080931E
:101200001D04B4C3923009F0C5C0813009F466C032
:101210002091CA03203229F0223019F0233E09F030
:10122000B9C081115BC081E08093C9031092CD03E6
:101230001092CE031092CF031092D0031093CA03E2
:101240009091C60391114AC08093C6038091CC034C
:10125000612F90E016DC8130D9F583EE8093C503D1
:10126000E091CC03E83059F48091CA03803211F048
:10127000823029F460E080E032D880E088C38BEFD0
:101280008E0FF0E0823010F4319710C0EF58FB4F12
:10129000208130E0205D3F4FFE01319680E090E0FC
:1012A000408150E04217530769F4FC01EE0FFF1F25
:1012B00081E090E08C0F9D1FE80FF91F81818093E2
:1012C000C5030CC0019632968231910549F706C0DC
:1012D00083EE8093CA038093C50313EE8091C60307
:1012E000813071F08091CD039091CE03A091CF0316
:1012F000B091D003883E9340A105B10508F042C0EB
:101300008091CC039BEF980F923018F16091CD0340
:101310007091CE038091CF039091D003683E23E07B
:10132000720781059105F8F42CE231E040E050E0CD
:101330004AD42091C503663971058105910510F4E1
:10134000286001C0277F2093C50360E08091C5031A
:101350000BC3FE013196E80FF11DE80FF11D329726
:1013600060E0818102C060E0812F0E946F011092D5
:10137000C9031092CD031092CE031092CF031092A6
:10138000D003F4C260E08091C7030E946F01109205
:10139000C903ECC2813051F41092C9031092CD03FD
:1013A0001092CE031092CF031092D0030091CA0383
:1013B000011709F4D2C080911A04813009F05CC091
:1013C00091115AC00091C803033529F461E473E018
:1013D00087EE93E028D6153809F44EC0103809F48A
:1013E0004BC0033531F460E673E087EE93E010D62E
:1013F00005C061E673E087EE93E015D6143D79F100
:1014000088F4113819F138F4143119F1143391F5C5
:1014100065E773E02CC0133BF9F0163B59F56DE618
:1014200073E025C0173EF1F038F4133E61F0163E2C
:1014300009F561E773E01BC0163FB9F0173FD1F41F
:1014400067E773E014C067E673E011C069E673E014
:101450000EC06AE971E00BC06BE673E008C06FE68E
:1014600073E005C063E773E002C069E773E087EEED
:1014700093E0CED5109219048EE48093C8031093A4
:10148000CA031092C4031092C3031092C2031092B5
:10149000C1031092C0031092C6038091CB0383BD99
:1014A00080911D04811164C2103809F06EC285E874
:1014B00090911D04923009F046C0113019F014309B
:1014C000F1F50AC08091CC0381508093CC03811147
:1014D0000DC01093CC030AC08091CC038F5F809322
:1014E000CC03893018F088E08093CC03E091CC03E2
:1014F000DE01119680E090E02C912E130EC0DC01ED
:10150000AA0FBB1F81E090E08C0F9D1FA80FB91F91
:1015100011968C918093C70305C001961296823173
:10152000910551F78091C7039BEF9E0F923058F4BD
:10153000F0E0EF58FB4F90819093CB0304C0133E33
:1015400009F014C208C01092CD031092CE0310927D
:10155000CF031092D00360E007C28091C003909146
:10156000C103892B29F493B58091CB03981383BDD4
:1015700080911D04823009F096C0003821F00130BE
:1015800011F0043011F40091C7032091CC038BEFCC
:10159000820F823008F4E6C1283009F4E3C180915B
:1015A000C0039091C103019731F081E090E09093E6
:1015B000C1038093C0036091CD037091CE038091ED
:1015C000CF039091D0032730A1F52091570430919B
:1015D00058044091590450915A04F5D2C0905304D4
:1015E000D0905404E0905504F0905604C616D706E7
:1015F000E806F90608F04FC093B580910F019813E3
:1016000083BDE091CC03F0E0EF58FB4F208130E048
:10161000205D3F4FFE01319680E090E0408150E038
:101620004217530739F10196329682319105B1F78D
:1016300099C120ED37E040E050E0C5D2693E7340EB
:101640008105910540F193B580910F01981383BDF9
:10165000E091CC03F0E0EF58FB4F208130E0205DBB
:101660003F4FFE01319680E090E0408150E042170C
:10167000530759F4FC01EE0FFF1F81E090E08C0F3F
:101680009D1FE80FF91F01816DC1019632968231CD
:10169000910559F767C193B58091CB03981709F469
:1016A00061C183BD5FC1013809F03EC0209175045E
:1016B0006091CD037091CE038091CF039091D003C0
:1016C000211119C0209153043091540440915504C4
:1016D0005091560478D2C0904B04D0904C04E090C6
:1016E0004D04F0904E046C157D058E059F0508F4A1
:1016F00039C100E037C120914F043091500440912E
:101700005104509152045FD2C0904304D0904404DD
:10171000E0904504F09046046C157D058E059F050C
:1017200008F020C109E81EC1053809F0DBC040916E
:10173000CD035091CE036091CF037091D00380917F
:10174000670490916804A0916904B0916A048417B9
:101750009507A607B70708F0C5C08091C803833571
:1017600049F080911A04813029F468E073E087EE33
:1017700093E059D483E58093C80380917404813049
:10178000D1F54091C3035091C4034F5F5F4F509315
:10179000C4034093C30360E070E080915B049091C8
:1017A0005C04A0915D04B0915E0484179507A607C0
:1017B000B70708F0DBC00091C0031091C103F80126
:1017C000E954FC4F60E080810E946F010F5F1F4F62
:1017D0001093C1030093C00380916F0490E0081739
:1017E000190720F01092C1031092C0031092C40395
:1017F0001092C303BBC0823009F061C08091C00366
:101800009091C103892B31F481E090E09093C10362
:101810008093C0034091C3035091C4034F5F5F4F57
:101820005093C4034093C30360E070E08091370499
:1018300090913804A0913904B0913A048417950727
:10184000A607B70720F58091C00380FF0CC083B5C1
:10185000823D18F483B58E5F15C083B58F3F99F034
:1018600083B58F5F0FC08091C2038F5F8093C203E7
:1018700093B580910E01891730F483B5833D18F03C
:1018800083B5815083BD1092C4031092C30380912D
:10189000C0039091C10380FF05C023B52F3F09F01D
:1018A00065C005C02091C2032C3308F45FC00196C7
:1018B0009093C1038093C0031092C20357C083303A
:1018C00009F054C08091C0039091C103019709F4BD
:1018D0004DC081E090E09093C1038093C0038FEFEF
:1018E00083BD44C080917304813099F50538D1F1EE
:1018F000003821F0013011F0043021F485E88093A4
:10190000CA0305E86091CD037091CE038091CF03A7
:101910009091D003C0905304D0905404E0905504AB
:10192000F09056046C157D058E059F05D8F4209126
:101930003F0430914004409141045091420443D10E
:10194000C0903304D0903404E0903504F090360415
:10195000F3CB003809F46BCB013009F468CB0430C9
:1019600009F465CB60E0802F0E946F0181E00FC019
:10197000133E59F410921D04E0916E04F0E0EE5213
:10198000FC4F82E4808383EE93CD812F91CDA4968A
:101990000FB6F894DEBF0FBECDBFDF91CF911F9180
:1019A0000F91FF90EF90DF90CF90BF90AF909F90FE
:1019B0008F900895CF93DF93CDB7DEB728970FB6FA
:1019C000F894DEBF0FBECDBF88E0EFE8F1E0DE01A6
:1019D000119601900D928A95E1F7FE01319680E013
:1019E00090E0308120912204329632130BC0FC012A
:1019F000EE0FFF1F81E090E08C0F9D1FE80FF91F95
:101A0000818105C001968430910559F788E060E036
:101A10000E946F01809122048130F1F480911B04B7
:101A2000813031F4E0912B04F0912C048FEF80830E
:101A300013BCA89584B7877F84BF88E10FB6F8945C
:101A400081BD11BC0FBEF8948CE080936A0082E0E7
:101A500088BF89BF789419C0809122048430A8F08F
:101A6000109222048FEF83BDF89417BE13BE15BCED
:101A7000789485B7837E806185BF85B7806285BF96
:101A8000889585B78F7D85BF05C0809122048F5FC3
:101A90008093220428960FB6F894DEBF0FBECDBF08
:101AA000DF91CF91089580912204882341F08091A5
:101AB0002304813031F4109223047CDF02C080E0E3
:101AC000089581E00895809123048130A9F5109252
:101AD0002304A8958091D2038230C9F48091D10368
:101AE0008F5F8093D1038F3190F01092D1031092C9
:101AF000230484EF91E0909321048093200481E0FB
:101B000080932204D0DF8111FDCF80E00895E09121
:101B10002804F09129049081892F80958093BF0338
:101B200020911B04213029F4E0912B04F0912C0426
:101B300090831BD98093BE03809124049091250447
:101B40006091700470E018D0892B11F081E0089545
:101B50008091BE039CD98130C9F31092230484EF95
:101B600091E0909321048093200481E080932204EB
:101B70009ADF8111FDCFC9CFAA1BBB1B51E107C062
:101B8000AA1FBB1FA617B70710F0A61BB70B881F0D
:101B9000991F5A95A9F780959095BC01CD0108959C
:101BA00097FB072E16F4009406D077FD08D0E4DFEB
:101BB00007FC05D03EF4909581959F4F0895709550
:101BC00061957F4F0895A1E21A2EAA1BBB1BFD0150
:101BD0000DC0AA1FBB1FEE1FFF1FA217B307E4070C
:101BE000F50720F0A21BB30BE40BF50B661F771F64
:101BF000881F991F1A9469F7609570958095909544
:101C00009B01AC01BD01CF01089509D0A59F900DA6
:101C1000B49F900DA49F800D911D11240895A29F43
:101C2000B001B39FC001A39F700D811D1124911DB0
:101C3000B29F700D811D1124911D08955058BB272E
:101C4000AA270ED048C139D130F03ED120F031F46E
:101C50009F3F11F41EF42EC10EF4E095E7FB24C162
:101C6000E92F4AD180F3BA176207730784079507F3
:101C700018F071F49EF562C10EF4E0950B2EBA2FA8
:101C8000A02D0B01B90190010C01CA01A001112482
:101C9000FF27591B99F0593F50F4503E68F11A162E
:101CA000F040A22F232F342F4427585FF3CF4695BF
:101CB00037952795A795F0405395C9F77EF41F16E1
:101CC000BA0B620B730B840BBAF09150A1F0FF0FAB
:101CD000BB1F661F771F881FC2F70EC0BA0F621F97
:101CE000731F841F48F4879577956795B795F79587
:101CF0009E3F08F0B3CF9395880F08F09927EE0F19
:101D00009795879508950CD0E6C0DED040F0D5D0E9
:101D100030F021F45F3F19F0C7C0511110C1CAC0A3
:101D2000EBD098F39923C9F35523B1F3951B550BC9
:101D3000BB27AA2762177307840738F09F5F5F4F9E
:101D4000220F331F441FAA1FA9F333D00E2E3AF0DF
:101D5000E0E830D091505040E695001CCAF729D0F9
:101D6000FE2F27D0660F771F881FBB1F2617370748
:101D70004807AB07B0E809F0BB0B802DBF01FF2778
:101D800093585F4F2AF09E3F510568F08DC0D7C031
:101D90005F3FECF3983EDCF3869577956795B795B2
:101DA000F7959F5FC9F7880F911D9695879597F9CD
:101DB0000895E1E0660F771F881FBB1F6217730746
:101DC0008407BA0720F0621B730B840BBA0BEE1F5B
:101DD00088F7E095089598D088F09F5790F0B92F34
:101DE0009927B751A0F0D1F0660F771F881F991F70
:101DF0001AF0BA95C9F712C0B13081F09FD0B1E0A6
:101E000008959CC0672F782F8827B85F39F0B93FB5
:101E1000CCF3869577956795B395D9F73EF4909571
:101E20008095709561957F4F8F4F9F4F0895E894EF
:101E300009C097FB3EF490958095709561957F4F12
:101E40008F4F9F4F9923A9F0F92F96E9BB279395C0
:101E5000F695879577956795B795F111F8CFFAF4D0
:101E6000BB0F11F460FF1BC06F5F7F4F8F4F9F4F01
:101E700016C0882311F096E911C0772321F09EE85F
:101E8000872F762F05C0662371F096E8862F70E0C5
:101E900060E02AF09A95660F771F881FDAF7880F9F
:101EA0009695879597F9089597F99F6780E870E070
:101EB00060E008959FEF80EC089500240A941616C0
:101EC000170618060906089500240A941216130628
:101ED000140605060895092E0394000C11F48823B6
:101EE00052F0BB0F40F4BF2B11F460FF04C06F5FD2
:101EF0007F4F8F4F9F4F089557FD9058440F551FA8
:101F000059F05F3F71F04795880F97FB991F61F07B
:101F10009F3F79F087950895121613061406551FF2
:101F2000F2CF4695F1DF08C0161617061806991F5E
:101F3000F1CF86957105610508940895E894BB2753
:101F400066277727CB0197F908950BD0C4CFB5DF6B
:101F500028F0BADF18F0952309F0A6CFABCF1124F3
:101F6000EECFCADFA0F3959FD1F3950F50E0551F38
:101F7000629FF001729FBB27F00DB11D639FAA27DE
:101F8000F00DB11DAA1F649F6627B00DA11D661F2D
:101F9000829F2227B00DA11D621F739FB00DA11D4E
:101FA000621F839FA00D611D221F749F3327A00D08
:101FB000611D231F849F600D211D822F762F6A2FA4
:101FC00011249F5750408AF0E1F088234AF0EE0F29
:101FD000FF1FBB1F661F771F881F91505040A9F736
:101FE0009E3F510570F060CFAACF5F3FECF3983E63
:101FF000DCF3869577956795B795F795E7959F5F9D
:10200000C1F7FE2B880F911D9695879597F9089536
:10201000FB01DC010D900020E9F7119701900D9272
:102020000020E1F70895FB01DC0101900D920020F2
:10203000E1F708950F931F93CF93DF93E0917F040F
:10204000F0918004238121FF1BC0EC0100E010E02F
:10205000899160917F0470918004DB011896ED9165
:10206000FC911997882331F00995892B89F30FEF9B
:102070001FEFEECF8AE00995892B11F4C80102C049
:102080008FEF9FEFDF91CF911F910F9108950F93E5
:102090001F93CF93DF93CDB7DEB72E970FB6F8948B
:1020A000DEBF0FBECDBF0D891E8986E08C831A83EB
:1020B00009838FEF9FE79E838D83AE01475E5F4F5D
:1020C0006F89788DCE01019610D0EF81F885E00FF1
:1020D000F11F10822E960FB6F894DEBF0FBECDBF53
:1020E000DF91CF911F910F9108952F923F924F92C0
:1020F0005F926F927F928F929F92AF92BF92CF9298
:10210000DF92EF92FF920F931F93CF93DF93CDB7A0
:10211000DEB72C970FB6F894DEBF0FBECDBF7C01A3
:102120006B018A01FC0117821682838181FFB0C195
:10213000CE0101964C01F7019381F60193FD859143
:1021400093FF81916F01882309F49EC1853239F490
:1021500093FD859193FF81916F01853221F4B70141
:1021600090E0E0D1E8CF512C312C20E02032A0F4D7
:102170008B3269F030F4803259F0833269F4206197
:102180002CC08D3239F0803339F4216026C02260B2
:10219000246023C0286021C027FD27C030ED380F00
:1021A0003A3078F426FF06C0FAE05F9E300D112425
:1021B000532E13C08AE0389E300D1124332E206236
:1021C0000CC08E3221F426FD5FC1206406C08C361F
:1021D00011F4206802C0883641F4F60193FD859120
:1021E00093FF81916F018111C1CF982F9F7D9554ED
:1021F000933028F40C5F1F4FFFE3F9830DC0833643
:1022000031F0833771F0833509F057C021C0F801F0
:10221000808189830E5F1F4F44244394512C5401C5
:1022200014C03801F2E06F0E711CF801A080B1807B
:1022300026FF03C0652D70E002C06FEF7FEFC50180
:102240002C8765D12C0183012C852F77222E16C077
:102250003801F2E06F0E711CF801A080B18026FFFA
:1022600003C0652D70E002C06FEF7FEFC5012C87C2
:1022700043D12C012C852068222E830123FC19C018
:10228000832D90E048165906A0F4B70180E290E053
:1022900049D13A94F5CFF50127FC859127FE81912C
:1022A0005F01B70190E03ED131103A94F1E04F1A4E
:1022B00051084114510479F7DEC0843611F0893693
:1022C00031F5F80127FF07C0608171818281938118
:1022D0000C5F1F4F08C060817181882777FD809552
:1022E000982F0E5F1F4F2F76B22E97FF09C0909543
:1022F0008095709561957F4F8F4F9F4F2068B22ECC
:102300002AE030E0A40140D1A82EA81843C08537A8
:1023100029F42F7EB22E2AE030E025C0F22FF97F7B
:10232000BF2E8F36C1F018F4883579F0ADC08037F4
:1023300019F0883721F0A8C02F2F2061B22EB4FEEB
:102340000DC08B2D8460B82E09C024FF0AC09F2FBA
:102350009660B92E06C028E030E005C020E130E0EC
:1023600002C020E132E0F801B7FE07C06081718150
:10237000828193810C5F1F4F06C06081718180E074
:1023800090E00E5F1F4FA401FFD0A82EA818FB2DD0
:10239000FF77BF2EB6FE0BC02B2D2E7FA51450F459
:1023A000B4FE0AC0B2FC08C02B2D2E7E05C07A2CCC
:1023B0002B2D03C07A2C01C0752C24FF0DC0FE010B
:1023C000EA0DF11D8081803311F4297E09C022FFBE
:1023D00006C07394739404C0822F867809F07394B6
:1023E00023FD12C020FF06C05A2C731418F4530C9E
:1023F0005718732C731460F4B70180E290E02C87B7
:1024000091D073942C85F6CF731410F4371801C053
:10241000312C24FF11C0B70180E390E02C8782D0DB
:102420002C8522FF16C021FF03C088E590E002C082
:1024300088E790E0B7010CC0822F867851F021FD2B
:1024400002C080E201C08BE227FD8DE2B70190E07F
:1024500069D0A51430F4B70180E390E063D05A94BA
:10246000F8CFAA94F401EA0DF11D8081B70190E044
:1024700059D0A110F6CF332009F45DCEB70180E228
:1024800090E050D03A94F7CFF7018681978102C04F
:102490008FEF9FEF2C960FB6F894DEBF0FBECDBF27
:1024A000DF91CF911F910F91FF90EF90DF90CF9030
:1024B000BF90AF909F908F907F906F905F904F9064
:1024C0003F902F900895E199FECF9FBB8EBBE09A7D
:1024D00099278DB30895262FE199FECF9FBB8EBB20
:1024E000E09A01970DB2021631F02DBB0FB6F894A9
:1024F000E29AE19A0FBE0895FC0105906150704088
:102500000110D8F7809590958E0F9F1F0895FC01BC
:102510006150704001900110D8F7809590958E0F12
:102520009F1F08950F931F93CF93DF93182F092FA9
:10253000EB018B8181FD03C08FEF9FEF20C082FFF5
:1025400010C04E815F812C813D81421753077CF47E
:10255000E881F9819F012F5F3F4F398328831083E2
:1025600006C0E885F985812F0995892B29F72E81E9
:102570003F812F5F3F4F3F832E83812F902FDF912D
:10258000CF911F910F910895FA01AA27283051F198
:10259000203181F1E8946F936E7F6E5F7F4F8F4F94
:1025A0009F4FAF4FB1E03ED0B4E03CD0670F781FF3
:1025B000891F9A1FA11D680F791F8A1F911DA11DD8
:1025C0006A0F711D811D911DA11D20D009F4689411
:1025D0003F912AE0269F11243019305D3193DEF6B9
:1025E000CF010895462F4770405D4193B3E00FD06F
:1025F000C9F7F6CF462F4F70405D4A3318F0495D5A
:1026000031FD4052419302D0A9F7EACFB4E0A6953C
:102610009795879577956795BA95C9F7009761055E
:10262000710508959B01AC010A2E069457954795B4
:1026300037952795BA95C9F7620F731F841F951FA9
:08264000A01D0895F894FFCFDE
:10264800000000020000000065000000000055CCFA
:102658000102010200640A05224E14314432123389
:102668004234113541361842244C284C2152F50287
:10267800FE0205030E0315031D03240300285078EA
:10268800A0C8DCF0FAFCFE3F804C0152044E8531B4
:102698001432B333B634D435E636E742812B202DD5
:1026A800025557373438F739F645E3016302E10339
:1026B800E6048105D5064307C308F13077311432A3
:1026C800B333B634D435E636E7373438F739F6015C
:1026D800C702D603E3040035313531005B455D2080
:1026E8005345475F434F4D5F414E4F444520697303
:1026F800206F7574206F662072616E6765005B4598
:102708005D205345475F5553455F545220697320F8
:102718006F7574206F662072616E6765005B455D3A
:102728002053454E534F525F4D41502053697A65AF
:10273800206973206F7574206F662072616E6765FB
:10274800005B455D2053454E534F525F55502069FD
:1027580073206F7574206F662072616E6765005B09
:10276800455D2053454E534F525F445720697320AF
:102778006F7574206F662072616E6765005B455DDA
:10278800204D6178206C656E677468206F662050F4
:102798005245465F4D4F544E2069732025640025ED
:1027A80073206973206F7574206F662072616E677D
:1027B80065005B455D20554E555345445F5354595C
:1027C800206973206F7574206F662072616E67656B
:1027D800005B455D205553455F4C45442069732097
:1027E8006F7574206F662072616E6765005B455D6A
:1027F80020554152545F4C4F47206973206F7574C0
:10280800206F662072616E676500696E6974446541
:102818007628290A20566572322E320A20537465AA
:1028280070733D25640A2054696D6572303D2564D6
:102838000A204F4B004D795F43726D6E79004D79D8
:102848005F654678004D795F536C656570004D791A
:102858005F527673004D795F48696768004D795F0C
:102868004C6F77004D795F54656D706F00536176DA
:102878006520454550524F4D203A2025733D25642B
:102888000057616B6520557000496E746F20557351
:1028980065722053657474696E67204D6F646500B6
:1028A8000A476561723D004500520032003300342A
:1028B80000350036003700380039001400000032B7
:1028C8000000006400000096000000C80000002C12
:1028D80001000090010000F401000058020000E827
:1028E800030000D0070000C4090000B80B000088EE
:0E28F800130000204E000040201004020100DA
:00000001FF
