:1000000045C0000007C100005FC000005DC00000E7
:100010005BC0000059C0000057C0000055C0000080
:1000200053C0000051C000004FC000004DC0000090
:100030004BC0000049C0000047C0000045C00000A0
:10004000B9C0000041C000003FC000003DC000003A
:100050003BC0000039C0000037C0000035C00000C0
:1000600033C0000031C000002FC000002DC00000D0
:100070002BC0000029C0000027C0000025C00000E0
:1000800023C0000021C000001FC0000011241FBEBB
:10009000CFEFD0E1DEBFCDBF13E0A0E0B1E0E6E8F6
:1000A000F5E200E00BBF02C007900D92A03BB10744
:1000B000D9F724E0A0EBB3E001C01D92AF36B20740
:1000C000E1F703D00C94C1129BCFCF93DF93CDB750
:1000D000DEB76D970FB6F894DEBF0FBECDBF8FEFC2
:1000E00087BB18BA81BB12BA82B913B88093640077
:1000F0001092650044EF51E060E074E284EF90E01C
:1001000067D18111F7CF87E0E3E0F1E0DE01579698
:1001100001900D928A95E1F786E1EAE0F1E0DE01D7
:10012000119601900D928A95E1F71F9281E08F93CD
:100130008F938F931F921F9281E38F9387E08F930A
:100140001F9288E38F931F9287E38F931F9282E61B
:100150008F931F9281E68F931F9285E38F931F9257
:1001600084E38F931F9289E38F931F928BE38F9386
:100170008AE3882E912C9E01295E3F4F590199E810
:10018000C92E91E0D92E24E0E22E03E02BE0AE014F
:100190004F5F5F4F61E081E07ED20FB6F894DEBF23
:1001A0000FBECDBF811101C0FFCF0E942F0D811165
:1001B000FCCFFFCF1F920F920FB60F9211242F93F7
:1001C0003F938F939F938091110482BF8091160477
:1001D0009091170401969093170480931604209130
:1001E000160430911704809112049091130428177B
:1001F000390738F0109217041092160481E08093AA
:1002000015049F918F913F912F910F900FBE0F90EA
:100210001F9018951F920F920FB60F9211248F9373
:10022000F89409B601FE08C089B78D7F89BF809117
:100230006A00837F80936A008091C403813049F40F
:1002400080916A00836080936A0082E08093C40397
:100250000BC080916A008C7F826080936A0081E08D
:100260008093C4031092C30378948F910F900FBEB4
:100270000F901F90189590911004913009F480957B
:10028000611105C0E0916C04F0916D0480830895C4
:10029000809164048330E0F4809165048330D0F46D
:1002A000809166048430C0F4809167048230B0F499
:1002B00080916804833FA0F4809169048852873D4F
:1002C00088F480916A048150893070F087E0089545
:1002D00081E0089582E0089583E0089584E0089520
:1002E00085E0089586E0089580E00895CF92DF923A
:1002F000EF92FF920F931F93CF93DF93863098F185
:10030000682F70E065507109882777FD8095982FD8
:100310000E94E50E20E030E040EC5FE30E94710FA8
:100320006B017C01CDE6D3E001E214E069917991A3
:10033000899199910E94E30EA70196010E944F0EA8
:1003400020E030E040E85FE30E94EB0D0E94B70E32
:10035000F80161937193819391938F01F3E0C93A0E
:10036000DF0721F71EC0CDE6D3E001E214E0C82E7E
:10037000D12CE12CF12C2991399149915991A5E089
:10038000B0E00E94D10DA70196010E94AF0DF801C7
:1003900021933193419351938F01F3E0C93ADF07E1
:1003A00051F7DF91CF911F910F91FF90EF90DF9068
:1003B000CF900895F89485E083BF87B7816087BFA9
:1003C00087B78D7F87BF8091110482BF789408958D
:1003D000CF92DF92EF92FF926B017C01809111042A
:1003E00081113DC05093130440931204C114D104F1
:1003F000E104F10431F4C12C84E2D82E84EFE82E1C
:10040000F12CC701B60120E034E244EF50E00E9435
:10041000AF0D220F822F880F880F820F8F5F80937E
:100420006204C701B6010E94E30E2FE632E143E801
:100430005AE30E94710F20E030E040E05CE30E944C
:10044000710F9B01AC0160E070E080E893E40E94D2
:10045000EA0D0E94B70E60931104ACDF0DC08091CD
:100460001504813049F4F894109215041092130485
:100470001092120480E001C081E0FF90EF90DF90C5
:10048000CF90089580916E0420E1829FC0011124D5
:100490008D6485BD87B78F7387BF14BC13BC84B7C9
:1004A000877F84BF2FE088E190E00FB6F894A8958D
:1004B00081BD0FBE21BDF89481E08093C40392E01A
:1004C00090936A0089BF88BF78940895CF938091F4
:1004D0000201882309F4A9C090911504913009F014
:1004E000A6C010921504909164049130D1F481302B
:1004F00009F07EC082E08093020188EE93E0909341
:1005000013048093120460E08FEFB5DE80910D0438
:10051000813009F087C0E0911D04F0911E04108223
:1005200081C0923009F07EC02091120430911304F2
:100530008130E9F5E0916C04F0916D04C081409147
:100540000D042436310579F084E690E0909313048D
:10055000809312044130E9F4E0911D04F0911E04EF
:100560008EEF808316C080911004813021F48C2F8F
:100570008095C82F01C08C2FCC0FC82B413051F46F
:10058000E0911D04F0911E048081880F81608083BA
:1005900001C0C1E060E08C2F6EDECF3F09F042C0A9
:1005A00088EE93E0909313048093120436C02832AF
:1005B000310581F088E290E0909313048093120457
:1005C00080910D04813031F4E0911D04F0911E04FE
:1005D0008FEF80838091020190E06091610470E070
:1005E0009B01220F331F2F5F3F4F2817390764F4F9
:1005F0001092020184E690E0909313048093120419
:1006000060E080E038DE0EC001970E949C0D8755A7
:100610009C4F60E0FC0180812EDE809102018F5FA3
:10062000809302018091020103C080E001C081E05B
:10063000CF9108950F931F93CF93DF9380E090E0C5
:100640000E940212813079F404E614E0C0E0D0E0A8
:100650002196CE010E940212F80181938F01C730CA
:10066000D105B1F713C061E080E090E00E940A126A
:1006700004E614E0C0E0D0E0F80161918F0121961A
:10068000CE010E940A12C730D105B1F7DF91CF9198
:100690001F910F9108952F923F925F926F927F92D8
:1006A0008F929F92AF92BF92CF92DF92EF92FF9282
:1006B0000F931F93CF93DF93CDB7DEB72E970FB66F
:1006C000F894DEBF0FBECDBF182FF62EF5012EA079
:1006D0003FA068A479A4A8A8B9A858AC89AD813076
:1006E00011F480930C04123060F080910C0481307E
:1006F00031F46EE871E089ED93E00E94DF0F80E055
:1007000074C1113011F41093100491E09F1538F466
:1007100080910C04813099F760EB71E0ECCF2536C5
:1007200038F080910C04813051F76FEC71E0E3CF29
:10073000053638F080910C04813009F763EF71E0E1
:10074000DACF84E68E1538F480910C048130B9F646
:1007500061E172E0D0CF20935F04D6010D900020BC
:10076000E9F71197AC19BD09A093600486E0809366
:100770006104A53158F080910C04813009F0BFCF9D
:100780001F9284E18F938FE292E068C0D0925E0462
:10079000C0925D045093190440931804005D0093C7
:1007A000630480E38E0D80931C048681811102C056
:1007B00081E0868386818A3010F089E0868380819B
:1007C00080936404818180936504828180936604B0
:1007D000838180936704848124E630E0A901481B6B
:1007E00051090FEF049FC001059F900D1124B9011D
:1007F0000E949C0D609368048581A901481B5109E2
:10080000049FC001059F900D1124B9010E949C0D09
:1008100060936904868180936A0481E080936B040D
:1008200037DD882351F19EE0E0E2F1E0DE01119630
:1008300001900D929A95E1F790910C04913009F096
:100840005ECFFE013196E80FF11DE80FF11D3297E2
:1008500081818F9380818F9381E592E09F938F9325
:1008600089ED93E09F938F930E94E60F0F900F9076
:100870000F900F900F900F9042CF9FA9923040F0B1
:1008800080910C04813009F03ACF64E672E033CFF6
:10089000E1E0E51540F480910C04813009F02FCFA0
:1008A00063E872E028CFF9ADF23040F080910C049B
:1008B000813009F024CF6FE972E01DCFBBDE80915B
:1008C0006A0414DD80B58B7F80BD8CA19DA19093BF
:1008D0001B0480931A04F4011082EAA1FBA1008397
:1008E00070921E0460921D0450920D04511006C0B7
:1008F000FFA9F11103C0F101108202C0F1010083D0
:10090000F30100838CA59DA590936D0480936C04E6
:100910008FEFEAA5FBA5808360E080E0ACDCEEA56C
:10092000FFA5208181E090E00AA802C0880F991FEE
:100930000A94E2F7282B2083F5019081113031F4DD
:10094000F11004C0982B908383E004C08095892324
:10095000808382E080936E04EBA9FCA9408181E052
:1009600090E09C010DA802C0220F331F0A94E2F709
:100970000EA802C0880F991F0A94E2F7822B809577
:100980008423808380910C048130B9F48091110418
:100990001F928F93809162041F928F938CEB92E051
:1009A0009F938F9389ED93E09F938F930E94E60F1F
:1009B0000FB6F894DEBF0FBECDBF8CE080936A0007
:1009C00082E088BF89BF789480916404811108C057
:1009D0001092020184E690E0909313048093120435
:1009E00075DD8111FDCF4EDD81E02E960FB6F894B6
:1009F000DEBF0FBECDBFDF91CF911F910F91FF9052
:100A0000EF90DF90CF90BF90AF909F908F907F90AE
:100A10006F905F903F902F900895CF92DF92EF926A
:100A2000FF920F931F93CF93DF93CDB7DEB72F972E
:100A30000FB6F894DEBF0FBECDBF7C018C01015014
:100A400011090830110508F0D9C0603219F0623080
:100A500009F0D4C0C8018C599B4F6C01FC01808106
:100A6000603211F471E003C0882319F07FEF780F32
:100A700001C070E09701255031092230310508F09E
:100A80005AC09BE0EEE2F1E0DE01119601900D927A
:100A90009A95E1F7FE01319620E030E0419184170C
:100AA000C9F0841788F4E82FF0E0DE01A20FB31F2D
:100AB0008C91DF01A81BB10950E04E1B5F0BA417FE
:100AC000B50744F4215006C02F5F3F4F2A3031054F
:100AD00029F72AE004301105A1F4603241F4222301
:100AE00009F490C0FE01E20FF11D708124C02A308C
:100AF00009F48AC0FE01E20FF11D7281713FD8F046
:100B000083C005301105B9F4603249F4222381F025
:100B1000FE01E20FF11D7081783268F409C02A30BD
:100B200049F0FE01E20FF11D72817F3F21F402C006
:100B300078E201C07EEF02301105B1F038F4011502
:100B4000110571F00130110559F021C00630110571
:100B500099F00730110561F003301105C1F408C0A8
:100B60007330A8F072E013C0743088F073E00FC0E7
:100B7000772369F071E00BC07A3020F4711103C063
:100B800071E001C079E0872F7F87B0DB7F85F601B8
:100B900070830730110531F0672FC7017F870E94EE
:100BA0000A127F8580910C04813051F58EE0E0E2DD
:100BB000F1E0DE01119601900D928A95E1F71F9206
:100BC0007F93F801EE0FFF1F81E090E08C0F9D1FD7
:100BD000E80FF91F81818F9380818F938FE193E0DC
:100BE0009F938F9389ED93E09F938F930E94E60FDD
:100BF0000FB6F894DEBF0FBECDBF02C080E006C0C6
:100C000081E004C070E097CF70EF95CF2F960FB6BC
:100C1000F894DEBF0FBECDBFDF91CF911F910F9132
:100C2000FF90EF90DF90CF900895CF93DF93982FB0
:100C3000823451F410920F04E0916004F0E0EC5320
:100C4000FC4F808382E45AC080910F048823A9F06E
:100C5000813009F44AC080916304981709F447C0B1
:100C600080911C04981709F444C09C3409F443C0D3
:100C7000923509F042C082E541C09C34F1F19235D1
:100C8000E1F19F33D1F12091600430E0D901AC5300
:100C9000BC4F8C91891791F19E3429F0E6ECF3E07A
:100CA000C5ECD3E016C0E5ECF3E0A0915D04B09193
:100CB0005E04CF01855C93408217930734F49191D1
:100CC0008D919817B1F38EE419C081E080930F04E1
:100CD0000CC0AF01455C5340421753071CF481918F
:100CE0008993F7CF9C93892F09C085E507C08BE2D4
:100CF00005C08DE203C08CE401C08FE3DF91CF918A
:100D000008950F931F93CF93DF93CDB7DEB7A497CA
:100D10000FB6F894DEBF0FBECDBF982F991F99274D
:100D2000991F90930E048F7709F44DC040E050E076
:100D3000E0E0F0E0682F70E0DB010E2E02C0B59518
:100D4000A7950A94E2F7A170BB274A0F5B1F319663
:100D5000E430F10589F742305105BCF564FB2227E8
:100D600020F930E065FB002700F910E0200F311F6B
:100D7000E6E076956795EA95E1F7260F371F213073
:100D8000310519F54130510501F560915F0470E0BE
:100D9000209118043091190440E050E0461757079D
:100DA0007CF4F9012E5F3F4FD90112979C91981363
:100DB00004C08181853451F004C04F5F5F4FEECF96
:100DC0008FE333DF03C085E401C08FE394E2E9E3FE
:100DD000F1E0DE01119601900D929A95E1F7FE0186
:100DE000319620E030E0908198130BC0F901EE0FAE
:100DF000FF1F81E090E08C0F9D1FE80FF91F81819C
:100E000007C02F5F3F4F32962231310561F783EEE5
:100E1000A4960FB6F894DEBF0FBECDBFDF91CF9181
:100E20001F910F9108958F929F92AF92BF92CF9290
:100E3000DF92EF92FF920F931F93CF93DF93CDB783
:100E4000DEB7A4970FB6F894DEBF0FBECDBF182F44
:100E500084E2EDE5F1E0DE01119601900D928A95B4
:100E6000E1F74091BF035091C0036091C1037091BD
:100E7000C2034F5F5F4F6F4F7F4F4093BF0350934D
:100E8000C0036093C1037093C20380910F0482304A
:100E900031F48091BE038550823008F450C09091A7
:100EA0000E048091BD03913019F40091690402C0D1
:100EB00000916804801709F442C00093BD03802E9E
:100EC000912CB401882777FD8095982F7ED76B01F0
:100ED0007C01AA24AA94B12CA818B90880E58A9D9F
:100EE000B0018B9D700D1124882777FD8095982F78
:100EF0006CD72AE037ED43E25CE3F3D79B01AC010A
:100F0000C701B60168D633D76093010181E28A9D9B
:100F1000B0018B9D700D1124882777FD8095982F47
:100F200054D72AE037ED43E25CE3DBD79B01AC0109
:100F3000C701B60150D61BD76093000103BD909145
:100F40000F048091BB039111D8C030916504332305
:100F500009F4F2C12091BC03222309F4EDC140E859
:100F6000420F423008F4E8C1233E09F4E5C12117DD
:100F700009F4E2C1103819F0153809F0DDC181110A
:100F80000EC081E08093BB031092BF031092C00398
:100F90001092C1031092C2038091BD0383BD0091E2
:100FA000BC03053899F48091BA03833561F48EE46B
:100FB0008093BA0380910C04813029F463E373E0D9
:100FC00089ED93E0FCD760E085E89AC4313009F000
:100FD0005CC060E0802F4FD92091BD036091BF03BA
:100FE0007091C0038091C1039091C203233DC8F466
:100FF0002091250430912604409127045091280423
:10100000AED5672B682B692BF9F483B5823D18F4B4
:1010100083B58D5F18C083B58E3FB0F483B58E5F06
:1010200012C02091290430912A0440912B04509140
:101030002C0495D5672B682B692B31F483B58F3F32
:1010400019F083B58F5F83BD83B58E3F08F45AC412
:101050004091BF035091C0036091C1037091C203DE
:101060008091490490914A04A0914B04B0914C04A2
:1010700084179507A607B70708F044C48091BD03FD
:1010800083BD60E08091BC0334C0323009F03AC4C3
:101090006091BF037091C0038091C1039091C2031E
:1010A000C0905504D0905604E0905704F090580436
:1010B0006C157D058E059F05D0F42091310430918B
:1010C0003204409133045091340449D5C09029042E
:1010D000D0902A04E0902B04F0902C04C616D7067A
:1010E000E806F90608F00AC460E080E009C460E0A0
:1010F000802FC1D81093BC031CC1913009F054C09B
:10110000882321F08091BC03873509F182E5809323
:10111000BA0380910C04813029F46BE373E089ED0C
:1011200093E04DD781E08093BB031092BF031092F0
:10113000C0031092C1031092C2038093BE038A8140
:101140008093B9031093BC038091BD0383BD60916C
:10115000BF037091C0038091C1039091C203683BAB
:101160002BE072078105910570F428EE33E040E032
:1011700050E0F5D4613971408105910508F4B4CF90
:1011800060E087E5BDC360E0812F75D81092BB0396
:101190001092BF031092C0031092C1031092C203B9
:1011A00082E080930F04AEC3923009F0C5C0813055
:1011B00009F466C02091BC03203229F0223019F0D6
:1011C000233E09F0B9C081115BC081E08093BB036D
:1011D0001092BF031092C0031092C1031092C20379
:1011E0001093BC039091B80391114AC08093B80347
:1011F0008091BE03612F90E010DC8130D9F583EE41
:101200008093B703E091BE03E83059F48091BC03AA
:10121000803211F0823029F460E080E02CD880E048
:1012200082C38BEF8E0FF0E0823010F4319710C044
:10123000ED59FB4F208130E0205D3F4FFE0131969C
:1012400080E090E0408150E04217530769F4FC01D0
:10125000EE0FFF1F81E090E08C0F9D1FE80FF91F3C
:1012600081818093B7030CC001963296823191053B
:1012700049F706C083EE8093BC038093B70313EE57
:101280008091B803813071F08091BF039091C003C9
:10129000A091C103B091C203883E9340A105B1055E
:1012A00008F042C08091BE039BEF980F923018F176
:1012B0006091BF037091C0038091C1039091C203FC
:1012C000683E23E0720781059105F8F42CE231E0D5
:1012D00040E050E044D42091B703663971058105A0
:1012E000910510F4286001C0277F2093B70360E0C8
:1012F0008091B70305C3FE013196E80FF11DE80F99
:10130000F11D329760E0818102C060E0812F0E9470
:101310003B011092BB031092BF031092C0031092C6
:10132000C1031092C203EEC260E08091B9030E9433
:101330003B011092BB03E6C2813051F41092BB0313
:101340001092BF031092C0031092C1031092C20307
:101350000091BC03011709F4D2C080910C048130C4
:1013600009F05CC091115AC00091BA03033529F409
:1013700063E373E089ED93E022D6153809F44EC09B
:10138000103809F44BC0033531F462E573E089EDA0
:1013900093E00AD605C063E573E089ED93E00FD6CC
:1013A000143D79F188F4113819F138F4143119F138
:1013B000143391F567E673E02CC0133BF9F0163B4C
:1013C00059F56FE573E025C0173EF1F038F4133E90
:1013D00061F0163E09F563E673E01BC0163FB9F0F5
:1013E000173FD1F469E673E014C069E573E011C0FA
:1013F0006BE573E00EC06CE871E00BC06DE573E067
:1014000008C061E673E005C065E673E002C06BE604
:1014100073E089ED93E0C8D510920B048EE48093BD
:10142000BA031093BC031092B6031092B503109246
:10143000B4031092B3031092B2031092B8038091D8
:10144000BD0383BD80910F0481115EC2103809F085
:1014500068C285E890910F04923009F046C01130BF
:1014600019F01430F1F50AC08091BE0381508093C9
:10147000BE0381110DC01093BE030AC08091BE034C
:101480008F5F8093BE03893018F088E08093BE039D
:10149000E091BE03DE01119680E090E02C912E13C6
:1014A0000EC0DC01AA0FBB1F81E090E08C0F9D1FD6
:1014B000A80FB91F11968C918093B90305C00196AE
:1014C00012968231910551F78091B9039BEF9E0FDF
:1014D000923058F4F0E0ED59FB4F90819093BD03AA
:1014E00004C0133E09F00EC208C01092BF03109250
:1014F000C0031092C1031092C20360E001C2809148
:10150000B2039091B303892B29F493B58091BD0365
:10151000981383BD80910F04823009F096C0003883
:1015200021F0013011F0043011F40091B903209141
:10153000BE038BEF820F823008F4E0C1283009F43B
:10154000DDC18091B2039091B303019731F081E046
:1015500090E09093B3038093B2036091BF037091C6
:10156000C0038091C1039091C2032730A1F520915F
:10157000490430914A0440914B0450914C04EFD2FD
:10158000C0904504D0904604E0904704F090480491
:10159000C616D706E806F90608F04FC093B5809145
:1015A0000101981383BDE091BE03F0E0ED59FB4FBC
:1015B000208130E0205D3F4FFE01319680E090E0D9
:1015C000408150E04217530739F10196329682313B
:1015D0009105B1F793C120ED37E040E050E0BFD274
:1015E000693E73408105910540F193B580910101F9
:1015F000981383BDE091BE03F0E0ED59FB4F2081CD
:1016000030E0205D3F4FFE01319680E090E0408168
:1016100050E04217530759F4FC01EE0FFF1F81E021
:1016200090E08C0F9D1FE80FF91F018167C10196A3
:1016300032968231910559F761C193B58091BD030E
:10164000981709F45BC183BD59C1013809F03EC048
:10165000209167046091BF037091C0038091C10322
:101660009091C203211119C0209145043091460484
:10167000409147045091480472D2C0903D04D090EC
:101680003E04E0903F04F09040046C157D058E050B
:101690009F0508F433C100E031C12091410430912D
:1016A0004204409143045091440459D2C0903504FF
:1016B000D0903604E0903704F09038046C157D0526
:1016C0008E059F0508F01AC109E818C1053809F010
:1016D000D5C04091BF035091C0036091C103709188
:1016E000C2038091590490915A04A0915B04B09177
:1016F0005C0484179507A607B70708F0BFC0809160
:10170000BA03833549F080910C04813029F46AEFE3
:1017100072E089ED93E053D483E58093BA0380911E
:1017200066048130D1F54091B5035091B6034F5F07
:101730005F4F5093B6034093B50360E070E0809133
:101740004D0490914E04A0914F04B0915004841721
:101750009507A607B70708F0D5C00091B20310910E
:10176000B303F801E755FC4F60E080810E943B0124
:101770000F5F1F4F1093B3030093B2038091610476
:1017800090E00817190720F01092B3031092B203EB
:101790001092B6031092B503B5C0823009F05BC059
:1017A0008091B2039091B303892B31F481E090E0F2
:1017B0009093B3038093B2034091B5035091B60365
:1017C0004F5F5F4F5093B6034093B50360E070E006
:1017D0008091290490912A04A0912B04B0912C04AB
:1017E00084179507A607B707F0F48091B20380FF2E
:1017F00006C083B58E3F98F483B58E5F0FC080918D
:10180000B4038F5F8093B40393B58091000189176F
:1018100030F483B5833D18F083B5815083BD1092B9
:10182000B6031092B5038091B2039091B30380FF89
:1018300005C023B52E3F08F465C005C02091B40350
:101840002C3308F45FC001969093B3038093B203E6
:101850001092B40357C0833009F054C08091B20392
:101860009091B303019709F44DC081E090E090930B
:10187000B3038093B2038FEF83BD44C080916504AE
:10188000813099F50538D1F1003821F0013011F09F
:10189000043021F485E88093BC0305E86091BF0320
:1018A0007091C0038091C1039091C203C090450420
:1018B000D0904604E0904704F09048046C157D05F4
:1018C0008E059F05D8F42091310430913204409167
:1018D00033045091340443D1C0902504D0902604A1
:1018E000E0902704F0902804F9CB003809F46BCB82
:1018F000013009F468CB043009F465CB60E0802F37
:101900000E943B0181E00FC0133E59F410920F0476
:10191000E0916004F0E0EC53FC4F82E4808383EEBE
:1019200099CD812F97CDA4960FB6F894DEBF0FBE48
:10193000CDBFDF91CF911F910F91FF90EF90DF907E
:10194000CF90BF90AF909F908F900895CF93DF93EB
:10195000CDB7DEB728970FB6F894DEBF0FBECDBF68
:1019600088E0E1E8F1E0DE01119601900D928A95A0
:10197000E1F7FE01319680E090E03081209114047F
:10198000329632130BC0FC01EE0FFF1F81E090E096
:101990008C0F9D1FE80FF91F818105C001968430CF
:1019A000910559F788E060E00E943B0180911404A2
:1019B0008130F1F480910D04813031F4E0911D0407
:1019C000F0911E048FEF808313BCA89584B7877FA6
:1019D00084BF88E10FB6F89481BD11BC0FBEF894A6
:1019E0008CE080936A0082E088BF89BF789419C038
:1019F000809114048430A8F0109214048FEF83BDFA
:101A0000F89417BE13BE15BC789485B7837E8061A9
:101A100085BF85B7806285BF889585B78F7D85BF77
:101A200005C0809114048F5F8093140428960FB62C
:101A3000F894DEBF0FBECDBFDF91CF9108958091A6
:101A40001404882341F080911504813031F4109200
:101A500015047CDF02C080E0089581E00895809144
:101A600015048130A9F510921504A8958091C4033E
:101A70008230C9F48091C3038F5F8093C3038F3199
:101A800090F01092C3031092150484EF91E09093AC
:101A900013048093120481E080931404D0DF811139
:101AA000FDCF80E00895E0911A04F0911B0490812D
:101AB000892F80958093B10320910D04213029F462
:101AC000E0911D04F0911E0490831BD98093B00314
:101AD00080911604909117046091620470E018D010
:101AE000892B11F081E008958091B0039CD9813059
:101AF000C9F31092150484EF91E09093130480933E
:101B0000120481E0809314049ADF8111FDCFC9CFC4
:101B1000AA1BBB1B51E107C0AA1FBB1FA617B70713
:101B200010F0A61BB70B881F991F5A95A9F780952F
:101B30009095BC01CD01089597FB072E16F40094F3
:101B400006D077FD08D0E4DF07FC05D03EF4909581
:101B500081959F4F0895709561957F4F0895A1E2FB
:101B60001A2EAA1BBB1BFD010DC0AA1FBB1FEE1F17
:101B7000FF1FA217B307E407F50720F0A21BB30B62
:101B8000E40BF50B661F771F881F991F1A9469F7DE
:101B900060957095809590959B01AC01BD01CF013A
:101BA000089509D0A59F900DB49F900DA49F800D1E
:101BB000911D11240895A29FB001B39FC001A39F5E
:101BC000700D811D1124911DB29F700D811D112476
:101BD000911D08955058BB27AA270ED048C139D16E
:101BE00030F03ED120F031F49F3F11F41EF42EC1AD
:101BF0000EF4E095E7FB24C1E92F4AD180F3BA1730
:101C0000620773078407950718F071F49EF562C1A7
:101C10000EF4E0950B2EBA2FA02D0B01B901900107
:101C20000C01CA01A0011124FF27591B99F0593F4B
:101C300050F4503E68F11A16F040A22F232F342F93
:101C40004427585FF3CF469537952795A795F040E1
:101C50005395C9F77EF41F16BA0B620B730B840BF6
:101C6000BAF09150A1F0FF0FBB1F661F771F881FAE
:101C7000C2F70EC0BA0F621F731F841F48F4879506
:101C800077956795B795F7959E3F08F0B3CF9395F5
:101C9000880F08F09927EE0F9795879508950CD037
:101CA000E6C0DED040F0D5D030F021F45F3F19F02F
:101CB000C7C0511110C1CAC0EBD098F39923C9F322
:101CC0005523B1F3951B550BBB27AA276217730742
:101CD000840738F09F5F5F4F220F331F441FAA1FF6
:101CE000A9F333D00E2E3AF0E0E830D091505040B6
:101CF000E695001CCAF729D0FE2F27D0660F771F64
:101D0000881FBB1F261737074807AB07B0E809F045
:101D1000BB0B802DBF01FF2793585F4F2AF09E3FDA
:101D2000510568F08DC0D7C05F3FECF3983EDCF3FF
:101D3000869577956795B795F7959F5FC9F7880F53
:101D4000911D9695879597F90895E1E0660F771FA5
:101D5000881FBB1F621773078407BA0720F0621B36
:101D6000730B840BBA0BEE1F88F7E095089598D09B
:101D700088F09F5790F0B92F9927B751A0F0D1F074
:101D8000660F771F881F991F1AF0BA95C9F712C0FE
:101D9000B13081F09FD0B1E008959CC0672F782FBB
:101DA0008827B85F39F0B93FCCF38695779567956A
:101DB000B395D9F73EF490958095709561957F4FD6
:101DC0008F4F9F4F0895E89409C097FB3EF490957C
:101DD0008095709561957F4F8F4F9F4F9923A9F004
:101DE000F92F96E9BB279395F69587957795679593
:101DF000B795F111F8CFFAF4BB0F11F460FF1BC0D7
:101E00006F5F7F4F8F4F9F4F16C0882311F096E969
:101E100011C0772321F09EE8872F762F05C0662317
:101E200071F096E8862F70E060E02AF09A95660FD0
:101E3000771F881FDAF7880F9695879597F9089589
:101E400097F99F6780E870E060E008959FEF80EC6D
:101E5000089500240A941616170618060906089510
:101E600000240A9412161306140605060895092E76
:101E70000394000C11F4882352F0BB0F40F4BF2BE5
:101E800011F460FF04C06F5F7F4F8F4F9F4F089525
:101E900057FD9058440F551F59F05F3F71F047951B
:101EA000880F97FB991F61F09F3F79F08795089500
:101EB000121613061406551FF2CF4695F1DF08C01F
:101EC000161617061806991FF1CF8695710561053C
:101ED00008940895E894BB2766277727CB0197F9E4
:101EE00008950BD0C4CFB5DF28F0BADF18F09523E2
:101EF00009F0A6CFABCF1124EECFCADFA0F3959F98
:101F0000D1F3950F50E0551F629FF001729FBB27E0
:101F1000F00DB11D639FAA27F00DB11DAA1F649F8C
:101F20006627B00DA11D661F829F2227B00DA11D3F
:101F3000621F739FB00DA11D621F839FA00D611DC5
:101F4000221F749F3327A00D611D231F849F600DE6
:101F5000211D822F762F6A2F11249F5750408AF01F
:101F6000E1F088234AF0EE0FFF1FBB1F661F771FAB
:101F7000881F91505040A9F79E3F510570F060CFE7
:101F8000AACF5F3FECF3983EDCF386957795679593
:101F9000B795F795E7959F5FC1F7FE2B880F911DC9
:101FA0009695879597F90895FB01DC010D90002027
:101FB000E9F7119701900D920020E1F70895FB01D8
:101FC000DC0101900D920020E1F708950F931F931B
:101FD000CF93DF93CDB7DEB72E970FB6F894DEBF61
:101FE0000FBECDBF0D891E8986E08C831A830983BD
:101FF0008FEF9FE79E838D83AE01475E5F4F6F89B2
:10200000788DCE01019610D0EF81F885E00FF11F99
:1020100010822E960FB6F894DEBF0FBECDBFDF91B3
:10202000CF911F910F9108952F923F924F925F92FF
:102030006F927F928F929F92AF92BF92CF92DF92D8
:10204000EF92FF920F931F93CF93DF93CDB7DEB73D
:102050002C970FB6F894DEBF0FBECDBF7C016B018D
:102060008A01FC0117821682838181FFB0C1CE01F3
:1020700001964C01F7019381F60193FD859193FF41
:1020800081916F01882309F49EC1853239F493FD53
:10209000859193FF81916F01853221F4B70190E022
:1020A000E0D1E8CF512C312C20E02032A0F48B324B
:1020B00069F030F4803259F0833269F420612CC029
:1020C0008D3239F0803339F4216026C022602460DB
:1020D00023C0286021C027FD27C030ED380F3A30DB
:1020E00078F426FF06C0FAE05F9E300D1124532ECF
:1020F00013C08AE0389E300D1124332E20620CC0AC
:102100008E3221F426FD5FC1206406C08C3611F4A6
:10211000206802C0883641F4F60193FD859193FF53
:1021200081916F018111C1CF982F9F7D955493307C
:1021300028F40C5F1F4FFFE3F9830DC0833631F0A5
:10214000833771F0833509F057C021C0F8018081D1
:1021500089830E5F1F4F44244394512C540114C0B3
:102160003801F2E06F0E711CF801A080B18026FFEB
:1021700003C0652D70E002C06FEF7FEFC5012C87B3
:1021800065D12C0183012C852F77222E16C03801B2
:10219000F2E06F0E711CF801A080B18026FF03C031
:1021A000652D70E002C06FEF7FEFC5012C8743D132
:1021B0002C012C852068222E830123FC19C0832D3D
:1021C00090E048165906A0F4B70180E290E049D1AA
:1021D0003A94F5CFF50127FC859127FE81915F01A7
:1021E000B70190E03ED131103A94F1E04F1A510816
:1021F0004114510479F7DEC0843611F0893631F587
:10220000F80127FF07C060817181828193810C5F93
:102210001F4F08C060817181882777FD8095982FB6
:102220000E5F1F4F2F76B22E97FF09C090958095B5
:10223000709561957F4F8F4F9F4F2068B22E2AE097
:1022400030E0A40140D1A82EA81843C0853729F456
:102250002F7EB22E2AE030E025C0F22FF97FBF2E6C
:102260008F36C1F018F4883579F0ADC0803719F099
:10227000883721F0A8C02F2F2061B22EB4FE0DC0E8
:102280008B2D8460B82E09C024FF0AC09F2F966052
:10229000B92E06C028E030E005C020E130E002C0E1
:1022A00020E132E0F801B7FE07C0608171818281D0
:1022B00093810C5F1F4F06C06081718180E090E0C8
:1022C0000E5F1F4FA401FFD0A82EA818FB2DFF778B
:1022D000BF2EB6FE0BC02B2D2E7FA51450F4B4FEDE
:1022E0000AC0B2FC08C02B2D2E7E05C07A2C2B2DE7
:1022F00003C07A2C01C0752C24FF0DC0FE01EA0D2D
:10230000F11D8081803311F4297E09C022FF06C0AF
:102310007394739404C0822F867809F0739423FD1C
:1023200012C020FF06C05A2C731418F4530C57180F
:10233000732C731460F4B70180E290E02C8791D085
:1023400073942C85F6CF731410F4371801C0312C18
:1023500024FF11C0B70180E390E02C8782D02C8548
:1023600022FF16C021FF03C088E590E002C088E785
:1023700090E0B7010CC0822F867851F021FD02C099
:1023800080E201C08BE227FD8DE2B70190E069D0C9
:10239000A51430F4B70180E390E063D05A94F8CFED
:1023A000AA94F401EA0DF11D8081B70190E059D0A3
:1023B000A110F6CF332009F45DCEB70180E290E0A2
:1023C00050D03A94F7CFF7018681978102C08FEF02
:1023D0009FEF2C960FB6F894DEBF0FBECDBFDF91F6
:1023E000CF911F910F91FF90EF90DF90CF90BF9012
:1023F000AF909F908F907F906F905F904F903F90A5
:102400002F900895E199FECF9FBB8EBBE09A99274C
:102410008DB30895262FE199FECF9FBB8EBBE09A26
:1024200001970DB2021631F02DBB0FB6F894E29A67
:10243000E19A0FBE0895FC010590615070400110B3
:10244000D8F7809590958E0F9F1F0895FC016150DD
:10245000704001900110D8F7809590958E0F9F1FC6
:1024600008950F931F93CF93DF93182F092FEB013C
:102470008B8181FD03C08FEF9FEF20C082FF10C0D2
:102480004E815F812C813D81421753077CF4E881A6
:10249000F9819F012F5F3F4F39832883108306C046
:1024A000E885F985812F0995892B29F72E813F81B0
:1024B0002F5F3F4F3F832E83812F902FDF91CF914E
:1024C0001F910F910895FA01AA27283051F1203168
:1024D00081F1E8946F936E7F6E5F7F4F8F4F9F4FB8
:1024E000AF4FB1E03ED0B4E03CD0670F781F891FFA
:1024F0009A1FA11D680F791F8A1F911DA11D6A0FC8
:10250000711D811D911DA11D20D009F468943F917A
:102510002AE0269F11243019305D3193DEF6CF0179
:102520000895462F4770405D4193B3E00FD0C9F73F
:10253000F6CF462F4F70405D4A3318F0495D31FDAC
:102540004052419302D0A9F7EACFB4E0A6959795FF
:10255000879577956795BA95C9F7009761057105D5
:1025600008959B01AC010A2E06945795479537951F
:102570002795BA95C9F7620F731F841F951FA01D79
:062580000895F894FFCF5E
:1025860055CC0102010200640A05224E1431443280
:1025960012334234113541361842244C284C21520C
:1025A600E702F002F702000307030F0316030028F1
:1025B6005078A0C8DCF0FAFCFE3F804C0152044E75
:1025C60085311432B333B634D435E636E742812B3F
:1025D600202D025557373438F739F645E3016302A3
:1025E600E103E6048105D5064307C308F1307731D8
:1025F6001432B333B634D435E636E7373438F739E0
:10260600F601C702D603E3040035313531005B45D8
:102616005D205345475F434F4D5F414E4F44452034
:102626006973206F7574206F662072616E6765002E
:102636005B455D205345475F5553455F54522069BE
:1026460073206F7574206F662072616E6765005B1C
:10265600455D2053454E534F525F4D4150205369BF
:102666007A65206973206F7574206F662072616EBB
:102676006765005B455D2053454E534F525F55508D
:10268600206973206F7574206F662072616E6765AE
:10269600005B455D2053454E534F525F44572069BA
:1026A60073206F7574206F662072616E6765005BBC
:1026B600455D204D6178206C656E677468206F6695
:1026C60020505245465F4D4F544E20697320256475
:1026D600002573206973206F7574206F6620726100
:1026E6006E6765005B455D20554E555345445F5307
:1026F6005459206973206F7574206F662072616E5D
:102706006765005B455D205553455F4C4544206930
:1027160073206F7574206F662072616E6765005B4B
:10272600455D20554152545F4C4F47206973206FD9
:102736007574206F662072616E676500696E6974D4
:1027460044657628290A20566572322E330A2053AC
:10275600746570733D25640A2054696D6572303D59
:1027660025640A204F4B004D795F43726D6E7900E8
:102776004D795F654678004D795F536C65657000ED
:102786004D795F527673004D795F48696768004DF1
:10279600795F4C6F77004D795F54656D706F0053AC
:1027A60061766520454550524F4D203A2025733DB0
:1027B60025640057616B6520557000496E746F2063
:1027C600557365722053657474696E67204D6F6426
:1027D60065000A476561723D0045005200320033CC
:1027E6000034003500360037003800390014000088
:1027F60000320000006400000096000000C80000DF
:10280600002C01000090010000F4010000580200B5
:1028160000E8030000D0070000C4090000B80B0060
:102826000088130000204E00004020100402010022
:00000001FF
