:1000000045C0000061C000005FC000005DC000008E
:100010005BC0000059C0000057C0000055C0000080
:1000200053C0000051C000004FC000004DC0000090
:100030004BC0000049C0000047C0000045C00000A0
:1000400017C1000041C000003FC000003DC00000DB
:100050003BC0000039C0000037C0000035C00000C0
:1000600033C0000031C000002FC000002DC00000D0
:100070002BC0000029C0000027C0000025C00000E0
:1000800023C0000021C000001FC0000011241FBEBB
:10009000CFEFD0E1DEBFCDBF13E0A0E0B1E0ECE4F4
:1000A000F5E200E00BBF02C007900D92AE3DB10734
:1000B000D9F724E0AEEDB3E001C01D92A13AB2073A
:1000C000E1F71AD00C94A4129BCFCF93C82F8A309B
:1000D00011F48DE0FADF5D9BFECFCCB980E090E0BB
:1000E000CF9108951092900088E089B988E18AB98B
:1000F00086E08093950008958F929F92AF92CF9261
:10010000EF920F931F93CF93DF93CDB7DEB76D9729
:100110000FB6F894DEBF0FBECDBF8FEF87BB18BA06
:1001200081BB12BA82B913B8809364001092650043
:10013000D9DF80E091E090939E0480939D0487E056
:10014000E1E1F1E0DE01579601900D928A95E1F729
:1001500086E1E8E1F1E0DE01119601900D928A95C9
:10016000E1F781E08F938F9387E08F931F9288E36D
:100170008F931F928AE38F931F9292E69F931F9211
:1001800091E69F931F9295E39F931F9294E39F9311
:100190001F9299E39F931F929BE39F931F928F93CC
:1001A000CE0147969F938F9381E9882E81E0982E08
:1001B00094E0A92E23E0C22E3BE0E32E8E010F5FD8
:1001C0001F4F21E041E060E074E284EF90E0F2D163
:1001D0000FB6F894DEBF0FBECDBF9091F103811131
:1001E00009C0992399F181EF93E00E949C0F10922E
:1001F000F1032CC0992331F081EF93E00E949C0F12
:100200001092F103CBD4882379F08091F1038823F5
:10021000C9F3F2CF8091F103882331F081EF93E0AD
:100220000E949C0F1092F1030E94090D8111F2CFE0
:100230000AC08091F103882331F081EF93E00E949E
:100240009C0F1092F10375D18111F3CF80E090E003
:100250006D960FB6F894DEBF0FBECDBFDF91CF9184
:100260001F910F91EF90CF90AF909F908F90089536
:100270001F920F920FB60F9211242F933F938F93DB
:100280009F938091970482BF80912C0490912D04BC
:10029000019690932D0480932C0420912C0430918E
:1002A0002D0480912804909129042817390738F0EB
:1002B00010922D0410922C0481E080932B049F91C6
:1002C0008F913F912F910F900FBE0F901F90189517
:1002D00090912704913009F48095611105C0E09157
:1002E0009804F09199048083089580918F0483305D
:1002F000E0F4809190048330D0F4809191048430B4
:10030000C0F4809192048230B0F480919304833FD2
:10031000A0F4809194048852873D88F480919504DC
:100320008150893070F087E0089581E0089582E07F
:10033000089583E0089584E0089585E0089586E0B7
:10034000089580E00895CF92DF92EF92FF920F938D
:100350001F93CF93DF93863098F1682F70E065503C
:100360007109882777FD8095982F0E949B0E20E0C9
:1003700030E040EC5FE30E94270F6B017C01CBE98A
:10038000D3E00CE414E069917991899199910E94EC
:10039000990EA70196010E94050E20E030E040E88A
:1003A0005FE30E94A10D0E946D0EF80161937193AD
:1003B000819391938F01F3E0C73DDF0721F71EC0C2
:1003C000CBE9D3E00CE414E0C82ED12CE12CF12CC5
:1003D0002991399149915991A5E0B0E00E94870D8A
:1003E000A70196010E94650DF80121933193419375
:1003F00051938F01F3E0C73DDF0751F7DF91CF91B4
:100400001F910F91FF90EF90DF90CF900895F89497
:1004100085E083BF87B7816087BF87B78D7F87BF40
:100420008091970482BF7894089580919A0420E186
:10043000829FC00111248D6485BD87B78F7387BFEC
:1004400014BC13BC0895F89417BE13BE15BC85B731
:10045000806285BF85B78B7F85BF85B7806185BF8B
:1004600085B7877F85BF88950895CF93DF93CDB7F4
:10047000DEB728970FB6F894DEBF0FBECDBF88E079
:10048000EEE2F1E0DE01119601900D928A95E1F71E
:10049000FE01319680E090E0308120912A0432966E
:1004A00032130BC0FC01EE0FFF1F81E090E08C0FB8
:1004B0009D1FE80FF91F818105C0019684309105C9
:1004C00059F788E060E004DF80912A04813091F4DC
:1004D00080912404813031F466E971E081EF93E08A
:1004E0000E94950FE0914804F09149048FEF8083BA
:1004F00013BC11C080912A04843068F010922A0441
:100500008FEF83BD28960FB6F894DEBF0FBECDBF28
:10051000DF91CF9198CF80912A048F5F80932A0436
:1005200028960FB6F894DEBF0FBECDBFDF91CF91F6
:10053000089580912A04882341F080912B04813012
:1005400031F410922B0491DF02C080E0089581E025
:1005500008950F931F93CF93DF9380E090E00E9464
:10056000E511813079F40FE814E0C0E0D0E0219685
:10057000CE010E94E511F80181938F01C730D105AA
:10058000B1F713C061E080E090E00E94ED110FE848
:1005900014E0C0E0D0E0F80161918F012196CE0116
:1005A0000E94ED11C730D105B1F7DF91CF911F91B6
:1005B0000F9108952F923F924F925F926F927F9288
:1005C0008F929F92AF92BF92CF92DF92EF92FF9263
:1005D0000F931F93CF93DF93CDB7DEB72F970FB64F
:1005E000F894DEBF0FBECDBF2B013C01F42ED22EFE
:1005F0001801AF860CA11DA1AEA8BFA82AAD21305D
:1006000011F420932404411451046104710461F431
:1006100080912404813031F465EA71E081EF93E048
:100620000E94950F80E099C1C301B20120E034E23D
:1006300044EF50E00E94650D220F822F880F880F33
:10064000820F8F5F80938D04C301B2010E94990EC7
:100650002FE632E143E85AE30E94270F20E030E022
:1006600040E05CE30E94270F9B01AC0160E070E07A
:1006700080E893E40E94A00D0E946D0E60939704A1
:1006800081E08F1538F480912404813059F66FEBA6
:1006900071E0C4CF91E0F91202C0F0922704E1E0CA
:1006A000ED1540F480912404813009F0BBCF61EE58
:1006B00071E0B4CFF4E6FE1540F48091240481305B
:1006C00009F0B0CF60E072E0A9CF24E62C1540F429
:1006D00080912404813009F0A5CF64E272E09ECFBE
:1006E0008F85853640F080912404813009F09ACFBF
:1006F00062E472E093CFE0928A04F401019000205A
:10070000E9F73197E819F909E0938B0486E08093C3
:100710008C04E53158F080912404813009F082CFB7
:100720001F9284E18F9380E692E06DC090928904DD
:1007300080928804309244042092430480E38C0D1C
:1007400080938E048F85805D80934704F8018681B5
:10075000811102C081E08683F80186818A3010F021
:1007600089E08683F801808180938F048181809362
:100770009004828180939104838180939204848188
:1007800024E630E0A901481B5109EE24EA94E49ED6
:10079000C001E59E900D1124B9010E94520D609395
:1007A00093048581A901481B5109E49EC001E59E7F
:1007B000900D1124B9010E94520D6093940486811A
:1007C0008093950481E0809396048FDD882351F116
:1007D0009EE0E6E3F1E0DE01119601900D929A951C
:1007E000E1F790912404913009F01CCFFE0131967D
:1007F000E80FF11DE80FF11D329781818F93808101
:100800008F9382E892E09F938F9381EF93E09F9381
:100810008F930E94C90F0F900F900F900F900F9021
:100820000F9000CFF9ADF23040F080912404813078
:1008300009F0F8CE65E972E0F1CE2AAD223040F041
:1008400080912404813009F0EDCE64EB72E0E6CEB5
:1008500080DE8091950477DD8AA59BA59093460460
:10086000809345048EA59FA59093490480934804E6
:100870008AA99BA99093990480939804EEA1FFA163
:100880001082E8A5F9A5E082ECA5FDA5E082EEA521
:10089000FFA5E082E8A9F9A9E08260E080E018DD28
:1008A000F9ADF11106C0ECA9FDA91082F501E082B5
:1008B00005C0ECA9FDA9E082F5011082ECA9FDA913
:1008C000208181E090E008AC02C0880F991F0A9453
:1008D000E2F7282B2083F1E0FF1208C0D11006C0F8
:1008E000F5019081982B908383E006C0F5019081FB
:1008F00080958923808382E080939A0480B58B7FE2
:1009000080BD809124048130B9F4809197041F92B6
:100910008F9380918D041F928F9381ED92E09F932E
:100920008F9381EF93E09F938F930E94C90F0FB62F
:10093000F894DEBF0FBECDBF80918F04882311F0E5
:1009400066DD0AC01092100184E690E090932904BD
:10095000809328045CDD69DD81E02F960FB6F89462
:10096000DEBF0FBECDBFDF91CF911F910F91FF90E2
:10097000EF90DF90CF90BF90AF909F908F907F903F
:100980006F905F904F903F902F900895CF92DF929D
:10099000EF92FF920F931F93CF93DF93CDB7DEB704
:1009A0002F970FB6F894DEBF0FBECDBF7C018C0130
:1009B000015011090830110508F0D9C0603219F052
:1009C000623009F0D4C0C80181579B4F6C01FC0113
:1009D0008081603211F471E003C0882319F07FEF49
:1009E000780F01C070E097012550310922303105A0
:1009F00008F05AC09BE0E4E4F1E0DE0111960190BA
:100A00000D929A95E1F7FE01319620E030E0419198
:100A10008417C9F0841788F4E82FF0E0DE01A20FF4
:100A2000B31F8C91DF01A81BB10950E04E1B5F0B77
:100A3000A417B50744F4215006C02F5F3F4F2A305A
:100A4000310529F72AE004301105A1F4603241F4A0
:100A5000222309F490C0FE01E20FF11D708124C031
:100A60002A3009F48AC0FE01E20FF11D7281713F44
:100A7000D8F083C005301105B9F4603249F422235F
:100A800081F0FE01E20FF11D7081783268F409C037
:100A90002A3049F0FE01E20FF11D72817F3F21F4FF
:100AA00002C078E201C07EEF02301105B1F038F4E7
:100AB0000115110571F00130110559F021C0063002
:100AC000110599F00730110561F003301105C1F4EB
:100AD00008C07330A8F072E013C0743088F073E07F
:100AE0000FC0772369F071E00BC07A3020F47111E8
:100AF00003C071E001C079E0872F7F8724DC7F8508
:100B0000F60170830730110531F0672FC7017F8729
:100B10000E94ED117F8580912404813051F58EE093
:100B2000E6E3F1E0DE01119601900D928A95E1F77E
:100B30001F927F93F801EE0FFF1F81E090E08C0F72
:100B40009D1FE80FF91F81818F9380818F9384E32C
:100B500093E09F938F9381EF93E09F938F930E94F5
:100B6000C90F0FB6F894DEBF0FBECDBF02C080E044
:100B700006C081E004C070E097CF70EF95CF2F964C
:100B80000FB6F894DEBF0FBECDBFDF91CF911F919E
:100B90000F91FF90EF90DF90CF900895CF93DF9368
:100BA00080911001882309F4AAC090912B04913000
:100BB00009F0A7C010922B0490918F049130B1F4EA
:100BC000813009F072C082E08093100188EE93E0DA
:100BD000909329048093280460E08FEF79DBE09103
:100BE0004804F09149041082C1E07AC0923009F0C3
:100BF00076C020912804309129048130C9F5E09114
:100C00009804F0919904D081E0914804F09149044E
:100C10002436310559F084E690E0909329048093BE
:100C200028048EEF8083D1E0C1E010C080912704BA
:100C3000813021F48D2F8095D82F01C08D2FDD0FAD
:100C4000D82B8081880F81608083C0E060E08D2F89
:100C50003FDBDF3F09F044C088EE93E09093290426
:100C600080932804809110018F5F8093100138C019
:100C70002832310561F088E290E090932904809356
:100C80002804E0914804F09149048FEF808380911B
:100C9000100190E060918C0470E09B01220F331FE3
:100CA0002F5F3F4F281739076CF41092100184E62C
:100CB00090E09093290480932804B7DB60E080E003
:100CC00007DB0DC00197EED689529C4F60E0FC0116
:100CD0008081FEDA809110018F5F80931001C0E067
:100CE00080912404813041F4C13031F468E473E030
:100CF00081EF93E00E94950F8091100103C080E086
:100D000001C081E0DF91CF910895CF93DF93982FB9
:100D1000823451F410922604E0918B04F0E0E35DFC
:100D2000FB4F808382E459C0809126048823A9F078
:100D3000813009F449C080918E04981709F446C0A7
:100D400080914704981709F443C09C3409F442C0C9
:100D5000923509F041C082E540C09C34E9F19235FA
:100D6000D9F19F33C9F120918B0430E0D901A35D03
:100D7000BB4F8C91891789F19E3439F4EEE2F4E08F
:100D8000A0918804B091890410C0EFE2F4E0CEE2B3
:100D9000D4E0AF014E525440421753071CF48191E6
:100DA0008993F7CF9C93892F18C0CF018E5294401E
:100DB0008217930734F491918D919817B1F38EE4D3
:100DC0000CC081E08093260485E507C08BE205C056
:100DD0008DE203C08CE401C08FE3DF91CF910895D1
:100DE0000F931F93CF93DF93CDB7DEB76E970FB6F8
:100DF000F894DEBF0FBECDBF982F991F9927991F7A
:100E0000909325048F7709F44DC040E050E0E0E076
:100E1000F0E0682F70E0DB010E2E02C0B595A795BB
:100E20000A94E2F7A170BB274A0F5B1F3196E430AA
:100E3000F10589F742305105BCF564FB222720F902
:100E400030E065FB002700F910E0200F311FE6E0DD
:100E500076956795EA95E1F7260F371F2130310522
:100E600019F54130510501F560918A0470E0209137
:100E700043043091440440E050E0461757077CF4A7
:100E8000F9012E5F3F4FD90112979C91981304C02E
:100E90008181853451F004C04F5F5F4FEECF8FE307
:100EA00034DF03C085E401C08FE39EE1EFE4F1E0AD
:100EB000DE01119601900D929A95E1F7FE013196AF
:100EC00020E030E0908198130BC0F901EE0FFF1F76
:100ED00081E090E08C0F9D1FE80FF91F818107C012
:100EE0002F5F3F4F32962F30310561F783EE6E96BC
:100EF0000FB6F894DEBF0FBECDBFDF91CF911F912B
:100F00000F9108958F929F92AF92BF92CF92DF92EE
:100F1000EF92FF920F931F93CF93DF93CDB7DEB77E
:100F2000A4970FB6F894DEBF0FBECDBF182F84E292
:100F3000EDE6F1E0DE01119601900D928A95E1F760
:100F40004091ED035091EE036091EF037091F00337
:100F50004F5F5F4F6F4F7F4F4093ED035093EE0312
:100F60006093EF037093F00380912604823031F494
:100F70008091EC038550823008F450C09091250494
:100F80008091EB03913019F40091940402C0009118
:100F90009304801709F442C00093EB03802E912C38
:100FA000B401882777FD8095982FC5D66B017C0109
:100FB000AA24AA94B12CA818B90880E58A9DB0018A
:100FC0008B9D700D1124882777FD8095982FB3D6BF
:100FD0002AE037ED43E25CE33AD79B01AC01C7015D
:100FE000B601AFD57AD660930F0181E28A9DB00138
:100FF0008B9D700D1124882777FD8095982F9BD6A7
:101000002AE037ED43E25CE322D79B01AC01C70144
:10101000B60197D562D660930E0103BD9091260468
:101020008091E9039111C8C030919004332309F4F1
:10103000E3C12091EA03222309F4DEC140E8420F14
:10104000423008F4D9C1233E09F4D6C1211709F46E
:10105000D3C1103819F0153809F0CEC181110EC076
:1010600081E08093E9031092ED031092EE03109259
:10107000EF031092F0038091EB0383BD0091EA032C
:10108000053899F48091E803833561F48EE4809308
:10109000E80380912404813029F466E573E081EF50
:1010A00093E043D760E085E88EC4313009F04CC04E
:1010B00060E0802F0DD92091EB036091ED037091DA
:1010C000EE038091EF039091F003293C48F42091C6
:1010D0004C0430914D0440914E0450914F0408C08F
:1010E00020915C0430915D0440915E0450915F0456
:1010F000ECD4672B682B692B31F483B58E3F18F441
:1011000083B58E5F83BD83B58E3F08F45EC4409186
:10111000ED035091EE036091EF037091F003809125
:10112000740490917504A0917604B09177048417AB
:101130009507A607B70708F048C48091EB0383BD65
:1011400060E08091EA0334C0323009F03EC460911F
:10115000ED037091EE038091EF039091F003C09046
:101160008004D0908104E0908204F09083046C1598
:101170007D058E059F05D0F420915C0430915D04BF
:1011800040915E0450915F04A0D4C0905404D0906C
:101190005504E0905604F0905704C616D706E806AA
:1011A000F90608F00EC460E080E00DC460E0802F16
:1011B0008FD81093EA031DC1913009F054C08823E1
:1011C00021F08091EA03873509F182E58093E803F5
:1011D00080912404813029F46EE573E081EF93E07F
:1011E000A4D681E08093E9031092ED031092EE0300
:1011F0001092EF031092F0038093EC038A818093A6
:10120000E7031093EA038091EB0383BD6091ED0344
:101210007091EE038091EF039091F003683B2BE017
:1012200072078105910570F428EE33E040E050E04C
:101230004CD4613971408105910508F4B4CF60E068
:1012400087E5C1C360E0812F43D81092E903109273
:10125000ED031092EE031092EF031092F00382E080
:1012600080932604B2C3923009F0C6C0813009F4DD
:1012700067C02091EA03203229F0223019F0233E82
:1012800009F0BAC081115CC081E08093E90310923B
:10129000ED031092EE031092EF031092F0031093FF
:1012A000EA039091E60391114BC08093E60380918D
:1012B000EC03612F90E06ADB8130E1F583EE8093EF
:1012C000E503E091EC03E83061F48091EA038032B9
:1012D00011F0823031F460E080E00E94680180E02B
:1012E00085C38BEF8E0FF0E0823010F4319710C081
:1012F000E257FB4F208130E0205D3F4FFE013196E9
:1013000080E090E0408150E04217530769F4FC010F
:10131000EE0FFF1F81E090E08C0F9D1FE80FF91F7B
:1013200081818093E5030CC001963296823191054C
:1013300049F706C083EE8093EA038093E50313EE3A
:101340008091E603813071F08091ED039091EE037E
:10135000A091EF03B091F003883E9340A105B10541
:1013600008F042C08091EC039BEF980F923018F187
:101370006091ED037091EE038091EF039091F00383
:10138000683E23E0720781059105F8F42CE231E014
:1013900040E050E09AD32091E5036639710581055C
:1013A000910510F4286001C0277F2093E50360E0D9
:1013B0008091E50308C3FE013196E80FF11DE80FA7
:1013C000F11D329760E0818102C060E0812F0E94B0
:1013D00068011092E9031092ED031092EE0310924F
:1013E000EF031092F003F1C260E08091E7030E94E6
:1013F00068011092E903E9C2813051F41092E903C7
:101400001092ED031092EE031092EF031092F0038E
:101410000091EA03011709F4CFC0809124048130C0
:1014200009F059C0911157C00091E803033529F420
:1014300066E573E081EF93E078D5153809F44BC089
:10144000103809F448C0033531F465E773E081EFE3
:1014500093E060D505C066E773E081EF93E065D562
:10146000133E19F46CE773E031C0113819F46EE7DC
:1014700073E02CC0143119F464E971E027C0133B08
:1014800019F460E873E022C0163B19F462E873E0D7
:101490001DC0143D19F464E873E018C0163E19F439
:1014A00066E873E013C0173E19F468E873E00EC0F5
:1014B000143319F46AE873E009C0173F19F46CE8B3
:1014C00073E004C0163F29F46EE873E081EF93E007
:1014D00021D5109223048EE48093E8031093EA034D
:1014E0001092E4031092E3031092E2031092E103DE
:1014F0001092E0031092E6038091EB0383BD80918C
:101500002604811164C2103809F06EC285E89091FA
:101510002604923009F046C0113019F01430F1F56C
:101520000AC08091EC0381508093EC0381110DC0BF
:101530001093EC030AC08091EC038F5F8093EC035F
:10154000893018F088E08093EC03E091EC03DE0131
:10155000119680E090E02C912E130EC0DC01AA0FB2
:10156000BB1F81E090E08C0F9D1FA80FB91F119643
:101570008C918093E70305C0019612968231910504
:1015800051F78091E7039BEF9E0F923058F4F0E003
:10159000E257FB4F90819093EB0304C0133E09F098
:1015A00014C208C01092ED031092EE031092EF03E4
:1015B0001092F00360E007C28091E0039091E10394
:1015C000892B29F493B58091EB03981383BD809107
:1015D0002604823009F096C0003821F0013011F065
:1015E000043011F40091E7032091EC038BEF820F9C
:1015F000823008F4E6C1283009F4E3C18091E003A9
:101600009091E103019731F081E090E09093E10344
:101610008093E0036091ED037091EE038091EF03FE
:101620009091F0032730A1F5209174043091750456
:10163000409176045091770448D2C0907004D090C5
:101640007104E0907204F0907304C616D706E806A1
:10165000F90608F04FC093B580910F01981383BD30
:10166000E091EC03F0E0E257FB4F208130E0205D99
:101670003F4FFE01319680E090E0408150E04217FC
:10168000530739F10196329682319105B1F799C12C
:1016900020ED37E040E050E018D2693E734081050C
:1016A000910540F193B580910F01981383BDE091AE
:1016B000EC03F0E0E257FB4F208130E0205D3F4F2C
:1016C000FE01319680E090E0408150E042175307E0
:1016D00059F4FC01EE0FFF1F81E090E08C0F9D1F7D
:1016E000E80FF91F01816DC1019632968231910593
:1016F00059F767C193B58091EB03981709F461C15D
:1017000083BD5FC1013809F03EC020919204609111
:10171000ED037091EE038091EF039091F00321119E
:1017200019C020917004309171044091720450915D
:101730007304CBD1C0906804D0906904E0906A042F
:10174000F0906B046C157D058E059F0508F439C17A
:1017500000E037C120916C0430916D0440916E041B
:1017600050916F04B2D1C0906004D0906104E090B9
:101770006204F09063046C157D058E059F0508F0EA
:1017800020C109E81EC1053809F0DBC04091ED0316
:101790005091EE036091EF037091F0038091840407
:1017A00090918504A0918604B091870484179507D1
:1017B000A607B70708F0C5C08091E803833549F054
:1017C00080912404813029F460E973E081EF93E093
:1017D000ACD383E58093E803809191048130D1F507
:1017E0004091E3035091E4034F5F5F4F5093E40354
:1017F0004093E30360E070E0809178049091790475
:10180000A0917A04B0917B0484179507A607B707C7
:1018100008F0DBC00091E0031091E103F801E95208
:10182000FC4F60E080810E9468010F5F1F4F1093A2
:10183000E1030093E00380918C0490E008171907FE
:1018400020F01092E1031092E0031092E403109252
:10185000E303BBC0823009F061C08091E003909146
:10186000E103892B31F481E090E09093E1038093D0
:10187000E0034091E3035091E4034F5F5F4F5093C7
:10188000E4034093E30360E070E08091540490919E
:101890005504A0915604B091570484179507A607E4
:1018A000B70720F58091E00380FF0CC083B5823D2F
:1018B00018F483B58E5F15C083B58F3F99F083B55B
:1018C0008F5F0FC08091E2038F5F8093E20393B537
:1018D00080910E01891730F483B5833D18F083B5EC
:1018E000815083BD1092E4031092E3038091E003E2
:1018F0009091E10380FF05C023B52F3F09F065C03B
:1019000005C02091E2032C3308F45FC00196909348
:10191000E1038093E0031092E20357C0833009F0A3
:1019200054C08091E0039091E103019709F44DC008
:1019300081E090E09093E1038093E0038FEF83BD1B
:1019400044C080919004813099F50538D1F1003878
:1019500021F0013011F0043021F485E88093EA038E
:1019600005E86091ED037091EE038091EF03909193
:10197000F003C0907004D0907104E0907204F09075
:1019800073046C157D058E059F05D8F420915C04C9
:1019900030915D0440915E0450915F0496D0C090F8
:1019A0005004D0905104E0905204F0905304F5CBD1
:1019B000003809F477CB013009F474CB043009F412
:1019C00071CB60E0802F0E94680181E00FC0133E60
:1019D00059F410922604E0918B04F0E0E35DFB4F94
:1019E00082E4808383EE93CD812F91CDA4960FB6B0
:1019F000F894DEBF0FBECDBFDF91CF911F910F9145
:101A0000FF90EF90DF90CF90BF90AF909F908F901E
:101A1000089580912B04813099F410922B04E09169
:101A20004504F09146049081892F80958093DF03CF
:101A3000E0914804F09149049083D2D98093DE0369
:101A400080912C0490912D0460918D0470E016D04B
:101A5000892B11F081E008958091DE0353DA813003
:101A6000C9F310922B0484EF91E0909329048093A2
:101A7000280481E080932A0480E00895AA1BBB1B00
:101A800051E107C0AA1FBB1FA617B70710F0A61B7E
:101A9000B70B881F991F5A95A9F780959095BC019F
:101AA000CD01089597FB072E16F4009406D077FD1C
:101AB00008D0E4DF07FC05D03EF4909581959F4F58
:101AC0000895709561957F4F0895A1E21A2EAA1B83
:101AD000BB1BFD010DC0AA1FBB1FEE1FFF1FA217DE
:101AE000B307E407F50720F0A21BB30BE40BF50BDB
:101AF000661F771F881F991F1A9469F76095709564
:101B0000809590959B01AC01BD01CF01089509D04E
:101B1000A59F900DB49F900DA49F800D911D112441
:101B20000895A29FB001B39FC001A39F700D811DB6
:101B30001124911DB29F700D811D1124911D0895D6
:101B40005058BB27AA270ED048C139D130F03ED11A
:101B500020F031F49F3F11F41EF42EC10EF4E095F5
:101B6000E7FB24C1E92F4AD180F3BA176207730754
:101B70008407950718F071F49EF562C10EF4E095A4
:101B80000B2EBA2FA02D0B01B90190010C01CA0137
:101B9000A0011124FF27591B99F0593F50F4503EE2
:101BA00068F11A16F040A22F232F342F4427585FD4
:101BB000F3CF469537952795A795F0405395C9F7EC
:101BC0007EF41F16BA0B620B730B840BBAF09150A4
:101BD000A1F0FF0FBB1F661F771F881FC2F70EC043
:101BE000BA0F621F731F841F48F487957795679516
:101BF000B795F7959E3F08F0B3CF9395880F08F0FF
:101C00009927EE0F9795879508950CD0E6C0DED002
:101C100040F0D5D030F021F45F3F19F0C7C051112A
:101C200010C1CAC0EBD098F39923C9F35523B1F37F
:101C3000951B550BBB27AA2762177307840738F03B
:101C40009F5F5F4F220F331F441FAA1FA9F333D09A
:101C50000E2E3AF0E0E830D091505040E695001C4E
:101C6000CAF729D0FE2F27D0660F771F881FBB1F0A
:101C7000261737074807AB07B0E809F0BB0B802DE4
:101C8000BF01FF2793585F4F2AF09E3F510568F030
:101C90008DC0D7C05F3FECF3983EDCF38695779517
:101CA0006795B795F7959F5FC9F7880F911D969532
:101CB000879597F90895E1E0660F771F881FBB1F8E
:101CC000621773078407BA0720F0621B730B840B3B
:101CD000BA0BEE1F88F7E095089598D088F09F57CB
:101CE00090F0B92F9927B751A0F0D1F0660F771F68
:101CF000881F991F1AF0BA95C9F712C0B13081F048
:101D00009FD0B1E008959CC0672F782F8827B85FD7
:101D100039F0B93FCCF3869577956795B395D9F7A8
:101D20003EF490958095709561957F4F8F4F9F4FB2
:101D30000895E89409C097FB3EF4909580957095BE
:101D400061957F4F8F4F9F4F9923A9F0F92F96E907
:101D5000BB279395F695879577956795B795F1117C
:101D6000F8CFFAF4BB0F11F460FF1BC06F5F7F4F19
:101D70008F4F9F4F16C0882311F096E911C077232B
:101D800021F09EE8872F762F05C0662371F096E834
:101D9000862F70E060E02AF09A95660F771F881F03
:101DA000DAF7880F9695879597F9089597F99F67C1
:101DB00080E870E060E008959FEF80EC08950024D3
:101DC0000A941616170618060906089500240A94A0
:101DD00012161306140605060895092E0394000C26
:101DE00011F4882352F0BB0F40F4BF2B11F460FFB5
:101DF00004C06F5F7F4F8F4F9F4F089557FD9058DE
:101E0000440F551F59F05F3F71F04795880F97FBBE
:101E1000991F61F09F3F79F0879508951216130678
:101E20001406551FF2CF4695F1DF08C016161706A7
:101E30001806991FF1CF86957105610508940895DC
:101E4000E894BB2766277727CB0197F908950BD035
:101E5000C4CFB5DF28F0BADF18F0952309F0A6CF7C
:101E6000ABCF1124EECFCADFA0F3959FD1F3950F2E
:101E700050E0551F629FF001729FBB27F00DB11D0E
:101E8000639FAA27F00DB11DAA1F649F6627B00D9E
:101E9000A11D661F829F2227B00DA11D621F739F87
:101EA000B00DA11D621F839FA00D611D221F749F95
:101EB0003327A00D611D231F849F600D211D822FDC
:101EC000762F6A2F11249F5750408AF0E1F0882323
:101ED0004AF0EE0FFF1FBB1F661F771F881F915030
:101EE0005040A9F79E3F510570F060CFAACF5F3FE9
:101EF000ECF3983EDCF3869577956795B795F79563
:101F0000E7959F5FC1F7FE2B880F911D96958795EA
:101F100097F90895FB01DC010D900020E9F7119776
:101F200001900D920020E1F70895FB01DC01019082
:101F30000D920020E1F708950F931F93CF93DF9345
:101F4000E0919D04F0919E04238121FF1BC0EC01D0
:101F500000E010E0899160919D0470919E04DB0186
:101F60001896ED91FC911997882331F00995892BEA
:101F700089F30FEF1FEFEECF8AE00995892B11F45B
:101F8000C80102C08FEF9FEFDF91CF911F910F919A
:101F900008950F931F93CF93DF93CDB7DEB72E979E
:101FA0000FB6F894DEBF0FBECDBF0D891E8986E047
:101FB0008C831A8309838FEF9FE79E838D83AE0105
:101FC000475E5F4F6F89788DCE01019610D0EF810B
:101FD000F885E00FF11F10822E960FB6F894DEBF41
:101FE0000FBECDBFDF91CF911F910F9108952F921A
:101FF0003F924F925F926F927F928F929F92AF9299
:10200000BF92CF92DF92EF92FF920F931F93CF93E5
:10201000DF93CDB7DEB72C970FB6F894DEBF0FBEB7
:10202000CDBF7C016B018A01FC011782168283817E
:1020300081FFB0C1CE0101964C01F7019381F601F9
:1020400093FD859193FF81916F01882309F49EC1CF
:10205000853239F493FD859193FF81916F0185322B
:1020600021F4B70190E0E0D1E8CF512C312C20E0F1
:102070002032A0F48B3269F030F4803259F0833290
:1020800069F420612CC08D3239F0803339F421603D
:1020900026C02260246023C0286021C027FD27C0FD
:1020A00030ED380F3A3078F426FF06C0FAE05F9E34
:1020B000300D1124532E13C08AE0389E300D1124A8
:1020C000332E20620CC08E3221F426FD5FC12064C5
:1020D00006C08C3611F4206802C0883641F4F6013F
:1020E00093FD859193FF81916F018111C1CF982F4D
:1020F0009F7D9554933028F40C5F1F4FFFE3F983C5
:102100000DC0833631F0833771F0833509F057C045
:1021100021C0F801808189830E5F1F4F44244394BE
:10212000512C540114C03801F2E06F0E711CF801FB
:10213000A080B18026FF03C0652D70E002C06FEF64
:102140007FEFC5012C8765D12C0183012C852F776A
:10215000222E16C03801F2E06F0E711CF801A0802B
:10216000B18026FF03C0652D70E002C06FEF7FEFE6
:10217000C5012C8743D12C012C852068222E830198
:1021800023FC19C0832D90E048165906A0F4B7012E
:1021900080E290E049D13A94F5CFF50127FC859192
:1021A00027FE81915F01B70190E03ED131103A9452
:1021B000F1E04F1A51084114510479F7DEC084361A
:1021C00011F0893631F5F80127FF07C06081718170
:1021D000828193810C5F1F4F08C0608171818827C5
:1021E00077FD8095982F0E5F1F4F2F76B22E97FFA9
:1021F00009C090958095709561957F4F8F4F9F4F47
:102200002068B22E2AE030E0A40140D1A82EA81800
:1022100043C0853729F42F7EB22E2AE030E025C056
:10222000F22FF97FBF2E8F36C1F018F4883579F080
:10223000ADC0803719F0883721F0A8C02F2F20615A
:10224000B22EB4FE0DC08B2D8460B82E09C024FFC1
:102250000AC09F2F9660B92E06C028E030E005C066
:1022600020E130E002C020E132E0F801B7FE07C013
:1022700060817181828193810C5F1F4F06C06081F4
:10228000718180E090E00E5F1F4FA401FFD0A82E67
:10229000A818FB2DFF77BF2EB6FE0BC02B2D2E7F6F
:1022A000A51450F4B4FE0AC0B2FC08C02B2D2E7E3B
:1022B00005C07A2C2B2D03C07A2C01C0752C24FF6D
:1022C0000DC0FE01EA0DF11D8081803311F4297EDD
:1022D00009C022FF06C07394739404C0822F8678CD
:1022E00009F0739423FD12C020FF06C05A2C73140A
:1022F00018F4530C5718732C731460F4B70180E270
:1023000090E02C8791D073942C85F6CF731410F441
:10231000371801C0312C24FF11C0B70180E390E0D1
:102320002C8782D02C8522FF16C021FF03C088E5B0
:1023300090E002C088E790E0B7010CC0822F867859
:1023400051F021FD02C080E201C08BE227FD8DE249
:10235000B70190E069D0A51430F4B70180E390E0B4
:1023600063D05A94F8CFAA94F401EA0DF11D80814C
:10237000B70190E059D0A110F6CF332009F45DCE1B
:10238000B70180E290E050D03A94F7CFF701868110
:10239000978102C08FEF9FEF2C960FB6F894DEBFA7
:1023A0000FBECDBFDF91CF911F910F91FF90EF90A6
:1023B000DF90CF90BF90AF909F908F907F906F9065
:1023C0005F904F903F902F900895E199FECF9FBB73
:1023D0008EBBE09A99278DB30895262FE199FECF01
:1023E0009FBB8EBBE09A01970DB2021631F02DBB58
:1023F0000FB6F894E29AE19A0FBE0895FC01059099
:10240000615070400110D8F7809590958E0F9F1FF6
:102410000895FC016150704001900110D8F780953B
:1024200090958E0F9F1F08950F931F93CF93DF9367
:10243000182F092FEB018B8181FD03C08FEF9FEFD8
:1024400020C082FF10C04E815F812C813D814217E8
:1024500053077CF4E881F9819F012F5F3F4F398357
:102460002883108306C0E885F985812F0995892B7B
:1024700029F72E813F812F5F3F4F3F832E83812F8E
:10248000902FDF91CF911F910F910895FA01AA2704
:10249000283051F1203181F1E8946F936E7F6E5FA7
:1024A0007F4F8F4F9F4FAF4FB1E03ED0B4E03CD055
:1024B000670F781F891F9A1FA11D680F791F8A1F38
:1024C000911DA11D6A0F711D811D911DA11D20D09F
:1024D00009F468943F912AE0269F11243019305D59
:1024E0003193DEF6CF010895462F4770405D41934A
:1024F000B3E00FD0C9F7F6CF462F4F70405D4A3397
:1025000018F0495D31FD4052419302D0A9F7EACF5E
:10251000B4E0A6959795879577956795BA95C9F78D
:1025200000976105710508959B01AC010A2E069480
:102530005795479537952795BA95C9F7620F731F39
:0C254000841F951FA01D0895F894FFCF84
:10254C00000000020000000065000000000055CCF7
:10255C000102010200640A05224E14314432123386
:10256C004234113541361842244C284C215201C7B3
:10257C0002D603E30400FC0205030C0315031C0341
:10258C0024032B0300285078A0C8DCF0FAFCFE3F93
:10259C00804E85311432B333B634D435E636E74247
:1025AC008145E355574C0152042B202D0201630247
:1025BC00E103E6048105D5064307C308F130773102
:1025CC001432B333B634D435E636E7373438F7390A
:1025DC00F63531353100537461727420536875745B
:1025EC00646F776E005B455D20465F4350552069F4
:1025FC0073206F7574206F662072616E6765005B67
:10260C00455D205345475F434F4D5F414E4F444519
:10261C00206973206F7574206F662072616E676518
:10262C00005B455D205345475F5553455F54522031
:10263C006973206F7574206F662072616E67650018
:10264C005B455D2053454E534F525F4D41502053D7
:10265C00697A65206973206F7574206F66207261CA
:10266C006E6765005B455D2053454E534F525F5579
:10267C0050206973206F7574206F662072616E67CD
:10268C0065005B455D2053454E534F525F445720C8
:10269C006973206F7574206F662072616E676500B8
:1026AC005B455D204D6178206C656E677468206FAA
:1026BC006620505245465F4D4F544E20697320257D
:1026CC0064002573206973206F7574206F66207207
:1026DC00616E6765005B455D20554E555345445F03
:1026EC00535459206973206F7574206F6620726182
:1026FC006E6765005B455D20554152545F4C4F47FA
:10270C00206973206F7574206F662072616E676527
:10271C0000696E697444657628290A205665723200
:10272C002E300A2053746570733D25640A20546959
:10273C006D6572303D25640A204F4B004D795F4327
:10274C00726D6E79004D795F654678004D795F53F7
:10275C006C656570004D795F527673004D795F48FA
:10276C00696768004D795F4C6F77004D795F5465F0
:10277C006D706F005361766520454550524F4D206A
:10278C003A2025733D256400537461727420637282
:10279C006D6E7928290057616B6520557000496E64
:1027AC00746F20557365722053657474696E67205D
:1027BC004D6F6465000A476561723D00450052002B
:1027CC003200330034003500360037003800390051
:1027DC00536C656570204D6F646500140000003209
:1027EC000000006400000096000000C80000002CEF
:1027FC0001000090010000F401000058020000E804
:10280C00030000D0070000C4090000B80B000088CA
:0E281C00130000204E000040201004020100B6
:00000001FF
